:020000040800F2
:1000000060060020B1010008B9010008BB0100082A
:10001000BD010008BF010008C10100080000000088
:10002000000000000000000000000000C301000804
:10003000C501000800000000C7010008C901000850
:10004000CB010008CB010008CB010008CB01000860
:10005000CB010008CB010008CB010008CB01000850
:10006000CB010008CB010008CB010008CB01000840
:10007000CB010008CB010008CB010008CB01000830
:10008000CB010008CB010008CB010008CB01000820
:10009000CB010008CB010008CB010008CB01000810
:1000A000CB010008CB010008CB010008CB01000800
:1000B000CB010008CB010008CB010008CB010008F0
:1000C000CB010008CB010008CB010008CB010008E0
:1000D000CB010008CB010008CB010008CB010008D0
:1000E000CB010008CB010008CB010008CB010008C0
:1000F000CB010008CB010008CB010008CB010008B0
:10010000CB010008CB010008CB010008CB0100089F
:10011000CB010008CB010008CB010008CB0100088F
:10012000CB010008CB010008CB010008CB0100087F
:1001300000F002F800F02CF80AA090E8000C8244CD
:100140008344AAF10107DA4501D100F021F8AFF2AA
:10015000090EBAE80F0013F0010F18BFFB1A43F0A5
:1001600001031847080300001803000000230024BF
:1001700000250026103A28BF78C1FBD8520728BFB7
:1001800030C148BF0B6070471FB51FBD10B510BD13
:1001900000F035F91146FFF7F7FF00F058F800F0CE
:1001A00053F903B4FFF7F2FF03BC00F057F9000066
:1001B0000948804709480047FEE7FEE7FEE7FEE7FB
:1001C000FEE7FEE7FEE7FEE7FEE7FEE70448054937
:1001D000054A064B704700009502000831010008EF
:1001E0006000002060060020600200206002002005
:1001F00010B52548806810F4005F0ED10A2000F089
:10020000D3F82148806810F4005F0DD11F480068C2
:1002100040F400501D49086006E01C4800684DF697
:10022000FF7108401949086010BD1948806940F005
:100230001000174988611448406820F47000124982
:1002400048600846406840F4000048607047092054
:1002500000F04CF80E48806940F020000C4988619D
:100260000A480838006820F4700008490839086016
:100270000846006840F400100860FFF7D6FF01E070
:10028000FFF7B6FFFCE70000001001400C1401402E
:1002900000100240002053490861C86014204861E2
:1002A00000208861C8610846006840F001000860CD
:1002B000084640684C4908404A494860084600687A
:1002C0004A490840474908600846006820F48020F1
:1002D00008600846406820F4FE00486008468068D0
:1002E00000208860C8044249086070473D4A12688F
:1002F00042F480323B4B1A6000BF3A4A1268520CFB
:10030000FBD04FF48062374B5A60821ED0B21A463F
:10031000526842EA80425A601A46526842F4803279
:100320005A60344A126842F03202324B1A602D4A47
:10033000126842F080722B4B1A6000BF294A126883
:10034000520EFBD0274A526842F00202254B5A60F7
:1003500005E0244A5268C2F3870101F00301022933
:10036000F7D14FF0E022126922F004024FF0E023AF
:100370001A617047014601EBC1024FF0E0235A6158
:1003800000229A6101221A6100BF4FF0E022106939
:1003900010F0010F02D010F4803FF6D000224FF091
:1003A000E0231A619A617047014601EBC1024FF4E4
:1003B0007A735A434FF0E0235A6100229A61012276
:1003C0001A6100BF4FF0E022106910F0010F02D057
:1003D00010F4803FF6D000224FF0E0231A619A61BA
:1003E00070470000001002400000FFF8FFFFF6FE1B
:1003F00008ED00E0002002407047704770477546E6
:1004000000F028F8AE4605006946534620F0070084
:10041000854618B020B5FFF7D9FEBDE820404FF063
:1004200000064FF000074FF000084FF0000B21F0DE
:100430000701AC46ACE8C009ACE8C009ACE8C009AB
:10044000ACE8C0098D4670470446AFF300802046F3
:10045000FFF7A7FE00487047000000200149182060
:10046000ABBEFEE726000200704700007C040008D7
:0C04700000000020600600006C01000885
:0400000508000131BD
:00000001FF
