:020000040800F2
:1000000078340020150800084D1A00084F1A00081F
:10001000531A0008571A00085B1A00080000000075
:100020000000000000000000000000005F1A00084F
:10003000611A000800000000FF1D0008631A000894
:100040002F0800082F0800082F0800082F080008B4
:100050002F0800082F0800082F0800082F080008A4
:100060002F0800082F0800082F0800082F08000894
:100070002F0800082F0800082F0800082F08000884
:100080002F0800082F0800082F0800082F08000874
:100090002F0800082F0800082F0800082F08000864
:1000A0002F0800082F0800082F0800082F08000854
:1000B0002F0800082F0800082F0800082F08000844
:1000C0002F0800082F0800082F0800082F08000834
:1000D0002F0800082B1D00082F0800082F08000813
:1000E0002F0800082F0800082F0800082F08000814
:1000F0002F0800082F0800082F0800082F08000804
:100100002F0800082F0800082F0800082F080008F3
:100110002F0800082F0800082F0800082F080008E3
:100120002F0800082F0800082F0800082F080008D3
:1001300000F002F800F03CF80AA090E8000C8244BD
:100140008344AAF10107DA4501D100F031F8AFF29A
:10015000090EBAE80F0013F0010F18BFFB1A43F0A5
:100160000103184780920000A0920000103A24BFBB
:1001700078C878C1FAD8520724BF30C830C144BF0C
:1001800004680C607047000000230024002500264E
:10019000103A28BF78C1FBD8520728BF30C148BFEA
:1001A0000B607047002070471FB51FBD10B510BD14
:1001B00008F0F4F81146FFF7F7FF00F009F807F030
:1001C00069FF03B4FFF7F2FF03BC01F051FD00002B
:1001D00010B500F081F802F052F80423054A00211E
:1001E000054803F041F8002003F08AFC02F062F9B0
:1001F000002010BD400200205F02000800BF04F094
:100200009AFD6FF07F4003F0A1FF04F087FD00200E
:1002100003F0A6FF03F04EFE044603F0A5FD05E043
:100220000A2300221146104603F0B6FBF8E700BF90
:100230004FF4E13001F02AFD10E02048008810F46E
:10024000004F05D01EA007F053FE00201B49088078
:100250000A2300221146104603F09EFBEDE700BF83
:1002600000F03EF802F03EF900F064F80823174A67
:100270000021AFF2450002F0F7FF0723144A0021E6
:10028000AFF2870002F0F0FF16E04FF40051114882
:1002900000F059FC1E2300221146104603F07CFB9F
:1002A0004FF400510B4800F050FC4FF496730122BC
:1002B0000021084603F070FBE7E700002C00002057
:1002C0005355434345535345440A0000400400201E
:1002D000400600200014014010B501F0C3FC10BD21
:1002E00030B51E4800684FF47A72B0FBF2F1B1F1FC
:1002F000807F00D31DE021F07F40401E4FF0E022C0
:10030000506150170F22002807DA13071D0E144BF7
:1003100000F00F04241F1D5503E013071C0E114BA2
:100320001C5400BF00204FF0E022906107201061B4
:1003300000BF30BD08B50121202000F00FFE4FF4B2
:100340000050ADF8000010208DF8030001208DF85A
:1003500002006946044800F04BFB08BD180000206D
:1003600018ED00E000E400E0001401404FF0D84236
:1003700010805180704701464FF0D840018040887E
:10038000704700B597B00020019002900A200390BA
:100390000020049005900690079006200890002009
:1003A00009900A9010200B9000200C900E900D9058
:1003B0000F9010904FF480501190002012901390E5
:1003C000149001A81590169008A801F082F8012158
:1003D000062001F0DFF9322003F0AEFA17B000BDBD
:1003E00008B5012140F2E51000F0B8FD0121080236
:1003F00000F0A7FD0220ADF8000003208DF80200F8
:1004000010208DF803006946FC4800F0F1FA022143
:10041000FA4800F098FB4CF23370ADF8000003206E
:100420008DF8020018208DF803006946F44800F0AA
:10043000DFFA4FF68070ADF800006946F14800F031
:10044000D7FA0120ADF800006946EF4800F0D0FA75
:100450004FF48050ADF800006946EC4800F0C8FA4F
:1004600008BD70B5FFF7BCFFFFF78BFF322003F02C
:1004700063FA0020FFF77FFF054606E00020FFF744
:100480007AFF0546642003F057FAA5F51340283893
:10049000F4D11021E720FFF769FF01210020FFF7C9
:1004A00065FF4FF480710120FFF760FF4FF4E061BA
:1004B0000220FFF75BFF41F230010320FFF756FFF8
:1004C00000210420FFF752FF40F202210820FFF72D
:1004D0004DFF00210920FFF749FF00210A20FFF707
:1004E00045FF01210C20FFF741FF00210D20FFF700
:1004F0003DFF00210F20FFF739FF00211020FFF7FB
:1005000035FF07211120FFF731FF00211220FFF7EF
:100510002DFF00211320FFF729FF4CF2503401E09A
:10052000601E84B2002CFBDC4CF2503401E0601EF3
:1005300084B2002CFBDC41F290511020FFF716FF33
:1005400040F227211120FFF711FF4CF2503401E057
:10055000601E84B2002CFBDC4CF2503401E0601EC3
:1005600084B2002CFBDC9C211220FFF7FFFE4CF232
:10057000503401E0601E84B2002CFBDC4CF250349D
:1005800001E0601E84B2002CFBDC4FF4C851132044
:10059000FFF7ECFE23212920FFF7E8FE0E212B2098
:1005A000FFF7E4FE4CF2503401E0601E84B2002CF0
:1005B000FBDC4CF2503401E0601E84B2002CFBDC0A
:1005C00000212020FFF7D2FE00212120FFF7CEFEE0
:1005D0004CF2503401E0601E84B2002CFBDC4CF283
:1005E000503401E0601E84B2002CFBDC0721302077
:1005F000FFF7BCFE40F207713120FFF7B7FE06217E
:100600003220FFF7B3FE40F204713520FFF7AEFE53
:1006100041F604713620FFF7A9FE04213720FFF7C9
:10062000A5FE00213820FFF7A1FE40F20671392017
:10063000FFF79CFE40F201713C20FFF797FE0F216F
:100640003D20FFF793FE4CF2503401E0601E84B26F
:10065000002CFBDC4CF2503401E0601E84B2002C14
:10066000FBDC00215020FFF781FEEF215120FFF736
:100670007DFE00215220FFF779FE40F23F1153200A
:10068000FFF774FE4FF427416020FFF76FFE012152
:100690006120FFF76BFE00216A20FFF767FE002153
:1006A0008020FFF763FE00218120FFF75FFE00211D
:1006B0008220FFF75BFE00218320FFF757FE002119
:1006C0008420FFF753FE00218520FFF74FFE102105
:1006D0009020FFF74BFE00219220FFF747FE0321F9
:1006E0009320FFF743FE4FF488719520FFF73EFEFD
:1006F00000219720FFF73AFE00219820FFF736FEF1
:1007000040F233110720FFF731FE00212020FFF7D0
:100710002DFE00212120FFF729FE322003F00CF9E5
:1007200070BD22204FF0D8410880704770B5044654
:1007300000250021084607F05DFEFFF7F2FF00BF2D
:1007400003E04FF0D84044806D1CB5F5963FF8D3D8
:1007500070BD4FF0D8414880704770B505460E46D1
:1007600014463146284607F045FEFFF7DAFF2046DB
:10077000FFF7EFFF70BD22204FF0D84108800846F8
:1007800040882349088008460088704730B50146F4
:1007900001F01F04C1F34513CA0AE50205EB431536
:1007A0001544A8B230BD70B504460D462946204612
:1007B00007F020FEFFF7DFFF0646FFF7E7FF70BDFB
:1007C0002DE9F04104460F4615461E46394620469F
:1007D00007F010FE21465020FFF7C8FD3946522091
:1007E000FFF7C4FD681E81B25120FFF7BFFD701EE8
:1007F00081B25320FFF7BAFDBDE8F0810008014047
:100800000014014000180140001C0140002001407C
:10081000000000200948804709480047FEE7FEE73E
:10082000FEE7FEE7FEE7FEE7FEE7FEE7FEE7FEE7A0
:1008300004480549054A064B70470000651B00083F
:1008400031010008782E0020783400207830002014
:100850007830002031490143314A1160704770B54A
:10086000002100230F22C4780CB32D4C246804F41B
:10087000E064C4F5E064210AC1F10403CA4044788D
:1008800004FA03F18478144021430901254C0678C9
:10089000A155047804F01F050124AC4005786D11C2
:1008A0004FF0E02606EB8505C5F8004109E0047825
:1008B00004F01F050124AC401B4D0678761145F865
:1008C000264070BD194A0A400243154B1B1F1A608F
:1008D000704739B1124A121D12680243104B1B1D9A
:1008E0001A6006E00E4A121D126882430C4B1B1D53
:1008F0001A607047042808D14FF0E021096941F0DF
:1009000004014FF0E022116107E04FF0E021096996
:1009100021F004014FF0E022116170470000FA0558
:100920000CED00E000E400E080E100E080FFFF1F4C
:1009300010B50446CA48844208D10121042000F0C1
:1009400027FB0021042000F023FB46E0C548844239
:1009500008D10121082000F01BFB0021082000F035
:1009600017FB3AE0C048844208D10121102000F072
:100970000FFB0021102000F00BFB2EE0BB4884424F
:1009800008D10121202000F003FB0021202000F0ED
:10099000FFFA22E0B648844208D10121402000F04D
:1009A000F7FA0021402000F0F3FA16E0B148844243
:1009B00008D10121802000F0EBFA0021802000F016
:1009C000E7FA0AE0AC48844207D10121801500F023
:1009D000DFFA0021A01500F0DBFA10BD10B50121EF
:1009E000084600F0D5FA0021012000F0D1FA10BD30
:1009F0002DE9F041024600250026002000230024B6
:100A0000002791F803C00CF00F0591F803C01CF00B
:100A1000100F03D091F802C04CEA050591F800C010
:100A2000BCF1000F31D0146800202BE04FF0010C16
:100A30000CFA00F3B1F800C00CEA03069E4220D184
:100A400083004FF00F0C0CFA03F7BC4305FA03FCCC
:100A50004CEA040491F803C0BCF1280F06D14FF012
:100A6000010C0CFA00FCC2F814C00AE091F803C0B3
:100A7000BCF1480F05D14FF0010C0CFA00FCC2F894
:100A800010C0401C0828D1D31460B1F800C0BCF1DC
:100A9000FF0F34DD546800202EE000F1080C4FF009
:100AA000010808FA0CF3B1F800C00CEA03069E42F4
:100AB00021D183004FF00F0C0CFA03F7BC4305FA69
:100AC00003FC4CEA040491F803C0BCF1280F05D1E3
:100AD00000F1080C08FA0CF8C2F8148091F803C071
:100AE000BCF1480F07D100F1080C4FF0010808FADB
:100AF0000CF8C2F81080401C0828CED35460BDE822
:100B0000F0814FF6FF710180022181700421C170D4
:100B100070470246002093680B4201D0012000E09C
:100B2000002070470146886880B270470246002066
:100B3000D3680B4201D0012000E00020704701463D
:100B4000C86880B2704701617047416170470AB15F
:100B5000016100E041617047C16070474FF480322D
:100B60000A438261816182618269826970470246BB
:100B70000020424B18684FF68073184040EA02107C
:100B800008433E4B186070473D49C8617047F0B557
:100B90000A46002300240021002500F00046B6F19B
:100BA000004F02D1354EF16901E0344E7168C0F357
:100BB000034583B200F44016B6F5401F08D121F07A
:100BC00070612E4E766826F070662C4F7E6012E0C3
:100BD00000F48016B6F5801F06D1032606FA05F448
:100BE000A14341F0706106E0460D360103FA06F6B6
:100BF000B14341F0706122B1460D360103FA06F6A9
:100C0000314300F00046B6F1004F02D11B4EF161B6
:100C100001E01A4E7160F0BD30B500228B071C0F49
:100C20000F2303FA04F2154B08338C1053F82430C9
:100C30009343124C08348D1044F8253023468C1011
:100C400053F824308C07240F00FA04F423430B4C90
:100C500008348D1044F8253030BD0A4908607047CB
:100C600000080140000C0140001001400014014048
:100C700000180140001C014000200140000001401C
:100C800000002042DC002042DD48006840F0010006
:100C9000DB49086008464068DA490840D84948609E
:100CA00008460068D8490840D549086008460068E9
:100CB00020F4802008600846406820F4FE00486068
:100CC0004FF41F0088607047CD49096821F48031D6
:100CD000CB4A11601146096821F480211160B0F5FA
:100CE000803F03D0B0F5802F0ED106E0C4490968DB
:100CF00041F48031C24A116007E0C149096841F4FA
:100D0000A021BF4A116000E000BF00BF704710B5CE
:100D100001460022002300204A11012A02D1B84CCA
:100D2000236806E0022A02D1B54C236A01E0B44CE4
:100D3000636A01F01F02012494401C4201D001208B
:100D400000E0002010BD38B50020009000240025F0
:100D500000BF3120FFF7DBFF05460098401C0090E4
:100D60000098B0F5A06F01D0002DF2D03120FFF730
:100D7000CEFF08B1012400E00024204638BD014622
:100D800000209F4A106820F0F80040EAC10010607F
:100D900070479E490860704702460020984B58688B
:100DA00020F47C1042EA01031843954B58607047C9
:100DB00096490866704701460020914A506820F025
:100DC00003000843506070478D48406800F00C00F5
:100DD0007047014600208A4A506820F0F00008431E
:100DE0005060704701460020854A506820F4E0605A
:100DF00008435060704701460020814A506820F443
:100E0000605040EAC1005060704729B17C4A527A74
:100E100002437B4B5A7204E0794A527A8243784B00
:100E20005A7270477A490860704701460020744A38
:100E3000506820F440400843506070470021754AD4
:100E400011706F4A82F82010012802D0042808D1BE
:100E500003E001216F4A117004E005216D4A117011
:100E600000E000BF00BF70476B49086070476449ED
:100E7000096A0143624A1162704767494439086050
:100E8000704730B500210022002400235C4D6D68BE
:100E900005F00C0121B1042905D0082923D105E072
:100EA0005E4D056022E05D4D05601FE0544D6D68AC
:100EB00005F47012524D6D6805F48034022505EB7F
:100EC00092421CB9564D554305600BE04C4D6D6880
:100ED00015F4003F03D0524D5543056002E04F4DDD
:100EE0005543056002E04D4D056000BF00BF444D15
:100EF0006D6805F0F00109094A4D6B5C0568DD403D
:100F000045603F4D6D6805F4E061090A454D6B5C35
:100F10004568DD4085603A4D6D6805F46051C90A49
:100F2000404D6B5C4568DD40C560354D6D6805F42E
:100F30004041890B3C4D6B5CC568B5FBF3F5056121
:100F400030BD29B12E4A526902432D4B5A6104E04B
:100F50002B4A526982432A4B5A61704729B1284A69
:100F600092690243264B9A6104E0254A92698243C2
:100F7000234B9A61704729B1214AD2690243204B21
:100F8000DA6104E01E4AD26982431D4BDA61704780
:100F900029B11B4AD2680243194BDA6004E0184AAF
:100FA000D2688243164BDA60704729B1144A12693D
:100FB0000243134B1A6104E0114A12698243104B39
:100FC0001A61704714494039086070470F49C86476
:100FD00070470B49C87170470948406A40F08070FB
:100FE00007494862704701460020054A92680A4254
:100FF00001D0012000E0002070470149887270474D
:10100000001002400000FFF8FFFFF6FE0000424221
:10101000D8004242201002408004424200127A006E
:1010200000093D00020000201200002010B5044617
:10103000FB48844209D101218803FFF7A9FF002161
:101040004FF48040FFF7A4FF32E0F648844209D114
:1010500001214804FFF7A9FF00214FF40030FFF7FA
:10106000A4FF25E0F048844209D101218804FFF75C
:101070009CFF00214FF48020FFF797FF18E0EB481A
:10108000844209D10121C804FFF78FFF00214FF4EA
:101090000020FFF78AFF0BE0E548844208D10121D8
:1010A0000805FFF782FF00214FF48010FFF77DFF56
:1010B00010BD2DE9F04786B005460E460024A24635
:1010C00000BFA1460027B08900B100BF2F462C8A7F
:1010D0004CF6FF700440F08804432C82AC894EF635
:1010E000F3100440B08831890843718908430443F0
:1010F000AC81AC8A4FF6FF400440B0890443AC8217
:1011000001A8FFF7BEFEC648874202D1DDF810A055
:1011100001E0DDF80CA0A88910F4004F08D00AEB1C
:10112000CA0000EB0A1031684900B0FBF1F807E093
:101130000AEBCA0000EB0A1031688900B0FBF1F835
:101140006420B8FBF0F004012009642101FB108940
:10115000A88910F4004F08D0322000EBC900B0FB82
:10116000F1F000F00700044308E0322000EB091022
:101170006421B0FBF1F000F00F0004432C8106B0B5
:10118000BDE8F0874FF41651016000218180C180D5
:1011900001810C21418100218181704710B50246F7
:1011A0000020108A4FF2FF0318400B884C8823431D
:1011B0008C882343CC8823431843108210BD002120
:1011C000018041808180C180704721B1828942F4D1
:1011D0000052828104E082894DF6FF731A408281B9
:1011E0007047F0B503460024002600250020A1F535
:1011F00010676A3F00D100BF1846C1F3421401F0E6
:101200001F06012707FA06F5012C01D10C3004E076
:10121000022C01D1103000E014301AB107682F43BE
:10122000076002E00768AF430760F0BD1AB1838A28
:101230000B43838202E0838A8B4383827047028A56
:101240004FF6F0731A400282028A0A430282704704
:1012500082894FF2FF731A40828182890A43828118
:10126000704721B1828942F00202828104E08289C2
:101270004FF6FD731A4082817047028A4FF6DF7382
:101280001A400282028A0A430282704721B1028A0E
:1012900042F48042028204E0028A4BF6FF731A4055
:1012A00002827047C1F30802828070470146888835
:1012B000C0F308007047818941F0010181817047C6
:1012C000028BD2B20283028B42EA01220283704770
:1012D000028B02F47F420283028B0A43028370472F
:1012E00021B1828A42F02002828204E0828A4FF693
:1012F000DF731A408282704721B1828A42F0100265
:10130000828204E0828A4FF6EF731A40828270472D
:1013100021B1828A42F00802828204E0828A4FF67A
:10132000F7731A408282704721B1828942F40042E9
:10133000828103E08289C2F30E028281704721B16B
:10134000828A42F40062828204E0828A4FF2FF7352
:101350001A4082827047828A4FF6FB731A4082825B
:10136000828A0A438282704721B1828A42F0020255
:10137000828204E0828A4FF6FD731A4082827047AF
:1013800002460020B1F5007F00D100BF13880B4258
:1013900001D0012000E00020704701F40072B2F596
:1013A000007F00D100BFCA430280704770B502467B
:1013B0000024002300250020A1F510666A3E00D11C
:1013C00000BFC1F3421501F01F03012606FA03F323
:1013D000012D02D19689334006E0022D02D1168AF2
:1013E000334001E0968A33400C12012606FA04F4D9
:1013F0001688344013B10CB1012000E0002070BD0C
:1014000010B500220023A1F510646A3C00D100BF92
:101410000A1201249440A3B2DC43048010BD0000F2
:10142000003801400044004000480040004C0040AB
:101430000050004030B943F2DB014FF0204242F847
:10144000201005E043F2D2014FF0204242F8201074
:101450006FF07042411C4FF0204343F821201146A9
:101460001A4602EB8002C2F80411704710280AD114
:1014700018214FF020421166402151664FF0FC3197
:101480009166D16610E01821F84A11604FF04001D2
:101490004FF02042C2F884104FF0FC31F44A116042
:1014A0004FF02042C2F88C1070471820F1490860B4
:1014B0004FF000004FF02041C1F8A4004FF0FC3085
:1014C000ED49086001F10401086001F104010860C0
:1014D0007047D0E901121143C268114302691143F8
:1014E0004269114382691143C2691143026A11437F
:1014F000426A1143826A1143C26A1143026B11436B
:101500004FF02043026843F822108168082908D16F
:101510001A46016852F8211041F04001026843F870
:101520002210416B0968426B526841EA0211426B1A
:10153000926841EA0221426B928941EA0241426B80
:10154000128A41EA0251426B127D41EA0261426B0A
:10155000926911430268521C4FF0204343F8221055
:10156000C16AB1F5804F1AD1816B0968826B5268EC
:1015700041EA0211826B926841EA0221826B128A6F
:1015800041EA0251826B127D41EA0261826B9269EB
:101590001143026803EB8202C2F8041108E06FF005
:1015A00070414FF02043026803EB8202C2F804113D
:1015B000704730B5002100220023446844F008043D
:1015C00085682C43C5682C4305692C43456944EA6A
:1015D0004524856944EA4531C4692468C5696D6854
:1015E00044EA0524C5692D8944EA0544C5692D7B73
:1015F00044EA0562046A2468056A6D6844EA0524C1
:10160000056A2D8944EA0544056A2D7B44EA056391
:101610000468102C05D14FF020442166A266E366D1
:1016200007E0924C21604FF02044C4F88820934C8E
:10163000236030BD016841F01001426841EA422157
:10164000826841EA42318B4A1160C1680968C26808
:10165000526841EA0221C268128941EA0241C26825
:10166000127B41EA0261844A1160016909680269DA
:10167000526841EA02210269128941EA0241026983
:10168000127B41EA02617E4A116041690968426940
:10169000526841EA02214269128941EA02414269E3
:1016A000127B41EA02614FF02042C2F8B01070474D
:1016B000002101600221416000218160C16001615F
:1016C00041618161C16101624FF480514162490011
:1016D00081620021C16201630F21426B1160426B84
:1016E0005160FF21426B91600F21426BD160426BD0
:1016F0001161426B51610021426B91610F21826B3C
:101700001160826B5160FF21826B91600F21826BAF
:10171000D160826B1161826B51610021826B91619A
:10172000704710210160002141608160C16001614A
:1017300041618161FC21C2691160C2695160C26965
:101740009160C269D160026A1160026A5160026AE6
:101750009160026AD1607047002101604160816040
:10176000FC21C2681160C2685160C2689160C268A1
:10177000D160026911600269516002699160026979
:10178000D160426911604269516042699160426969
:10179000D160704751B14FF0204252F8202042F002
:1017A00001024FF0204343F8202009E04FF020428F
:1017B00052F82020334B1A404FF0204343F82020AA
:1017C000704799B1102808D14FF02042126E42F0B4
:1017D00004024FF020431A661DE0244A126842F0CA
:1017E00004024FF02043C3F8802014E0102809D1F0
:1017F0004FF02042126E234BDB1E1A404FF0204365
:101800001A6608E0194A12681F4B02EA03024FF0F9
:101810002043C3F88020704740B11649096841F061
:1018200004014FF02042C2F8A01008E011490968F5
:10183000154A01EA02014FF02042C2F8A010704799
:1018400099B1102808D14FF02042126E42F04002A8
:101850004FF020431A662DE0044A126842F040021D
:101860004FF02043C3F8802024E00FE0800000A068
:10187000880000A0A00000A0A80000A08C0000A08C
:10188000AC0000A0FEFF0F00FBFF0F00102808D1E6
:101890004FF02042126E684B1A404FF020431A66F8
:1018A00008E0664A1268644B02EA03024FF02043E4
:1018B000C3F88020704701460020102903D14FF063
:1018C0002042506F01E05E4A1068704710B5F2B1D7
:1018D000102807D14FF020435B6E0B434FF020449C
:1018E000636632E0B0F5807F08D1564B1B6843EA4F
:1018F00001034FF02044C4F8843026E0524B1B68AB
:1019000043EA01034FF02044C4F8A4301DE010283E
:1019100007D14FF020435B6E8B434FF0204463664A
:1019200013E0B0F5807F08D1464B1B6823EA010322
:101930004FF02044C4F8843007E0434B1B6823EA8F
:1019400001034FF02044C4F8A43010BD10B5024686
:1019500000200023102A03D14FF02044636E07E0DB
:10196000B2F5807F02D1374C236801E0364C236802
:101970000B4201D0012000E0002010BD102807D14B
:101980004FF02042526E8A434FF020435A6613E0D4
:10199000B0F5807F08D12B4A126822EA01024FF08D
:1019A0002043C3F8842007E0274A126822EA010294
:1019B0004FF02043C3F8A420704770B502460020C2
:1019C000002300240025102A03D14FF02046736E17
:1019D00007E0B2F5807F02D11A4E336801E01A4E5B
:1019E000336803EA010403EAD10514B10DB1012003
:1019F00000E0002070BD102808D14FF02042526E48
:101A000022EAD1024FF020435A6613E0B0F5807FFE
:101A100008D10C4A126822EAD1024FF02043C3F8E1
:101A2000842007E0084A126822EAD1024FF02043DE
:101A3000C3F8A42070470000BFFF0F00800000A083
:101A4000940000A0840000A0A40000A0704700BF84
:101A5000FEE700BFFEE700BFFEE700BFFEE77047FE
:101A6000704710B500F0AAF9044606480078401CFB
:101A700004490870204600F0A5F900F052FD00F07E
:101A80002BFC10BD490000200CB5002001900090F7
:101A90006B48006840F480306949086000BF6848BE
:101AA000006800F4003000900198401C01900098FC
:101AB00018B90198B0F5A06FF1D16148006810F431
:101AC000003F02D00120009001E00020009000982B
:101AD000012842D15B48006840F010005949086075
:101AE0000846006820F0030008600846006840F0DF
:101AF0000200086052484068514948600846406802
:101B000048600846406840F4806048600846406885
:101B100020F47C1048600846406840F4E8104860B3
:101B20000846006840F08070086000BF44480068C4
:101B300010F0007FFAD04248406820F0030040498E
:101B400048600846406840F00200486000BF3C48DA
:101B5000406800F00C000828F9D10CBD10B5FFF763
:101B600093FF10BD10B53648006840F001003449BD
:101B700008600846406834490840314948600846D2
:101B80000068324908402E4908600846006820F481
:101B9000802008600846406820F4FE0048604FF44A
:101BA0001F008860FFF7DAFF4FF0006028490860E7
:101BB00010BD10B5002100200022214B5B6803F00E
:101BC0000C0121B1042906D0082928D107E0214BB6
:101BD000214C236027E01F4B1F4C236023E0184B50
:101BE0005B6803F47010164B5B6803F480320223C9
:101BF00003EB904022B9194B4343174C23600DE08F
:101C00000F4B5B6813F4003F04D0144B4343124C5A
:101C1000236003E00F4B43430F4C236003E00D4B65
:101C20000D4C236000BF00BF054B5B68C3F303137B
:101C30000B4CE15C084B1B68CB40074C236010BD8C
:101C400000100240002002400000FFF8FFFFF6FEF7
:101C500008ED00E000127A001800002000093D00A5
:101C60001C00002010B54FF4A060FEF7F3FD10BD7E
:101C7000014600BF704700BF4C4A128812F0400F67
:101C8000FAD0C2B2494B1B1D1A80704710B586B0FE
:101C90000446012144F20400FFF760F94348FFF7CE
:101CA000C5F94FF40070ADF8140003208DF816004C
:101CB00018208DF8170005A93D48FEF799FE4FF44E
:101CC0008060ADF8140004208DF8170005A938488D
:101CD000FEF78EFE25208DF8000003208DF8010010
:101CE0008DF8020001208DF803006846FEF7B7FD6D
:101CF00001940020ADF80800ADF80A00ADF80C0022
:101D0000ADF810000C20ADF80E0001A92748FFF730
:101D1000D0F9012240F225512448FFF762FA01214F
:101D20002248FFF752FA06B010BD10B500F0B9FA1C
:101D300040F225511D48FFF739FB10B31B48FFF750
:101D4000B5FAC4B21B48008810F4004F2BD11948D3
:101D5000008810F4804F0CD00A2C03D000201549C5
:101D6000088020E01348008840F4004011490880B2
:101D700019E00D2C06D10F48008840F480400D4931
:101D8000088010E00B480088C0F30D000A490C548D
:101D900008480088401C0749088008460088C72872
:101DA00001DD0020088000F097FA10BD00380140E6
:101DB000000801402C00002044060020EFF31080B2
:101DC00072B6704780F3108870471D484FF0FF01CE
:101DD0000170002080F309881A48012101701A4817
:101DE0004FF08051016062B6FEE717484FF0805116
:101DF0000160704714484FF080510160704772B61F
:101E0000EFF3098028B1203880E8F00F0F49096806
:101E1000086000B50E4880475DF804EB0D480E4998
:101E20000A78027009480D490A680260106890E853
:101E3000F00F203080F309884EF0040E62B6704730
:101E400022ED00E05200002004ED00E058000020E8
:101E5000071F00084B0000204C00002060000020FD
:101E600070477047704770477047704770B50446B9
:101E700010464FF080750560051F28462C606FF0F6
:101E80000106051F28462E604FF01236051F284612
:101E90002E604FF00336051F28462E604FF00236A5
:101EA000051F28462E607610051F28462E60051F48
:101EB000284629604FF01136051F28462E604FF046
:101EC0001036051F28462E604FF00936051F28469C
:101ED0002E604FF00836051F28462E604FF007365B
:101EE000051F28462E604FF00636051F28462E6037
:101EF0004FF00536051F28462E604FF00436051FAB
:101F000028462E6070BD704770477047024600201B
:101F100005E011F8013B02F8013B431CD8B20B78F5
:101F2000002BF6D1137070472DE9F04105460E469F
:101F30001446002714B90020BDE8F0811DB9042023
:101F400020700020F8E71EB90C2020700020F3E775
:101F5000FD480078002803DD112020700020EBE709
:101F60002878012808D0022807D0032802D00428A6
:101F700004D100E000BF00BF00BF03E001202070DB
:101F80000020D9E700BFFFF719FF074605F10F0151
:101F90003046FFF7BBFF80463846FFF713FF0020AF
:101FA00020704046C8E70146002002E0491C421C60
:101FB000D0B20A78002AF9D170472DE9F0410546E0
:101FC0000E4614464FF000080CB9BDE8F08115B973
:101FD00004202070F9E716B90C202070F5E7DA48E4
:101FE0000078002802DD12202070EEE72878012812
:101FF00008D0022807D0032802D0042804D100E02A
:1020000000BF00BF00BF02E001202070DDE700BF7D
:10201000FFF7D4FE80463046FFF7C5FF07460F2F77
:1020200005DD4046FFF7CEFE0B202070CDE73146A0
:1020300005F10F00FFF76AFF4046FFF7C3FE0020DF
:10204000207000BFC1E77CB5002514E06946284632
:1020500001F093FB064666B9BC4850F8254044B1F0
:10206000012C06D0D4E9020100EB8100E063019865
:102070002064681CC5B21F2DE8DD7CBD002402E091
:10208000C82001F059FCB24800780028F8D0B148C7
:1020900000686421B0FBF1F0AE49086008460068B2
:1020A00028B90020AC490870FF2001F0B1FB00BF47
:1020B000FFF784FE0446A9480068A949086000208B
:1020C000A64908602046FFF77DFEA5480068A149A3
:1020D0000968B0FBF1F0C0F164009F490870FFF798
:1020E000C4FEFFF7B0FF642001F026FCE0E700B576
:1020F00087B00320002180229A4BCDE90132CDE93F
:1021000003104FF6FE701E23974A0090AFF2930023
:1021100001F006F906AA95A11E2001F08AFA07B07F
:1021200000BD002400BFFFF749FE04468B4800684D
:10213000401C8A4908602046FFF744FEFFF794FEE2
:10214000F1E700B587B00320002180228B4BCDE959
:102150000132CDE903104FF6FF701F23884A00902B
:10216000AFF2410001F0DCF806AA86A11F2001F0C1
:1021700060FA07B000BD04E0002200F8012B4A1EFF
:1021800091B20029F8DC704730B54FF4A071814856
:10219000FFF7F1FF7F4B03F1200500240AE0002048
:1021A00018705D603F20D8730021197420332035EA
:1021B000601C84B2092CF2DB0020187058603F20AC
:1021C000D8730021197473487349086030BD30B565
:1021D0004FF4BD617148FFF7CEFF80215B48FFF7E8
:1021E000CAFF6E4B03F1540500240AE05D613F20F5
:1021F00083F8440000214520C15454335435601CF9
:10220000C4B2112CF2D3002058613F2083F844005F
:1022100000214520C1540020614908605F486149A0
:10222000086030BD0022604B1A706049002004E055
:10223000002201F8012B421CD0B20428F8DB002256
:102240005B4B1A705B4B1A705B4B1A605B4B1A60EE
:10225000704700205A4908603B4908705949087086
:102260005949087059490870594908603B49086044
:102270003B4908603749086035490870704710B518
:10228000FFF7EEFDFFF7E5FFFFF7CCFFFFF79FFF3E
:10229000FFF77AFFFFF755FFFFF729FFFFF7E1FD93
:1022A00010BD4A480078012808D127480078FF2847
:1022B00004D225480078401C2349087070474549DE
:1022C000394A1278885C3949095C424A515C01EB11
:1022D000C001384A1170704710B500243B4800789F
:1022E000012830D1FFF76AFD04461748007800281E
:1022F00004DD15480078401E134908701248007824
:10230000F0B930480078D8B9FFF7D9FF29480078EC
:1023100027490978884213D00C482649097850F893
:1023200021002549086008460068006B401C0968C8
:10233000086327480068401C25490860FFF75AFDDC
:102340002046FFF73FFD10BD490000204C0C002047
:1023500048000020400000203C00002054000020E5
:10236000440000204C080020480A002075432F4FED
:10237000532D494920537461740000004C0A002019
:10238000480C002075432F4F532D49492049646C58
:10239000650000000C07002038000020CC0C002055
:1023A000640000205C0000204D0000204E00002052
:1023B0004B0000204C00002060000020580000204E
:1023C0006C0000204A000020530000205200002032
:1023D000340000200C84000810B50024FE4800786A
:1023E000012811D1FFF7EAFC0446FC48007840B907
:1023F000FB480078FF2804D2F9480078401CF849CF
:1024000008702046FFF7DEFC10BD10B50024FFF772
:10241000D5FC0446F1480078F0B9F1480078D8B905
:10242000FFF74DFFEF480078EF490978884213D055
:10243000EE48EC49097850F82100ED49086008465B
:102440000068006B401C09680863EA480068401C8B
:10245000E8490860FFF7C9FC2046FFF7B3FC10BD50
:1024600010B50024DC480078012822D1FFF7A6FC33
:102470000446DB480078002818DDD9480078401E63
:10248000D74908700846007860B9D448007828B960
:102490002046FFF797FCFFF7B8FF0AE02046FFF75A
:1024A00091FC06E02046FFF78DFC02E02046FFF796
:1024B00089FC10BD10B5C848007890B9FFF7FFFE41
:1024C000C8480078C8490870C848C649097850F813
:1024D0002100C749086008460068C7490860FFF73F
:1024E00074FC10BD10B50024022001F025FAFFF79E
:1024F00065FC04460020C14908602046FFF762FCE5
:10250000642001F019FAFFF759FC0446BB48006843
:10251000BB4908600120BB4908702046FFF752FC08
:1025200010BD70B50026FFF7F0FCFFF747FC06462C
:10253000B5480068401CB44908603046FFF742FCCB
:10254000A5480078012858D1B048007820B101286A
:1025500004D0022809D103E001250BE0002509E0A1
:1025600001250120A949087004E001250020A749A0
:10257000087000BF00BF05B970BDA548046838E009
:10258000FFF71CFC0646A08C78B3A08C401E00040C
:10259000000CA08429D194F8260010F0370F09D040
:1025A00014F8260F20F03700207001206070A4F18D
:1025B000260402E0002084F8270094F8260010F09A
:1025C000080F12D104F12A04A0789249097840EA50
:1025D00001009049087020788F49085C617840EAD2
:1025E000010014F82A198C4A505464693046FFF7E8
:1025F000E9FB94F828001F28C2D100BFBCE74FF4C4
:102600008F707047704710B590F82A2001F10B03C6
:102610009B5C90F82B40A34301F10B04A354234689
:102620009B5C23B98B7A90F82C40A3438B7210BD2E
:102630002DE9F04F05460F4690469946A87A77490E
:102640000E5C05F10B00805D11F800B00BEBC600CD
:1026500000F0FF0A654850F82A40002004F12004E9
:10266000A0802760A07920EA0800A07184F8079074
:10267000A079A4F1200410F0080F0DD194F82C00DB
:10268000644909780843634908706348805D94F899
:102690002B1008436049885529462046FFF7B3FFB1
:1026A0005046BDE8F08F10B5534A1268D061524AC7
:1026B000126892F82A3000F10B02D25C4E4B1B6874
:1026C00093F82B301A434C4B1B6893F82A4000F1C7
:1026D0000B031A55827A484B1B6893F82C301A4327
:1026E0008272454A126892F82A104B4A525C424B59
:1026F0001B6893F82B309A43474B5A541A46525C46
:1027000042B93D4A126892F82C30424A12789A43F4
:10271000404B1A7010BD0023837200F10B010022A0
:1027200004E0002301F8013B531CDAB2042AF8DB71
:10273000704705E011F8013B00F8013B531E9AB2C7
:10274000002AF7DC70472DE9F84F05460E4617467C
:102750009846DDE90BABDDF8289000200090FFF7EC
:102760002DFB00902E480468002C7DD054F8140FE7
:102770002B4908600098FFF725FB44F8146C257579
:102780000020A074E074208244F810AC44F8089C47
:1027900044F80C7C24F804BC24F8028C6076E81021
:1027A000A07505F007006075A17D012088402076A6
:1027B000617D01208840E0750020A060E060E0615C
:1027C00060622062A062E0623F2084F83000A4F1E1
:1027D00014044FF0000125E05200002049000020C1
:1027E0004A0000204C0000204B0000204C0C002030
:1027F0006000002034000020580000205400002019
:1028000040000020480000206C00002068000020EC
:10281000640000204D0000204E0000200C840008C1
:102820005C0000204FF0450001552046FFF76CFB8F
:102830002046FFF717FBFFF7C1FA00901A4840F84F
:1028400025401A48006860610020A06117480068B0
:1028500010B11648006884611448046004F12A0429
:10286000A0781349097800E019E040EA0100104916
:10287000087020780F49085C617840EA010014F87C
:102880002A190C4A50540C48007800F101000A49FA
:1028900008700098FFF796FA0020BDE8F88F0098BE
:1028A000FFF790FA4220F8E74C0C0020640000206B
:1028B0004D0000204E0000205300002070B504465B
:1028C00000260CB9002070BD2078012801D000201E
:1028D000F9E7FFF773FA0646656800206060304646
:1028E000FFF770FA2846EEE770B505460026FA486D
:1028F0000078002801DD002070BDFFF75FFA064672
:10290000F6480468006820B1F44800684068F3495C
:1029100008603046FFF756FA5CB1012020700020B5
:10292000208165603F20E073002121742046FFF77D
:10293000F2FE2046E0E72DE9F047044688461546BA
:102940004FF0000915B92046BDE8F0871CB90420F6
:1029500028702046F8E72078012803D0012028704D
:102960002046F1E7DC480078002803DD0F202870BE
:102970002046E9E7FFF722FA8146A07A08B101274D
:1029800000E00027B8F1000F03D0B8F1010F3ED1ED
:102990001BE09FB93F20E0730021217400202070CC
:1029A000CE480068606000202081CC480460484622
:1029B000FFF708FA00202870002605E04846FFF7D8
:1029C00001FA49202870264628E005E0002302226B
:1029D00019462046FFF72CFEA07A0028F6D13F20AA
:1029E000E0730021217400202070BC480068606002
:1029F00000202081B94804604846FFF7E3F9012F21
:102A000001D1FFF702FD00202870002606E04846AD
:102A1000FFF7D8F907202870264600BF00BF3046D0
:102A200092E72DE9F04105460F4614464FF00008A5
:102A300014B90020BDE8F0811DB9042020700020E9
:102A4000F8E72878012803D0012020700020F1E762
:102A5000A1480078002803DD022020700020E9E76B
:102A60009F480078002803DD0D2020700020E1E75A
:102A7000FFF7A4F980466E6846B1002068604046C2
:102A8000FFF7A0F9002020703046D3E79548006892
:102A900090F8260040F002009249096881F826006B
:102AA00000209049096881F827008E4800688784D3
:102AB0002846FFF7F8FD4046FFF784F9FFF7A5FC2D
:102AC000FFF77CF980468748006890F8270020B11E
:102AD00001280DD002280AD105E082480068066A64
:102AE000002020700DE000260E20207009E000BFBD
:102AF00029467C480068FFF786FD00260A202070E2
:102B000000BF00BF00207749096881F82600754999
:102B1000096881F8270073490968C8617149096823
:102B200008624046FFF74EF9304683E72DE9F04151
:102B300005460F4614464FF0000814B90020BDE8C2
:102B4000F0811DB9042020700020F8E728780128C2
:102B500003D0012020700020F1E7FFF72FF9804615
:102B6000A87A20B300267FB1012F0CD107E0022301
:102B70001A4600212846FFF75BFD701CC6B2A87AF2
:102B80000028F4D109E000BF02231A46002128469C
:102B9000FFF74EFD701CC6B200BF00BF4046FFF7F6
:102BA00011F9FFF732FC0E2020703046C7E740468F
:102BB000FFF708F90020207000BFC0E770B5044699
:102BC0000D4600260CB9042070BD0DB90320FBE7AB
:102BD0002078012801D00120F6E7FFF7EFF806463C
:102BE000A07A60B10023022229462046FFF720FD8B
:102BF0003046FFF7E7F8FFF708FC0020E4E76068DD
:102C000020B13046FFF7DEF81420DDE7656030467E
:102C1000FFF7D8F80020D7E72DE9F04104460D462C
:102C20001646002714B90420BDE8F0810DB9032031
:102C3000FAE72078012801D00120F5E7FFF7BEF878
:102C40000746A07AE8B116F0010F0AD005E000238C
:102C5000022229462046FFF7EBFCA07A0028F6D195
:102C600005E00023022229462046FFF7E1FC384612
:102C7000FFF7A8F816F0040F01D1FFF7C6FB0020FC
:102C8000D2E7606820B13846FFF79CF81420CBE704
:102C900065603846FFF796F80020C5E72DE9F04754
:102CA00004460D464FF0000914B90420BDE8F08732
:102CB0000DB90920FAE72078012801D00120F5E7B5
:102CC000FFF77CF88146A07A287204F10B0705F122
:102CD000040800260EE00000490000203800002013
:102CE0004A0000205800002017F8010B08F8010BDB
:102CF000701CC6B2042EF7DB606828604846FFF7F8
:102D000061F80020D2E7000070B5044600260CB937
:102D1000002070BD2078032801D00020F9E7FFF7DC
:102D20004DF806462589002D02DD2089401E2081B0
:102D30003046FFF747F82846EBE770B50546002612
:102D4000EF480078002801DD002070BDFFF736F85D
:102D50000646EC480468006820B1EA48006840680C
:102D6000E84908603046FFF72DF85CB10320207079
:102D70002581002060603F20E073002121742046FF
:102D8000FFF7C9FC2046E0E72DE9F04704468846F6
:102D900015464FF0000915B92046BDE8F0871CB96B
:102DA000042028702046F8E72078032803D001206B
:102DB00028702046F1E7D2480078002803DD0F2074
:102DC00028702046E9E7FEF7F9FF8146A07A08B1AE
:102DD000012700E00027B8F1000F03D0B8F1010F80
:102DE0003ED11BE09FB93F20E073002121740020F9
:102DF0002070C4480068606000202081C1480460E1
:102E00004846FEF7DFFF00202870002605E0484610
:102E1000FEF7D8FF49202870264628E005E0002369
:102E2000012219462046FFF703FCA07A0028F6D1BC
:102E30003F20E0730021217400202070B148006819
:102E4000606000202081AF4804604846FEF7BAFF6A
:102E5000012F01D1FFF7D9FA00202870002606E0E3
:102E60004846FEF7AFFF07202870264600BF00BF88
:102E7000304692E72DE9F04105460E4614460027FC
:102E80000CB9BDE8F08115B904202070F9E7287865
:102E9000032802D001202070F3E799480078002829
:102EA00002DD02202070ECE797480078002802DD60
:102EB0000D202070E5E7FEF781FF074628890028EE
:102EC00008DD2889401E28813846FEF77BFF002058
:102ED0002070D6E78D48006890F8260040F0010089
:102EE0008A49096881F8260000208849096881F824
:102EF00027008648006886842846FFF7D4FB3846BA
:102F0000FEF760FFFFF781FAFEF758FF07467F489C
:102F1000006890F8270020B1012809D0022806D1C6
:102F200002E0002020700BE00E20207008E000BFBF
:102F3000294676480068FFF766FB0A20207000BF2C
:102F400000BF00207149096881F826006F490968AF
:102F500081F827006D490968C8613846FEF732FFDD
:102F600000BF8EE72DE9F04105460F4614464FF0AD
:102F7000000814B90020BDE8F0811DB904202070BC
:102F80000020F8E72878032803D0012020700020D3
:102F9000F1E7FEF713FF8046A87A20B300267FB141
:102FA000012F0CD107E00223012200212846FFF760
:102FB0003FFB701CC6B2A87A0028F4D109E000BF1C
:102FC0000223012200212846FFF732FB701CC6B203
:102FD00000BF00BF4046FEF7F5FEFFF716FA0E20D1
:102FE00020703046C7E74046FEF7ECFE0020207018
:102FF00000BFC0E770B5044600250CB9042070BDC1
:103000002078032801D00120F9E7FEF7D7FE054616
:10301000A07A60B10023012219462046FFF708FB81
:103020002846FEF7CFFEFFF7F0F90020E7E72089FA
:103030004FF6FF71884207D22089401C2081284624
:10304000FEF7C0FE0020DAE72846FEF7BBFE32207E
:10305000D5E72DE9F04704460D464FF0000914B9B5
:103060000420BDE8F0870DB90920FAE7207803288D
:1030700001D00120F5E7FEF7A1FE8146A07AA871F4
:1030800004F10B07AE1C4FF0000807E017F8010B26
:1030900006F8010B08F1010000F0FF08B8F1040F79
:1030A000F4DB208928804846FEF78CFE0020D8E714
:1030B0002DE9F04104460E46154600270DB9BDE83E
:1030C000F08114B904202870F9E72078032802D091
:1030D00001202870F3E7FEF771FE074600202870F4
:1030E0002089002801DD268105E0A07A08B9268123
:1030F00001E0492028703846FEF764FE00BFDEE795
:1031000049000020380000204A000020580000201C
:103110002DE9FF5F81460F4600200090B9F11F0F97
:1031200006DBB9F1FF0F03D02A2004B0BDE8F09F01
:103130001F2F01DB2A20F8E7FEF740FE0090F94838
:1031400050F8270020B10098FEF73CFE2820ECE75D
:10315000B9F1FF0F03D1F448006890F82890F148C6
:1031600050F8294024B90098FEF72CFE2920DCE70E
:10317000012C04D10098FEF725FE4320D5E74FEA45
:10318000E70807F007000390012000FA08F000F0BC
:10319000FF0A01210398814001F0FF0B0020E14963
:1031A00041F82900084640F8274014F82A6FA07813
:1031B00002906078A4F12A040190DC48815D0198B6
:1031C00001421CD0D948805D01998843D749885570
:1031D0000846805D28B9D648007802998843D449CA
:1031E0000870D348007840EA0A00D1490870CF48F7
:1031F00010F8080040EA0B00CC4901F80800E56926
:10320000E5B105F10B00805D0199884305F10B01E3
:1032100088550846805D18B9A87A02998843A87233
:10322000A87A40EA0A00A87205F10B0010F808001D
:1032300040EA0B0005F10B0101F8080084F8287042
:1032400084F82A80039884F8290084F82CA084F854
:103250002BB00098FEF7B6FDB6480078012801D1E2
:10326000FFF7D3F8002060E72DE9FE4F06460F4632
:1032700090461C464FF000091F2C02DD2A20BDE8B5
:10328000FE8FFEF79BFD8146AB480078002804DDE9
:103290004846FEF797FD3C20F1E7A24850F824008D
:1032A00060BB01209F4941F824004846FEF78AFD93
:1032B0000023424639463046FEF7D8FD82460020BC
:1032C0000090019003460246514602902046FFF7C7
:1032D0003AFA054635B99748007801280CD1FFF72E
:1032E00094F809E0FEF76AFD814600208D4941F817
:1032F00024004846FEF766FD2846C0E74846FEF72C
:1033000061FD2820BBE712F0010F08D012F0020F78
:1033100005D002E0491E002308C00029FAD17047F9
:103320002DE9F04F85B081468A4693461C46DDE97B
:103330000F78129D002003901F2C03DD2A2005B07A
:10334000BDE8F08FFEF73AFD03907B480078002837
:1033500004DD0398FEF736FD3C20F0E7714850F895
:10336000240088BB01206F4941F824000398FEF730
:1033700029FD2A4641463846FFF7C5FF2B465A46E7
:1033800051464846FEF772FD04901198CDE9008041
:1033900002953A4620460E9B0499FFF7D4F906465B
:1033A00036B96448007801280CD1FFF72EF809E0FF
:1033B000FEF704FD039000205A4941F824000398C9
:1033C000FEF700FD3046BAE7FFE70398FEF7FAFC88
:1033D0002820B4E770B50546002657480078002835
:1033E00001DD402070BD1F2D01D13E20FAE71F2DC9
:1033F00003DBFF2D01D02A20F4E7FEF7DFFC0646B1
:10340000FF2D03D14848006890F82850454850F8EF
:10341000254024B93046FEF7D5FC4320E2E7012CD5
:1034200004D13046FEF7CEFC3D20DBE714F82A0F2E
:103430003E49085C6178884321783C4A505414F82E
:103440002A091146085C30B994F82C1038480078E5
:10345000884337490870E06918B12046E169FFF7F1
:10346000D2F80020A08484F8260084F8270033488E
:103470000078FF2804D231480078401C2F4908709A
:103480003046FEF79FFCFFF7BDF8FEF797FC0646B7
:103490002A480078002804DD28480078401E274983
:1034A00008702046FEF7DFFC25480078401E2449BE
:1034B000087000201B4941F82500A06930B90020A0
:1034C000616988611F496069086005E0D4E9050108
:1034D0004861D4E9051088611B48006860611A489A
:1034E00004603F2084F84400002145200155304607
:1034F000FEF768FC0F480078012801D1FEF785FF30
:1035000000206FE72DE9F041044600271F2C02D16F
:103510003E20BDE8F0811F2C18DBFF2C16D02A209E
:10352000F7E700004C0C0020580000204E0000205F
:103530004D00002052000020490000204A000020D9
:1035400053000020640000205C000020FF2C0BD101
:10355000FEF734FC0746F248006890F82D603846C4
:10356000FEF730FC3046D4E7FEF728FC0746ED486E
:1035700050F8245025B93846FEF724FC4320C8E70C
:10358000012D04D13846FEF71DFC3D20C1E73F2048
:1035900085F82D003846FEF715FC0020B9E72DE927
:1035A000F04705460F4614464FF0000814B90020B6
:1035B000BDE8F0871F2D05DDFF2D03D02A202070E8
:1035C0000020F5E71FB90C2020700020F0E7D64856
:1035D0000078002803DD112020700020E8E7FEF7C6
:1035E000EDFB8046FF2D03D1CD48006890F82850B0
:1035F000CC4850F8256036B94046FEF7E3FB43203F
:1036000020700020D4E7012E06D14046FEF7DAFBF9
:10361000432020700020CBE706F144013846FEF736
:1036200075FC81464046FEF7CDFB002020704846E1
:10363000BEE72DE9F04705460F4614464FF0000956
:103640000CB9BDE8F0871F2D04DDFF2D02D02A2024
:103650002070F6E717B90C202070F2E7B248007826
:10366000002802DD12202070EBE7FEF7A7FB814661
:10367000FF2D03D1AA48006890F82850A94850F8B7
:1036800025602EB94846FEF79DFB43202070D8E701
:10369000012E05D14846FEF795FB43202070D0E768
:1036A0003846FEF780FC8046B8F10F0F05DD48462E
:1036B000FEF788FB41202070C3E7394606F144003D
:1036C000FEF724FC4846FEF77DFB0020207000BF7B
:1036D000B7E770B5054600261F2D01DB2A2070BD17
:1036E000FEF76CFB06468F4850F8254024B930465B
:1036F000FEF768FB4620F2E7012C04D13046FEF7C6
:1037000061FB4320EBE794F8260010F0080F2FD060
:1037100014F8260F20F00800207014F8260910BBBA
:10372000A08CE0B904F12A04A0788049097840EA25
:1037300001007E49087020787D49085C617840EA84
:10374000010014F82A197A4A50543046FEF73AFB21
:1037500078480078012809D1FEF757FE06E0304688
:10376000FEF730FB02E03046FEF72CFB0020B6E708
:103770003046FEF727FB4420B1E72DE9F047064627
:103780000C464FF0000A1F2E04DDFF2E02D02A2027
:10379000BDE8F0870CB90920FAE7002020606060DE
:1037A000FEF70CFB8246FF2E03D15D48006890F8BF
:1037B00028605C4850F8265025B95046FEF702FBB9
:1037C0004320E5E7012D04D15046FEF7FBFA4320E4
:1037D000DEE7287C10F0010F04D15046FEF7F2FA24
:1037E0004520D5E70027D5F80C90D5F8088050463D
:1037F000FEF7E8FA00E07F1C58F8041B0029FAD015
:10380000B8002060A9EB0700800060600020BFE7DF
:103810002DE9F04105464FF000081F2D02D1472049
:10382000BDE8F0811F2D03DBFF2D01D02A20F7E733
:10383000FEF7C4FA8046FF2D05D13948006890F89C
:103840002850012608E03648006890F82800A84271
:1038500001D1012600E00026324850F8254024B965
:103860004046FEF7AFFA4820DAE7012C04D1404683
:10387000FEF7A8FA4320D3E794F82A702C48C05DDD
:1038800094F82B1088432A49C8550846C05D30B9C2
:1038900094F82C102548007888432449087094F83F
:1038A000260040F0080084F826004046FEF78AFA19
:1038B000012E01D1FEF7A9FD0020B1E72DE9F0416D
:1038C00004460E4600271F2C04DDFF2C02D02A20C0
:1038D000BDE8F0810EB90920FAE7FEF76FFA074656
:1038E000FF2C03D10E48006890F828400D4850F88E
:1038F000245025B93846FEF765FA2920E8E7012D5E
:1039000004D13846FEF75EFA4320E1E75422294607
:103910003046FEF70EFF3846FEF754FA0020D7E790
:10392000580000204C0C0020490000204D000020D1
:103930004E0000205200002070B505460026764853
:103940000078002800DD70BD002D23DDFEF736FA7B
:1039500006467248006890F82A407148005D6F4939
:10396000096891F82B1088436D4908550846005D99
:1039700040B96A48006890F82C106A48007888437B
:10398000684908706548006885843046FEF71AFA71
:10399000FEF73BFD00BFD6E72DE9F04780460D4618
:1039A00016461C465C480078002802DD5520BDE81C
:1039B000F087B8F1000F04D11DB916B90CB9542025
:1039C000F5E73B2D01DD5120F1E73B2E01DD5220D3
:1039D000EDE7B4F57A7F01DB5320E8E74FF47A7026
:1039E00060434FF47A71B0FBF1F14FF4616008FB72
:1039F00000F0C5EB051200EB8200304400EB400202
:103A0000C2EBC01001EBC0074FEA1749BFB23846FE
:103A1000FFF792FF0BE04FF40040FFF78DFF4FF4EC
:103A20000040FFF789FFA9F101001FFA80F9B9F101
:103A3000000FF0DC0020BAE770B5054600261F2D08
:103A400001DB2A2070BDFEF7B9F90646364850F86A
:103A5000254024B93046FEF7B5F94320F2E7012CA2
:103A600004D13046FEF7AEF94320EBE7A08C20B935
:103A70003046FEF7A7F95020E4E70020A08494F830
:103A8000260010F0370F09D014F8260F20F0370069
:103A9000207001206070A4F1260402E0002084F868
:103AA000270094F8260010F0080F18D104F12A041A
:103AB000A0781C49097840EA01001A49087020786A
:103AC0001749085C617840EA010014F82A19144A81
:103AD00050543046FEF776F9FEF797FC02E0304688
:103AE000FEF770F90020ADE770B50025FEF766F926
:103AF00005460E4804682846FEF764F9204670BD66
:103B000070B504460025FEF759F9054607480460DC
:103B10002846FEF757F970BD4900002058000020E4
:103B20004E0000204D0000204C0C00206C000020B6
:103B30001B48006870471A4A1268111800BF184ADB
:103B400012688A1A002AFADC70477047704700BF73
:103B5000704700BF704700BF704710B5114800683C
:103B6000FFF748FA10BD08B56A4600210D48006805
:103B7000FFF780F908BD0C48006890F828007047EE
:103B800010B50120FFF7D9F806490860074800681A
:103B9000064908600020FEF7A7FE0449086010BD32
:103BA00070000020740000205800002078000020E1
:103BB00010B50146C1F3C402C1F38523C1F3C44467
:103BC00004EB431000EBC22010BD4FF6FF707047AE
:103BD000B0F90020B1F900309A4201DA0A88028077
:103BE000B0F90220B1F902309A4201DA4A884280E3
:103BF000B0F90420B1F904309A4201DD8A8882804C
:103C0000B0F90620B1F906309A4201DDCA88C280B7
:103C1000704710B50346B1F90000B2F90040A04268
:103C200002DDB1F9000001E0B2F900001880B1F93D
:103C30000200B2F90240A04202DDB1F9020001E047
:103C4000B2F902005880B1F90400B2F90440A04270
:103C500002DDB2F9040001E0B1F904009880B1F985
:103C60000600B2F90640A04202DDB2F9060001E00A
:103C7000B1F90600D880B3F90400B3F90040A042BE
:103C800001DA002010BDB3F90600B3F90240A042EA
:103C900001DA0020F6E70120F4E770B503460D468F
:103CA00002E003F8015B521E12B113F0030FF8D1CA
:103CB0009108A9B102F0030205EB054606EB0624C4
:103CC000184604E010C010C010C010C0091F04291D
:103CD000F8DA01E010C0491E0029FBD1034600BFFD
:103CE00002E003F8015B521E002AFAD170BD70B5E4
:103CF00003460C46154613F0020F02D023F8024B80
:103D00006D1E6908A9B104EB04421846042909DBB9
:103D100000BF026042608260C26010300E1F3146F8
:103D2000042EF6DA01E004C0491E0029FBD1034647
:103D300000BF15F0010F00D01C8070BD70B50446A7
:103D400001F04AF8204600F0BCFC05463DB128468B
:103D500000F0C6FC064622460021FFF79EFF01F058
:103D600031F8284670BD00002DE9FC4704460CB927
:103D7000BDE8FC8701F030F800F030FD07464C4804
:103D8000B0F9228000F064FD06464948808C801B13
:103D900000B24749888477E047F6FF71204600F07B
:103DA000C1FD82465146204600F0DCFD05464048F4
:103DB00090F82C0000F00300012807D0022807D15A
:103DC000284605EBD0714FEA610904E0A94602E0FC
:103DD0004FF0000900BF00BF3548408CA0EB090040
:103DE00000B233494884ADF80000BDF80000284413
:103DF000401E00B2ADF804000846808CADF8020009
:103E0000BDF802003844401E00B2ADF806006A4614
:103E10005146204600F0C6FDBDF8020024498884C2
:103E20005146204600F05CFA044420780A2802D06B
:103E300020780D281ED11E4890F82C0000F00300B9
:103E4000012802D0022805D100BF0FFA88F01849D6
:103E5000488404E01648008C1549488400BF00BF20
:103E600020780A280CD11248808C384400B21049BE
:103E7000888405E0BDF80000284400B20C4948845D
:103E8000207800B903E0641C2078002884D100BFAA
:103E90000748808C304400B2054988840846B0F950
:103EA0002C0020F00300888500F08CFF00BF5FE746
:103EB000042A0020332005490870392088703020FA
:103EC000C870612008710846704700007C0000201F
:103ED000014608B2194A908400207047014608B292
:103EE000164A50840020704770B5044600F074FFF5
:103EF0002046FFF7EDFF054600F064FF284670BD41
:103F000070B5044600F068FF2046FFF7E7FF05465E
:103F100000F058FF284670BD70B506460C4600F00C
:103F20005BFF3046FFF7DAFF05462046FFF7D0FF7C
:103F3000054300F047FF284670BD0000042A00201A
:103F400010B570B371B36AB3B1F90030B2F9004083
:103F5000A34202DDB2F9003001E0B1F90030038084
:103F6000B1F90230B2F90240A34202DDB2F90230E7
:103F700001E0B1F902304380B1F90430B2F90440F4
:103F8000A34202DDB1F9043001E0B2F904308380CC
:103F9000B1F90630B2F90640A34204DDB1F90630AA
:103FA00003E00CE003E0B2F90630C38010BD09B1B4
:103FB0000B4600E013461C6804605B68436000BF6A
:103FC000F4E778B103880B441BB2038083880B4469
:103FD0001BB28380438813441BB24380C3881344BD
:103FE0001BB2C38070470000224908680021214AA3
:103FF000116070471F49096809B91E490860704778
:1040000000B500BFFFF7F0FF0028FBD100BD1A4A42
:10401000106051600122194B1A60704770B500247E
:1040200000F0DAFE1548006898B114480068401E98
:1040300012490860104805684168284603F022FFCD
:104040000D484068012802D12846FFF7D3FF01241C
:1040500000BF00F0B7FE204670BD70B504460D46A7
:104060002946204603F00EFF18B929462046FFF7DF
:10407000CEFF70BD9000002088000020840000204A
:1040800010B500F0A9FE1248047D00F09BFE20460A
:1040900010BD10B500F0A0FE0D48447D00F092FE6A
:1040A000204610BD70B5044600F096FE0848057D18
:1040B000047500F087FE284670BD70B5044600F018
:1040C0008BFE0348457D447500F07CFE284670BD9C
:1040D000042A00200246B2F90200B1F906309842E3
:1040E00013DCB1F90200B2F9063098420DDCB2F9E6
:1040F0000000B1F90430984207DCB1F90000B2F9D0
:104100000430984201DC012070470020FCE70000E9
:1041100010B5044660220649204604F048F810BD58
:1041200010B5044660222146014804F040F810BD55
:10413000042A002010B500F04FFE01F011F901F043
:1041400031F903F08CFD00F03DFE10BD10B50446C2
:1041500000F042FE204601F0C7F800F033FE10BD2B
:1041600010B5044600F038FE204601F0CCF800F00F
:1041700029FE10BD10B50020FFF7E8FF6FF07F406B
:10418000FFF7EEFF0120FFF78DFF002000F042F85F
:10419000002000F04FF8002000F012F8074800F06F
:1041A0001BF8002000F028F810BD10B500F014FE38
:1041B000FFF7E0FF00F006FE10BD0000709200085F
:1041C00070B5044600F008FE204600F095FE054656
:1041D00000F0F8FD284670BD70B5044605488569B5
:1041E00000F0FAFD0CB10348846100F0EBFD2846B5
:1041F00070BD0000042A002070B5044600F0ECFDFC
:104200000348857D847500F0DDFD284670BD000003
:10421000042A002070B5044600F0DEFD0448B0F921
:104220002C5020B20249888500F0CCFD284670BD94
:10423000042A002070B5044600F0CEFD0448B0F911
:104240002A5020B20249488500F0BCFD284670BDC6
:10425000042A002070B5044600F0BEFD3648C0694F
:10426000416820468847054600F0ACFD284670BDF1
:1042700070B5044600F0B0FD2F48C06901682046C3
:104280008847054600F09EFD284670BD70B504467F
:104290000D4600F0A1FD2848C0692946C2682046A5
:1042A0009047064600F08EFD304670BD10B50446BE
:1042B0002148C06981682046884710BD70B5044612
:1042C00025681D48C06901682846884706461A487F
:1042D000C06941682846884705442560304670BD5E
:1042E0002DE9F04105460E46002707E01248C06957
:1042F0004168284688470446254427443000A6F1F3
:104300000106F3D13846BDE8F0812DE9F0410646BB
:104310000F464FF00008002508E07019064AD269E0
:10432000516888470446254408F10108AF42F4DC8F
:104330004046BDE8F0810000042A002001460878CC
:104340007047014600BF01207047014600BF0120B1
:104350007047024611700120704710B500F03CFD17
:1043600002480349C86100F02DFD10BD0C8500080E
:10437000042A00200146C81C20F0030000B2704748
:10438000014601EB4100FE4A02EB4000B0F9020099
:10439000704770B500EB4001F94B03EB41014988D0
:1043A00001B970BD00EB4001F54B03EB4101B1F9E0
:1043B0000220F449C989114409B2F24BD981194646
:1043C0008989891A09B29981002100EB4003EC4CDC
:1043D00004EB4303598000EB4004E94D05EB440432
:1043E000217900EB400405EB4404637903EB4304BB
:1043F00005EB4404217129B101EB4105E04E06EBC8
:1044000045056B71DF494968491CDE4B5960194607
:104410000968491E196000BFC3E7012109E001EBEB
:104420004100D74A02EB4000408808B908B2704703
:10443000491C9E29F3DB0020F9E770B502460021F4
:1044400016E001EB4100CE4D35F9100001EB4105BE
:10445000CB4E06EB4505B5F90250284403EB430566
:1044600036F915502C1A944201DB08B270BD19467A
:1044700001EB4100C24C04EB40000379002BE0D17A
:1044800001EB410034F9100001EB4104BC4D05EB98
:104490004404B4F90240204441F28834201A904286
:1044A00001DB08B2E2E74FF0FF30DFE72DE9F0472C
:1044B00006464FF0FF39002449E004EB4400B049C0
:1044C00031F8100004EB4401AD4A02EB4101498888
:1044D000084405EB450132F81110081A0FFA80FA6A
:1044E000B24533DA04EB4400114631F8100004EB16
:1044F000440102EB41014988084405EB450132F8CB
:104500001110081A07B207B305EB4500114631F93F
:1045100010009D4900EB010805EB4501134603EB34
:104520004101B1F90220A8EB0700414603F0FDFD6F
:1045300005EB4500924931F81000C01B00B205EBB5
:1045400045018F4A22F8110000BF00BF2C4604EB42
:1045500044008B4901EB40000579002DADD104EBFF
:10456000440031F9100004EB4401854A02EB41019B
:10457000B1F90210084441F28831081AB04200DB58
:10458000A1460FFA89F0BDE8F0879D207D4948607B
:10459000886041F28830C8810882002008608881E4
:1045A000042077494880002008800871012077495D
:1045B0000870704700B57548007808B9FFF7E5FF47
:1045C00000BD2DE9F0410646FFF7F4FF3046FFF746
:1045D000D1FE06466B48B0F90E00B04202DA002068
:1045E000BDE8F081FFF719FF050000D1F8E730467C
:1045F000FFF723FF0446601C03D13046FFF756FF48
:104600000446601C00D1EBE704EB44025C4B33F83A
:10461000122004EB44035A4F07EB43035B881A4410
:1046200011B204EB44023B4603EB4202107905EB66
:10463000450203EB4202568005EB450223F81210B7
:1046400005EB450203EB42021071002804DD00EB8C
:10465000400307EB43035D7105EB4503484F07EB50
:1046600043035C7104EB440307EB43031D714548AE
:104670000068401C4349086008464068401E486086
:10468000084680684968884203DD3E4840683D49E5
:1046900088603C488089304400B23A4988810846A5
:1046A000C089801B00B2C8810846B0F91000B1F97A
:1046B0000E10884203DD3348C089324908822846FB
:1046C0008EE770B504460CB9002070BD00F084FB85
:1046D0002046FFF776FF054600F074FB2846F4E716
:1046E000014609B90020704701EB4100244A32F924
:1046F0001000254A1044F6E710B5FFF75BFF21488C
:10470000B0F90E0010BD2DE9F041002600F064FB69
:10471000FFF750FF002515E005EB4500184931F87B
:10472000100005EB4501164A02EB41014988084497
:1047300007EB470132F81110081A04B2B44200DD49
:1047400026463D4605EB45000D4901EB4000077943
:10475000002FE1D105EB450031F8100005EB4501D4
:10476000074A02EB41014988084441F28831081A9E
:1047700004B2B44200DD264600F024FB304607E0D8
:104780003C260020F0290020B412002098000020D0
:10479000BDE8F08110B504460CB9002010BD2046DC
:1047A000FFF7EEFDFAE710B5044604B910BD00F0BE
:1047B00013FB2046FFF7EDFD00F004FB00BFF5E71B
:1047C00010B5044600F008FBB4F90000FFF7EBFF5A
:1047D0000020208000F0F6FA10BD000010B500F0B7
:1047E000FBFA36488069407D34498969C97D00FB00
:1047F00001F400F0E7FA204610BD10B500F0ECFA25
:10480000FFF7ECFF2D49898C084400B22B498884BE
:104810000846008C488400F0D5FA10BD10B5044657
:104820000A2C02D1FFF7E9FF11E00D2C0FD000F0A8
:10483000D3FA2248806901682046884720480068EA
:1048400018B120461E490968884700F0BBFA10BD20
:1048500010B5002400F0C0FA184890F82C0000F0C1
:104860000C00042804D008280ED00C2813D104E032
:1048700012488069007D441E0DE010498969087D59
:1048800000EBD0714C1006E00C498969087D00EB03
:10489000D0714C1000BF00BF00F094FA204610BD4C
:1048A00070B5044600F098FA0448806941682046D3
:1048B0008847054600F086FA284670BD042A002085
:1048C000A8000020F7B50C4615466948006930B1CC
:1048D000674908692946FFF7FDFB00B9FEBD64483A
:1048E0008069006938B16248806900692146826840
:1048F0000098904714E00FE06846FFF7DFFC06469B
:104900005B4880690168304688475A48006818B19A
:104910003046584909688847601E041EECDA00BF1B
:1049200000BFDBE773B50D4600240098C0B15048C6
:104930008069006938B14E4880690069294642683B
:10494000009890477CBD08E06846FFF7B7FC064634
:104950000EB10A2E00D102E0641CAC42F4DB00BFB1
:104960002046EFE773B50C4600250098C0B14048DB
:104970008069006938B13E48806900692146026853
:10498000009890477CBD07E06846FFF797FC064615
:104990003046FFF785FF0544601E041EF4DA00BFB1
:1049A0002846EFE77CB505460E46144632480068B7
:1049B00078B1002002F0CFFE002858D000BF6A4630
:1049C00031462846FFF77EFF02F0A1FE0028F6D10F
:1049D0004DE02068009060680190BDF80000244917
:1049E000B1F84010084400B2ADF80000BDF8020074
:1049F0001F49B1F84410084400B2ADF80200BDF8F8
:104A000004001B49B1F84010084400B2ADF804009E
:104A1000BDF806001649B1F84410084400B2ADF8DC
:104A20000600684602F097FE80B100BFBDF80000A6
:104A30000F494884BDF8020088846A4631462846FA
:104A4000FFF740FF02F063FE0028EFD10848408CDA
:104A50000749B1F84010401A00B205494884084699
:104A6000808CB1F84410401A00B2014988847CBDA2
:104A7000042A0020A8000020AC0000202DE9F04FFF
:104A80008BB005467248B0F922000A907048B0F920
:104A900024A080698469B4F80C80A84509DCE08909
:104AA000A84206DBD4F80090A5EB08064FF0FF37CC
:104AB0001DE0A068D4F80490A8B1B0F80080A84523
:104AC0000DDC4188A9420ADB0288AA1A95B2416826
:104AD00001EB8501B1F90060B1F9027006E04FF019
:104AE000FF36374602E04FF0FF36374600BF701CF6
:104AF00077D057488069007DA17C48430990207C8D
:104B0000089053488069007D07905148B0F92AB059
:104B1000584600F0F1F9C0B206904D4A099806FBDC
:104B20000090A17C0123CDE90231CDE904021046B9
:104B30008069C07D11468969897DCDE900105146A3
:104B4000DDE907320A9800F07FFA781C1BD04BF0A1
:104B5000020000F0D1F93E4A099807FB0090A17CC1
:104B60000123CDE90231CDE9040210468069C07D00
:104B700011468969897DCDE900105146DDE907328A
:104B80000A9800F061FA32488069407D30498969AD
:104B9000097D884221DDBBF1020F1ED08BF004009D
:104BA00000F0AAF92A488069007DDFF8A4C0DCF88B
:104BB00018C09CF815C000FB0CA125488069407DF9
:104BC00000EB0A032248806990F816E0DDF820C067
:104BD0000A980CFB0E0200F0FFF9069800F08CF921
:104BE00000BF1B48B0F92200617C194A9269927D8E
:104BF00001FB020000B2164948840BB0BDE8F08FFB
:104C0000014613488069826900BF507C104B9B6944
:104C10009B7D5843704700BF02220A80704730B521
:104C20000446A26995898D4204DCD089884201DB63
:104C3000012030BD93683BB11888884204DC588855
:104C4000884201DB0120F4E700BF0020F1E700000B
:104C5000042A002010B5044641480068A064414879
:104C60002061201D00F072FB3F48A0653F48A06115
:104C70003C4820610120207503F0E4F8A087032060
:104C800084F85C006FF0704020636063002000F0E7
:104C90002BFB6FF07F4000F036FB3548E06110BD24
:104CA0002DE9FC4104460D4616461F4600F094F8D7
:104CB000042000F021F980462A48001F006C0444BB
:104CC0002848001F406C05442648001F006C06441D
:104CD0002448001F406C074420B2ADF8000030B2F9
:104CE000ADF8040028B2ADF8020038B2ADF8060005
:104CF000684602F030FD50B100BF3B4632462946BF
:104D0000204600F069F902F002FD0028F5D1404686
:104D100000F0F2F800F056F8BDE8FC8110B5002173
:104D20000846FFF7F9F840F6FF731A46594208465D
:104D3000FFF7B6FF10BD10B52E200E490870FEF724
:104D400004FF0848001FFFF785FF00F08CF800F013
:104D50009CFA044602F092FF00F08DF8204610BD48
:104D6000BC000020082A00201C8500087092000862
:104D70000C8500089C00002070B500241EE0FEF7A2
:104D8000FAFE054604EBC40000EB0410474951F855
:104D90002000A84201D1204670BD04EBC40000EB06
:104DA0000410424951F8200038B904EBC40000EB6C
:104DB000041041F820502046EEE7641C042CDEDB92
:104DC0000020E9E710B53A480068401E38490860FD
:104DD00001D1FEF7C2FE10BD10B53548006830B9EC
:104DE000FEF7C1FEFEF7C7FE324908600BE0FEF792
:104DF000C2FE30490968884205D0FEF7B4FEFEF7CE
:104E0000BAFE2C4908602A480068401C28490860FE
:104E1000012827D1FFF7B0FF0446274800688442E5
:104E20001FD025480068002819DB2349096801EBD9
:104E3000C10202EB01111D4A02EB8101081D602233
:104E40001E4903F0B4F904EBC40000EB0410174A48
:104E500002EB8000011D6022184803F0A8F91648F3
:104E6000046000BF10BD10B54FF0FF30124908605C
:104E7000FEF786FE10BD10B5002414E004EBC4015B
:104E800001EB0411094A02EB8101081D60220B4964
:104E900003F08DF9002004EBC40101EB0411034A77
:104EA00042F82100641C042CE8DB10BD642A0020B9
:104EB000B4000020B8000020B0000020042A002028
:104EC0000146FE48007B10F0040F01D0481E7047D9
:104ED0000846FCE710B504460120FFF7F1FFF7494B
:104EE00021F8104010BD10B504460020FFF7E8FF80
:104EF000F24921F8104010BD10B50146EF4A107B71
:104F0000127B4A4012F0040F07D0EC4B1A885B88E2
:104F1000EA4C238023465A8000BFE84B197310BD2A
:104F200070B504460D46E548B0F90600A84200DD1C
:104F300070BDE248B0F90A00A84200DAF8E7DF489D
:104F4000B0F90400A04200DDF2E7DC48B0F9080047
:104F5000A04200DAECE7D948007B10F0010F06D040
:104F6000D648806C2946826A2046904706E0D3489E
:104F70004288806C2946436A2046984700BFD7E79D
:104F800070B504460D461646CC48B0F90600A84256
:104F900000DD70BDC948B0F90A00A84200DAF8E7A0
:104FA000C648B0F90400A04202DDC448B0F904408C
:104FB000C248B0F90800B04202DAC048B0F908604F
:104FC000A64200DAE5E7BD48806C3246294603690F
:104FD0002046984700BFDCE72DE9F04104460D4626
:104FE00016461F46B548B0F90400A04202DDB3489A
:104FF000B0F90440B148B0F90800B04202DAAF4855
:10500000B0F90860A64201DABDE8F081AB48B0F91A
:105010000600A84202DDA948B0F90650A748B0F939
:105020000A00B84202DAA548B0F90A70AF4200DAC5
:10503000EAE7A248806C3B4632462946D0F818C0C1
:105040002046E04700BFDFE72DE9FF4F8BB0054664
:1050500090461F46DDF860A0DDF868901C9E002099
:105060000A909748006898B11B991D98CDE9029164
:10507000CDE904601998CDE900A0914800683B464D
:105080004246046828460C99A0470FB0BDE8F08F4F
:105090000C983844401E089005EB0800401E09900B
:1050A00019984AEA000001287BD18448B0F906101B
:1050B0000C980C1A002C0ADD3F1B002F00DCE4E7E3
:1050C0007E48B0F906000C901B9804FB00667B48F4
:1050D000B0F90A100898441A002C03DD3F1B002F7A
:1050E00000DCD2E77548B0F908100998441A002C82
:1050F00001DDA8EB040800247048B0F90400A842C0
:1051000039DD6E48B0F90400441BA8EB0408B9F17E
:10511000040F1ED006DCB9F1010F0AD0B9F1020F5D
:1051200028D10EE0B9F1080F1BD0B9F1100F21D131
:105130001BE006EBE406E01005EBC00504F00704F5
:1051400018E006EBA406A01005EB800504F00304AC
:1051500010E006EB6406601005EB400504F0010466
:1051600008E026442544002404E006EB44062544D8
:10517000002400BF00BFB8F1000F00DC85E71B99D9
:105180001D98CDE90091CDE9026404904B48806CF4
:105190003B464246D0F80CC028460C99E0476AE0EE
:1051A000FFE7C9F1080005900C9C002006905EE026
:1051B00019982044401E04904048B0F90610049805
:1051C00081424DDC3D48B0F90A00A04248DB002096
:1051D00003900196079502903EE0039838B9019834
:1051E00000780A900198401C0190082003900599CE
:1051F0000A9840FA01FB0A9800FA09F0C0B20A9036
:105200000398A0EB09000390BBF1000F04D12B48D9
:10521000007B10F0020F19D12848408800901D989B
:1052200028B11D9830F81B002449488002E023482B
:10523000A0F802B007985044421E2146049B0798EC
:10524000FFF7CAFE1D490098488000BF0298401C25
:10525000029007985044079002984045BDDB00BF7C
:105260000698401C0690199804441B98064406981A
:10527000B8429DDB00BF00BF07E710B50F48806C48
:10528000016A0E48001D884710BD10B50024FFF7C5
:10529000F4FF00F023FC044300F0BDF80420FFF706
:1052A0002BFE40F6FF731A4600210846FFF794FED6
:1052B0000020FFF721FE00F00FFC03E0042A00208D
:1052C000AC000020204610BD10B504461548806C87
:1052D00001682046884710BD10B504461148806C0F
:1052E00041682046884710BD70B504460D48406BA4
:1052F000A04207D00B4844632046FFF7E5FF054670
:10530000FFF7F1FD70BD70B504460648006BA04282
:1053100007D0044804632046FFF7D6FF0546FFF791
:10532000D9FD70BD042A002070B504462046FEF762
:105330003FFC0546284670BD10B50446204600F0E7
:1053400083F810BD10B5FEF740FC10BD00210180B0
:105350004180EF21818040F23F11C1807047000001
:1053600010B506480068064988640020A1F84C0082
:10537000081D0861FFF781FF10BD0000BC00002080
:10538000042A00201CB504460548806C016A684662
:1053900088476A4621460248001DFEF73AFC1CBDBC
:1053A000042A002010B50749086BFFF78DFF04465B
:1053B000FFF790FD0349486BFFF786FF0446FFF7B0
:1053C00092FD10BD042A00202DE9F041044614B9D5
:1053D0000020BDE8F081A06808B90020F9E7206846
:1053E000B0F5807F01DD0020F3E72668A76800257F
:1053F00007E057F82500FFF767FF074921F8150078
:105400006D1CB542F5DB0448E3E710B504462046C1
:10541000FFF7DAFF10BD7047F42B0020F020704733
:105420004FF4A0707047F02070474FF4A0707047A1
:10543000102070474FF480307047012070470120E2
:10544000704740F23520704730B5014601F01F0328
:10545000C1F34512C1F3C424C4EB04201F25B0FBE3
:10546000F5F4C2EB02203F25B0FBF5F2C3EB0320BD
:105470001F25B0FBF5F304EB022000EB034030BD29
:1054800070B504460D461646B2B2A9B2A0B2FBF7FB
:1054900064F970BD70B504460D46A9B2A0B2FBF721
:1054A00082F90646304670BD2DE9F84F064689461A
:1054B00015461C46DDE90A78B8F800000090B8F8F7
:1054C00002A02644FD48007B10F0030004D0012810
:1054D00031D002284ED118E000BF29788023234123
:1054E000194201D0514600E000990A463046761C28
:1054F0004946FFF7C5FF601C0446082801D1002477
:105500006D1C781E0700E8D134E000BF28788021A8
:105510002141084204D0524649463046FFF7B0FFC9
:10552000761C601C0446082801D100246D1C781EDE
:105530000700EBD11EE000BF2878802121410842FE
:105540000DD049463046FFF7A5FF83464FF6FF7062
:10555000A0EB0B0249463046FFF792FF00BF761CD6
:10556000601C0446082801D100246D1C781E070029
:10557000E2D100BF00BFBDE8F88F2DE9FF4F83B037
:10558000054616469A46DDE9107896F8009054468E
:105590005544CA48007B10F0030002D0022848D1CD
:1055A00048E0B8F1000F24D000BFC4F103004FEA77
:1055B000400BCBF10601C020084100EA090040FA87
:1055C0000BF00290029838F81000019028466D1CEC
:1055D000019A0499FFF754FF601C0446042804D183
:1055E0000024701C064690F80090781E0700DCD15D
:1055F0001FE000BFC4F103004FEA400BCBF10601EE
:10560000C020084100EA090040FA0BF00290284649
:105610006D1C029A0499FFF733FF601C04460428AE
:1056200004D10024701C064690F80090781E0700F4
:10563000E0D14FE0B8F1000F27D000BFC4F1030064
:105640004FEA400BCBF10601C020084100EA0900F7
:1056500040FA0BF00290029848B1029838F8100016
:1056600001902846019A0499FFF70AFF00BF6D1CBC
:10567000601C0446042804D10024701C064690F8DF
:105680000090781E0700D9D123E000BFC4F10300C9
:10569000400002900298C0F10601C020084100EAD3
:1056A0000900029940FA01FBBBF1000F04D05A46F1
:1056B00028460499FFF7E4FE6D1C601C044604288C
:1056C00004D10024701C064690F80090781E070054
:1056D000DCD100BF00BF07B0BDE8F08F2DE9FF4F60
:1056E00083B0054616469A46DDE9107896F8009094
:1056F000544655447148007B10F0030002D0022844
:1057000048D148E0B8F1000F24D000BFC4F1010037
:105710004FEA800BCBF10401F020084100EA0900B8
:1057200040FA0BF00290029838F8100001902846D9
:105730006D1C019A0499FFF7A3FE601C0446022821
:1057400004D10024701C064690F80090781E0700D3
:10575000DCD11FE000BFC4F101004FEA800BCBF1A8
:105760000401F020084100EA090040FA0BF0029021
:1057700028466D1C029A0499FFF782FE601C0446BD
:10578000022804D10024701C064690F80090781E70
:105790000700E0D14FE0B8F1000F27D000BFC4F1FF
:1057A00001004FEA800BCBF10401F020084100EA30
:1057B000090040FA0BF00290029848B1029838F8BC
:1057C000100001902846019A0499FFF759FE00BF86
:1057D0006D1C601C0446022804D10024701C06467F
:1057E00090F80090781E0700D9D123E000BFC4F1E3
:1057F0000100800002900298C0F10401F0200841ED
:1058000000EA0900029940FA01FBBBF1000F04D045
:105810005A4628460499FFF733FE6D1C601C044667
:10582000022804D10024701C064690F80090781ECF
:105830000700DCD100BF00BF07B0BDE8F08F2DE945
:10584000F0470746894614461D46DDF820801B4870
:10585000007B10F0030002D002283FD11CE0B8F119
:10586000000F0DD009E0267838F816204946384652
:10587000FFF706FE6D1E7F1C641C002DF3DC0AE0A2
:1058800007E0227849463846FFF7FAFD6D1E7F1C77
:10589000641C002DF5DC21E0B8F1000F10D00AE007
:1058A00026782EB138F8162049463846FFF7E8FD2D
:1058B0006D1E7F1C641C002DF2DC0EE0042A00200B
:1058C00009E0267826B1324649463846FFF7D8FD2A
:1058D0006D1E7F1C641C002DF3DC00BF00BFBDE803
:1058E000F0872DE9F0470746894614461D46DDF846
:1058F00020807E48007B10F0020F1CD1B8F1000F11
:105900000DD009E0268838F8162049463846FFF7BA
:10591000B7FD6D1E7F1CA41C002DF3DC2AE007E000
:10592000228849463846FFF7ABFD6D1E7F1CA41C3C
:10593000002DF5DC1EE0B8F1000F0ED00AE026883D
:105940002EB138F8162049463846FFF799FD6D1EEE
:105950007F1CA41C002DF2DC0CE009E0268826B197
:10596000324649463846FFF78BFD6D1E7F1CA41C4E
:10597000002DF3DCBDE8F08770B504460D462946DE
:105980002046FFF787FD86B2C6F58030421E2946C5
:105990002046FFF775FD70BD70B504460E461546EE
:1059A0005248007B10F0010F08D004E03146204639
:1059B000FFF7E2FF641CAC42F8DD09E006E04B486B
:1059C000428831462046FFF75BFD641CAC42F6DDA1
:1059D00070BD70B506460C4615464448007B10F075
:1059E000010F08D004E021463046FFF7C5FF641CD4
:1059F000AC42F8DD09E006E03C48428821463046EA
:105A0000FFF73EFD641CAC42F6DD70BD2DE9F041B0
:105A100006460C4617461D4605E03A4621463046E6
:105A2000FFF7BAFF641CAC42F7DDBDE8F0812DE959
:105A3000FC5F82460D4616469846DDF830B0DDF82C
:105A40003890109F002440E0BBF1040F20D006DC0A
:105A5000BBF1010F0AD0BBF1020F32D10FE0BBF155
:105A6000080F1ED0BBF1100F2BD122E06119CDE938
:105A700000674A4650460F9BFFF716FD21E061196B
:105A8000CDE900674A4650460F9BFFF776FD18E0C8
:105A90006119CDE900674A4650460F9BFFF71EFE8D
:105AA0000FE0611933464A4650460097FFF7C7FE9C
:105AB00007E0611933464A4650460097FFF711FF49
:105AC00000BF00BF0D988144641C4445BCDBBDE8A9
:105AD000FC9F00BF00BF70477047704710B5FAF7D2
:105AE000C0FC002010BD00BF00BF7047042A00208A
:105AF00070B50546FE49B1F94C00FEF7F1FD0446CC
:105B000020882880608868802088A1880844401EFA
:105B100000B2A8806088E1880844401E00B2E88096
:105B200070BD70B50446F249B1F94C00FEF7D8FDDE
:105B300005462046E969884770BD70B50446EC49C2
:105B4000B1F94C00FEF7CCFD05462046296A88478E
:105B500070BD10B5E649B1F94C00FEF7C1FD044631
:105B6000606A804710BD70B50546FFF735F9A5B1ED
:105B7000DF48B0F94C00A84201D1FEF7DBFA284615
:105B8000FEF7AEFD0446208B18B1B4F9180000F002
:105B900047FF2846FEF707FE00BFFFF713F970BD69
:105BA0002DE9FF4F83B090461D46DDF840904FF041
:105BB000000A1198C06B0290029908FB01F0C01D09
:105BC0004FEAD00BFEF79FFD064619F0010F06D1F4
:105BD0003046F11706EB9171891001EB4106002D5B
:105BE0000BDCA6F12C01B1FBFBF06942884201DD20
:105BF000694200E001460D4600BF19F0010F08D1CF
:105C000000202B4642460090DDE9030101F015F823
:105C10008246002D05DCFFF7D5F8002007B0BDE86F
:105C2000F08F05FB0BF000F12C0619F0010F04D0EA
:105C300030B2FEF746FD074603E030B2FEF77EF8CD
:105C4000074617B33846FEF74BFD0446039800B2EB
:105C50002080049800B260800FFA88F0A08028B2FB
:105C6000E080FFF7E7FBA060C4F80CB0A4F818A030
:105C70001298E06113982062149860621198A062F3
:105C8000029820610020606105E0BAF1000F02D0A7
:105C90005046FEF788FD3846C0E72DE9FF4F85B036
:105CA00081468A46FFF798F89248D0F800B09048AD
:105CB000B0F84C0048B98E48806C04688C48806C01
:105CC00045688B48806C866809E08949B1F94C00C9
:105CD000FEF706FD0746FC693D6A7E6A00BFDBF8F9
:105CE000380001A971C11298009051464846DDE97B
:105CF0000723FFF755FF8046FFF764F8404609B0D9
:105D0000BDE8F08FF8B504460D4616461F46002044
:105D10003B463246294600902046FFF7BEFFF8BDBD
:105D200070B50446FFF758F87148B0F94C5014B9F3
:105D3000FEF700FA19E02046FEF7D2FC064601F015
:105D400092FF6B48B0F84C0030B969484E30684952
:105D50004A680260896841606548A0F84C4064491F
:105D6000B06A8864FFF789FA00BFFFF72BF828466E
:105D700070BD2DE9F74F8CB092460C98FEF7B0FC41
:105D80000546B5F918000B90B5F906000A90EF68C2
:105D9000D5F810B04FEADB00099005F12C080B98FC
:105DA00000285FD00B98FEF79BFC0646002455E0C8
:105DB00000200890B068224608A9436930469847F9
:105DC0008146B5F90400484523D1079400E0641CDE
:105DD000B068621C08A94369304698474845F6D028
:105DE0000020CDE902B7CDE90480012000900190A8
:105DF0000798201A431CB5F9042007980AEB000104
:105E00000D98FFF721F90798201A401C00FB07881E
:105E100023E01EE00021DDE9082002FB0080CDE93F
:105E200002B7CDE90401012000900AEB04010190C2
:105E3000089B0D9AD01801234A46FFF705F90898E8
:105E400048440890B068224608A9436930469847FC
:105E50008146B9F1000FDDD1B844641C0A98844230
:105E6000A6DB0EE00020CDE902B7CDE904800120D9
:105E700000900190B5F9042051460A9B0D98FFF758
:105E8000E3F80FB0BDE8F08F2DE9FC4106460D4662
:105E90001746002E3FD0FEF79FFF1548B0F94C8003
:105EA0003046FEF71DFC0446FEF744F940F6FF704D
:105EB000401903D1B4F90050B4F9027028B2ADF81A
:105EC0000000A1880844401E00B2ADF8040038B2BA
:105ED000ADF80200E1880844401E00B2ADF80600AB
:105EE00001F0BDFE684601F036FC70B100BF03E072
:105EF000042A0020BC0000203A4629463046FFF71D
:105F000038FF01F004FC0028F1D14046FFF708FFFC
:105F1000FEF758FF00BFBDE8FC8110B50446034AF8
:105F200011462046FFF7B0FF10BD000001F0FFFF53
:105F30002DE9F04705460F4691461C46DDE90886E7
:105F4000FC48007B10F0030002D002281CD106E0C0
:105F50004FEA48022146304602F0A2F814E000BFA2
:105F6000208840B1208830802DB1A8684A46394643
:105F70000368284698477F1CB61CA41CA8F10100A2
:105F80005FEA0008ECD100BF00BFBDE8F0872DE953
:105F9000F04105460E46E749B1F94C00FEF7A0FB7B
:105FA000044604F12C076088301A80B2A18989B2B6
:105FB00000FB017707EB4500B4F90010A0EB4100AE
:105FC000BDE8F0812DE9FF4F81B081468A469846B1
:105FD000129E0F9D0E98C0F1080498F80000D64953
:105FE000085C0E9940FA01F7D248007B10F00300DC
:105FF00004D0012862D0022879D11CE000BFAC4255
:1060000000D92C462D1B00BF07F00101109830F875
:10601000110026F8020B7F08601E0400F4D115B9A8
:1060200005B0BDE8F08F082408F101008046007833
:10603000C1490F5CE3E71098B0F802B000BFAC4272
:1060400000D92C462D1BB9F1000F1BD000BF1FB982
:1060500006EB4406A24414E017F0010F08D0D9F86B
:106060000800036851464846039A9847A6F800B0CE
:106070000AF1010AB61C601E040000D101E07F088D
:10608000E5E711E000BF17B906EB44060BE017F097
:10609000010F01D0A6F800B0B61C601E040000D1AC
:1060A00001E07F08EFE700BF05B9B9E7082408F170
:1060B000010080460078A0490F5CC0E71199486A4A
:1060C000804780B2009000BFAC4200D92C462D1B07
:1060D00000BF17F0010F03D030880099484030808E
:1060E000B61C7F08601E0400F3D10DB998E707E0E5
:1060F000082408F10100804600788F490F5CE3E72F
:1061000000BF00BF8CE72DE9FF5F81468A469846B5
:10611000DDE910B60F9C0E98C0F10400C5B298F8E6
:1061200000000E9949008840C7B28248007B10F0F9
:10613000030004D0012843D002285DD118E000BF3D
:10614000A54200DDE5B2641B00BFB8113BF81000AA
:1061500026F8020BB806070E681EC0B20500F4D17F
:106160002CB1042508F1010080460778E8E743E0F8
:1061700000BFA54200DDE5B2641B00BF17F0C00FF1
:106180000DD0B8113BF810003080B9F1000F06D0E7
:10619000D9F80800036851464846029A9847B61C49
:1061A0000AF1010AB806070E681EC0B20500E5D163
:1061B0002CB1042508F1010080460778D9E71BE0DF
:1061C00000BFA54200DDE5B2641B00BF17F0C00FA1
:1061D00003D0308880F0FF003080B61CB806070E70
:1061E000681EC0B20500F1D12CB1042508F10100F0
:1061F00080460778E5E700BF00BFBDE8FF9F2DE9B7
:10620000FF4F81B007468A469946DDE90EB6DDE9C3
:106210001084CBF10200C0B2009099F800004FEA60
:106220008B018840C5B24348007B10F0030004D0C6
:1062300001287DD002282AD12AE0BBF1000F09D025
:10624000281138F810002080A41C761E09F10100E6
:1062500081460578022E15DB701006F0010600BF9E
:10626000291138F81110218005F00F0138F81110AC
:106270006180241D09F1010189460D78411E080045
:10628000EED100BF1EB1281138F81000208077E051
:10629000BBF1000F15D015F0F00F0AD0281138F817
:1062A000100020802FB1B868036851463846039A21
:1062B0009847A41C0AF1010A761E09F101008146E3
:1062C000057824E015F0F00F0AD0281138F81000F6
:1062D00020802FB1B868036851463846039A984722
:1062E00005F00F0005000AD038F81500608037B1BE
:1062F000B86803680AF101013846039A9847241DDB
:106300000AF1020AB61E09F1010081460578022E43
:10631000D8DA66B12811050009D038F815002080B8
:106320002FB1B868036851463846039A984727E06A
:1063300004E00000042A00206485000800BF0098E3
:10634000B04201DDF0B200900098361A00BF15F09F
:10635000C00F03D0208880F0FF002080A41C2807F5
:10636000050E0098401E10F0FF000090EFD136B1EE
:106370000220009009F1010081460578DFE700BFA7
:1063800000BF05B0BDE8F08F2DE9F04706460F4687
:1063900092461C46DDE908890A9DFE48007B10F004
:1063A000030002D0022824D10CE000BF207839F885
:1063B00010002880AD1C641CA8F101005FEA0008F1
:1063C000F4D116E000BF207850B1207839F81000E1
:1063D00028802EB1B0685246394603683046984747
:1063E0007F1CAD1C641CA8F101005FEA0008EAD123
:1063F00000BF00BFBDE8F0872DE9F04705460F4616
:1064000091461C46DDE90886E248007B10F0030057
:1064100002D002281BD105E042462146304601F059
:106420003FFE14E000BF207840B1207830802DB1CD
:10643000A8684A4639460368284698477F1CB61C18
:10644000641CA8F101005FEA0008ECD100BF00BFA6
:10645000BDE8F0872DE9FF4F89B00E4617469946F3
:10646000DDE918ABDDF86880CA49B1F94C00FEF7E8
:1064700037F908900898008B28B10899B1F91800ED
:10648000FEF72EF900E0002007900898C0680690FB
:10649000099858440990079860B1BE48007B10F0F5
:1064A000020F07D13B463246CDF800900999079874
:1064B00000F0C9FA31460998FFF769FD05461698BC
:1064C000102813D100240CE0A2195346CDE9007521
:1064D00009990798FFF72CFD179882440698054400
:1064E000641C4C45F0DB0DB0BDE8F08F1698082811
:1064F0001ED1002419E0B8F1000F09D0A2195346AB
:10650000CDE90078029509990798FFF73DFF07E06C
:10651000A2195346CDE9007509990798FFF76CFF5A
:106520001798824406980544641C4C45E3DBDAE77F
:10653000B8F1000F01D1DFF86082002430E0169836
:10654000012804D002280FD0042823D117E008988E
:10655000A2195346CDE900B7CDE902800495099907
:106560000798FFF72FFD15E0A2195346CDE900B7B4
:10657000CDE9028509990798FFF7C5FD0AE0A21940
:106580005346CDE900B7CDE9028509990798FFF791
:1065900036FE00BF00BF1798824406980544641C6D
:1065A0004C45CCDB00BF9EE72DE9FE4F06460C466E
:1065B00093461F467749B1F94C00FEF791F805461E
:1065C00021463046FFF7E3FC8146E8680290ABEBDA
:1065D000060000F10108288B68B1B5F91800FEF734
:1065E0007FF88246381B401C4346224631460090C5
:1065F000504600F028FA22E06648007B10F0010FB8
:1066000014D0CDF80480CA46686A804780B20090F2
:1066100000BFBAF8000000994840AAF800000AF14B
:10662000020A0198401E0190F3D105E059484188C3
:1066300042464846FDF75BFB02988144641CBC421D
:10664000DADDBDE8FE8F70B505460C4616462346DA
:10665000324621462846FFF7A7FF70BD2DE9F84FC7
:1066600083460D4616464B49B1F94C00FEF738F803
:106670000746B7F91880B8F1000F03D04046FEF77F
:106680002FF800E00020814629465846FFF77FFC9E
:106690000446D7F80CA03F48007B10F0010F19D03A
:1066A000786A804780B2009000BFB8F1000F06D032
:1066B000D9F808002A465946036848469847208872
:1066C000009948402080F8680444681C0546B042A0
:1066D000EBDD1EE0B8F1000F10D000BFD9F80800C4
:1066E0002A4659460368484698472A4840882080E9
:1066F0005444681C0546B042F0DD0AE0711B481C9A
:1067000000BF2449498821805444411E0800F8D123
:1067100000BFBDE8F88F2DE9F05F04460D46164630
:106720001C49B1F94C00FDF7DBFF8046B8F9187041
:1067300029462046FFF72BFC8146A9F800606FB17F
:106740003846FDF7CDFF83463846FDF7C9FF806820
:106750002A462146D0F800A05846D047BDE8F09F11
:106760002DE9F05F04460D460A49B1F94C00FDF7EA
:10677000B7FF0646B6F9187029462046FFF707FC12
:106780008046706A80471FFA80F9B8F8000080EAF6
:10679000090003E0042A002058930008A8F800002C
:1067A0006FB13846FDF79CFF83463846FDF798FFEA
:1067B00080682A462146D0F800A05846D047BDE858
:1067C000F09F70B504460D4629462046FFF7DFFBD3
:1067D0000646308870BD02468A4201DC104670478A
:1067E0000846FCE72DE9FF4F85B004468B461F465F
:1067F0006CB3B4F90000002801DA002001E0B4F91C
:1068000000008046B4F90200002801DA002001E00F
:10681000B4F902008146FEF701FE461EB4F90400F9
:106820003146FFF7D8FF0490FEF7FAFD461EB4F993
:1068300006003146FFF7CFFF03900498A0EB080055
:1068400000F1010A0398A0EB0900451C08E04FF095
:106850000008C146FEF7E2FD8246FEF7E1FD05466F
:1068600007B96F42BAF1000F01DD002D03DC0020F3
:1068700009B0BDE8F08F12983B4652464946009059
:106880004046FFF70AFA0290029818B90798D847CD
:106890000120EDE7029800F04DF807460298FFF757
:1068A0003FFA002618E0A81B01900198B84203DACD
:1068B000DDE9011000F054F846B109EB060241464B
:1068C000029800F069F8029800F010F80798D8478D
:1068D0000298FFF722FB3E44AE42E4DB0298FFF74A
:1068E00042F90020FFF71CFA0020C1E72DE9F04132
:1068F000044634B90E48B0F94C00040001D1BDE89B
:10690000F081FEF769FA2046FDF7EAFE0746B7F97F
:10691000185045B12846FDF7E3FE0646B068816889
:106920003046884700BFFEF74DFA00BFE7E700009A
:10693000042A002070B504460026FEF74DFA14B96B
:106940000648B0F94C402CB12046FDF7C9FE05467B
:10695000B5F90660FEF736FA304670BD042A00200D
:1069600070B504460D4614B90A48B0F94C4004B954
:1069700070BDFEF731FA2046FDF7B2FE0646B6F9C5
:106980000600A84201DD28B2F080FEF71BFA00BF26
:10699000EEE70000042A00202DE9F04180460E4673
:1069A0001746B8F1000F07D11548B0F94C005FEA5F
:1069B000000801D1BDE8F081FEF70EFA4046FDF770
:1069C0008FFE044638B2608030B22080FEF755FC5E
:1069D000208B88B1B4F91800FDF782FE0546B4F9A2
:1069E0000400A88038B1B4F90600E88018B130B2CC
:1069F000288038B2688000BFFEF7E4F900BFD9E70D
:106A0000042A002070B50446FEF7E6F91A49B1F9E8
:106A10004C00FDF765FE05462C83FEF7D3F970BDEB
:106A200070B50546FEF7D8F92846FDF759FE04462D
:106A3000A089401E00B2A08110B92846FDF7B3FE20
:106A4000FEF7C0F970BD2DE9F04104460E4615462B
:106A50001F46DDF8188000BF2A466D1CA0683B4623
:106A60003146D0F804C02046E047A8F101005FEAB3
:106A70000008F1D1BDE8F081042A0020F0B51446E9
:106A80000346B3F90050491B03F11402B3F9025055
:106A9000651B1E6905FB062202EBE102157801F079
:106AA000070780263E4135431570F0BD2DE9FF4FA5
:106AB00081B005460E4691462F46B7F90000361ABA
:106AC00007F11404B7F90200A9EB0000396900FBD3
:106AD000014404EBE60404983044401E0090009802
:106AE000C010A0EBE60806F00701FF2040FA01FA0B
:106AF000009800F00700C0F10701FF20884000F077
:106B0000FF0BB8F1000F05D120780AEA0B0108430A
:106B1000207013E0207840EA0A0004F8010BA8F185
:106B20000100B0F1000805DDFF224146204601F0DA
:106B300070FB4444207840EA0B00207005B0BDE8AB
:106B4000F08F70B504462546B5F906002A6900FBAA
:106B500002F105F1140001F086FB70BD2DE9F0474C
:106B600005460F46944639682E46B6F9049006F15C
:106B70001402B6F90600604502DC0020BDE8F0878B
:106B800030690CFB002202EBE102494501DB0020E9
:106B9000F4E7A9F10100C010A0EBE10812F8010B25
:106BA00001F0070A00FA0AF0C3B20CE0B8F1000FD6
:106BB00001D10020E2E712F8013BA8F1010801F140
:106BC000080020F00701002BF0D002E05806030E69
:106BD000491C13F0800FF9D0FF2B08D00C4602E0BF
:106BE0005806030E641C13F0400FF9D100E0CC1DD1
:106BF00004F00700072816D10FE012F801AB534646
:106C0000BAF1FF0F01D1083407E002E05806030E85
:106C1000641C13F0800FF9D104E0A8F10100B0F179
:106C20000008EADA00BF3960601A401CA6E710B518
:106C300004462046FDF7B7FD10BD2DE9F84F074685
:106C4000884615461E46DDF828B000BF05F10F0046
:106C500000114FEA400906FB09F01430009000983B
:106C600000B2FDF76BF88246BAF1000F02D10020A6
:106C7000BDE8F88FFEF7B0F85046FDF731FD044649
:106C800038B220800FFA88F0608028B2A08030B23D
:106C9000E0800548A0600120A081C4F81090FEF7B4
:106CA00091F85046E4E70000B89300080146F74A1F
:106CB000106806E0B0F904208A4201D100228280E7
:106CC00000680028F6D170470146F148B0F900008D
:106CD000884201D1002070474FF0FF30FBE70146AA
:106CE000B1F90000B1F90420904201DD00207047A5
:106CF000B1F90200B1F90620904201DD0020F6E76B
:106D00000120F4E72DE9FC4107460D463846FDF722
:106D1000E7FC0446A68B16F0020F01D1BDE8FC810A
:106D200040F601003040012800D1F7E72846FFF780
:106D3000D6FF00B9F2E7224629466846FCF769FF0C
:106D40006846FFF7CCFFB8B1207F10F0200F06D0C7
:106D50006A4604F108010846FDF7F2F80CE00098D5
:106D6000A0600198E060A08B40F02000A083C9489B
:106D70000088401CC749088000BFCFE70020C649F3
:106D800008807047C549098819B1C449B1F90000A4
:106D900002E0C349B1F93C00704770B504460D46A6
:106DA000B4F90220B4F900102846FDF70AF970BDC5
:106DB0007CB50446BA48806B18B92046FEF7E2FA63
:106DC00016E0B748806B0168009140680190FFF7BA
:106DD000D9FF0646FDF784FC05466946FFF7DDFF4F
:106DE00021466846FCF7F4FE6846FEF7CBFA00BF82
:106DF0007CBD70B506460D4600BF2846FDF770FC09
:106E00000446207F10F0020F01D1002070BD214602
:106E10003046FCF7DDFEE08A00B902E0B4F9165016
:106E2000EBE700BF2846FFF74FFF002801DA0020FC
:106E3000ECE70120EAE71CB59A48007818B19A48B7
:106E4000FFF7B6FF16E09649B1F93C00FDF748FCA4
:106E50000446D4E90001CDE900019048008828B13A
:106E60008E48B0F900106846FFF7C3FF6846FFF789
:106E70009FFF00BF1CBD2DE9F84F06468846B8F1BC
:106E8000000F3FD03046FDF72BFC04460020608306
:106E9000A4F816804046FDF723FC0746207F00F04B
:106EA000080BB7F91890B9F1000F02D13E83BDE885
:106EB000F88F4846FDF714FC0546BBF1000F07D1DB
:106EC000287F10F0080F03D0A4F81A903E83EEE755
:106ED00000BFB5F91A00009008B96E8311E0009860
:106EE000FDF7FEFB8246BBF1000F08D19AF81C00AB
:106EF00010F0080F03D06E830098608301E05546C0
:106F0000E7E700BF00BFD2E72DE9F0470746384664
:106F1000FDF7E6FB8146B9F91680B8F1000F20D0E5
:106F20004046FDF7DDFB0646B6F91850BD4206D1D6
:106F30002846FDF7D5FB0446608B308311E00DE059
:106F40002846FDF7CDFB0446B4F91A00B84203D138
:106F5000B9F81A00608303E0B4F91A50002DEFD19C
:106F600000BFBDE8F08770B50446FDF735FF4F4818
:106F7000B0F9005008E021462846FFF7C3FE284636
:106F8000FDF7AEFBB0F91450002DF4D1FDF71AFF58
:106F900070BD70B505462846FDF7A2FB0446B4F95E
:106FA00016603EB12846FFF7AFFF2046FFF7DBFF34
:106FB0000020E08270BD70B50446FDF70DFF384833
:106FC000B0F93C6014B93948B0F9004034488487BE
:106FD0002046FDF785FB0546FEF74FF9B5F90000A1
:106FE0002F490864B5F902004864FDF7EBFE30460E
:106FF00070BD2DE9F04106462C48B0F900700EE056
:107000003846FDF76DFB0446B4F91450B54205D17E
:107010003046FDF765FB808AA08202E02F46002FF4
:10702000EED100BFBDE8F08170B504460D4674B1E5
:10703000FDF7D2FE2046FDF753FB0646306918B136
:10704000AC80284631698847FDF7BCFE00BF70BDA3
:107050003EB505460C46ADF80450009469462846F6
:10706000FFF7E2FF3EBD70B505461048B0F900409D
:1070700008E0AC4201D1012070BD2046FDF730FB95
:10708000B0F91440002CF4D10020F5E7C80000202E
:10709000CC000020C2000020EE000020EC00002008
:1070A000042A0020D4000020082E0020C400002064
:1070B00070B5044604B970BDFDF78EFE2046FFF79B
:1070C000D2FF002849D02046FDF70AFB0546FFF70E
:1070D00055FEFE48B0F90000A04202D10020FB4955
:1070E0000880FB48B0F90000A04202D10020F84916
:1070F00008802046FFF7DAFD0721204600F0B6FEA3
:10710000B5F9180000F02DF80B212046FFF7A0FF7D
:107110002046FFF73EFF2046FFF76BFF287F10F069
:10712000010F04D0EB480068401EEA490860287F40
:1071300010F0200F04D0E8480088401EE64908807F
:10714000E6480088401EE54908802046FDF72BFBF5
:10715000E348B0F90000FFF72EFFFDF733FE00BF54
:10716000A9E770B504460AE02046FDF7B9FA0546DE
:10717000B5F91A602046FFF79BFF344600BF002C8C
:10718000F2D170BD70B505460C4600BF2846FFF72A
:10719000EAFE70BD70B50446D148008868B1D04899
:1071A000B0F90000FDF79CFA06462046FDF798FA74
:1071B0000546B08AA882B48201E0C948048070BD47
:1071C0002DE9FC4706460C4617464DE03046FDF7D4
:1071D00087FA0546B0F81C8018F0020F42D02FB194
:1071E0003A4629466846FCF714FD03E0D5E900015C
:1071F000CDE9000169462046FCF76CFF88B318F022
:10720000010F1CD1B5F90200B4F9021088420CDD5F
:10721000BDF90200401EB4F90610884221DABDF81B
:107220000200401E00B2E0801BE0BDF90600B4F988
:107230000610884215DABDF80600E08011E0B5F9C5
:1072400018900AE04846FDF74BFA82466A46214606
:107250004846FFF7B5FFBAF91A90B9F1000FF1D11E
:1072600000BF00BFB5F91A60002EAFD1BDE8FC87A2
:107270002DE9FC5F06460D4617464FF0000B3BE03C
:107280003046FDF72DFA0446B0F81C8018F0020FC6
:1072900030D02FB13A4621466846FCF7BAFC03E0ED
:1072A000D4E90001CDE9000169462846FCF712FF48
:1072B000F8B118F0010F07D1BDF80400401C00B26E
:1072C00028804FF0010B14E0B4F918900DE0484607
:1072D000FDF706FA82466A4629464846FFF7C8FF88
:1072E00008B14FF0010BBAF91A90B9F1000FEED1C5
:1072F00000BF00BFB4F91A60002EC1D15846BDE8E6
:10730000FC9F2DE9FC4706460D46174636E0304601
:10731000FDF7E6F90446B0F81C8018F0020F2BD0F8
:107320002FB13A4621466846FCF773FC03E0D4E9E6
:107330000001CDE9000169462846FCF7CBFED0B13B
:1073400018F0010F05D1BDF80000401E00B2A88062
:1073500011E0B4F918900AE04846FDF7C1F98246F9
:107360006A4629464846FFF7CCFFBAF91A90B9F1A8
:10737000000FF1D100BF00BFB4F91A60002EC6D1D2
:10738000BDE8FC8700224A800A8082880388D21ADE
:1073900012B28A80C2884388D21A12B2CA80704759
:1073A00082680A60C2684A6070472DE9FF4105465D
:1073B0000E4685B3FDF710FD2846FDF791F904460A
:1073C000A78B17F0020F24D0D4E90001CDE9020108
:1073D00066B1306800907068019069462046FFF7FA
:1073E000DCFC694602A8FCF7F3FB00BF294602A8B3
:1073F000FFF7FFFC68B140F601003840012804D1D6
:10740000294602A8FFF7BEFE03E002A92846FFF7BF
:1074100079FCFDF7D7FCBDE8FF8110B504460021DB
:107420002046FFF7C2FF10BD2DE9F84F8046894680
:1074300092469B46DDE90A75FDF7CEFC2948008897
:1074400005432FB92548008810B12748B0F90070CE
:10745000781C00D10027F7B13846FDF741F9064600
:10746000B6F900008044B6F902008144BAF1000F79
:1074700006D1B6F90400B6F90010401A00F1010A6D
:10748000BBF1000F06D1B6F90600B6F90210401A9A
:1074900000F1010B00BF0D98203000B2FCF74EFC4C
:1074A000009000285AD00D480088401C0B490880E5
:1074B0000098FDF715F904460FFA88F020800FFABE
:1074C00089F0608008EB0A00401E0FE0DA0000201F
:1074D000D8000020E8000020C2000020C0000020EA
:1074E000C4000020D6000020CC00002000B2A08004
:1074F00009EB0B00401E00B2E0800C982061A08BCD
:1075000043F68F7129400843A0830098FFF742FE9D
:1075100039460098FFF7AFFC15F0200F02D0009815
:10752000FFF749FD15F0010F04D0FE480068401C2C
:10753000FC49086015F0400F02D0009800F032FCC2
:1075400015F0020F06D0A08B40F00200A083009837
:10755000FFF763FF01210098FFF77AFDFDF732FC8A
:107560000098BDE8F88F2DE9FF4704460D46164602
:107570001F46DDE90D9ADDF8308000203B4632469B
:1075800029468DE801072046FFF74EFF04B0BDE80D
:10759000F087E548B0F93C0070477CB5E349D1E994
:1075A0000201CDE90001E148006940B9DF480088E7
:1075B000ADF80000DD484088ADF802001BE0DB4874
:1075C0008089401C00B2ADF80000D8484089ADF871
:1075D0000200BDF90000D549B1F9041088420ADD66
:1075E00000BFD2480088ADF80000D048C089401CD8
:1075F00000B2ADF80200BDF90200CC49B1F90610A5
:10760000884201DD00207CBDC749B1F93C00FDF78F
:1076100067F80546BDF90000C449B1F90010884279
:107620001FD1C248C088ADF80600C0488088ADF8B8
:107630000400BD48B0F93C600BE03046FDF750F85F
:107640000446B4F91A0000226946FFF7B9FDB4F9FF
:107650001660002EF1D1B5F9180000226946FFF737
:10766000AFFD00BFBDF80000ADF80400AE48B0F9B2
:107670003C600DE03046FDF733F80446B4F91A00DB
:1076800000226946FFF7F4FD00B1EBE7B4F916609C
:10769000002EEFD1B5F9180000226946FFF7E8FD8A
:1076A00000B1DFE7A1488088ADF80400BDF904000F
:1076B000BDF90010884205DA9C48DDE90012C0E9F6
:1076C00002128EE79848B0F93C600BE03046FDF7B7
:1076D00007F80446B4F91A0000226946FFF711FEC4
:1076E000B4F91660002EF1D1B5F9180000226946F0
:1076F000FFF707FE8D480069C82801DD002082E7FA
:107700008A48DDE90012C0E9021201207BE710B5CA
:107710008748007808B9002010BD844840690128D6
:1077200006DD82484069401E804948610020F3E739
:107730007E480069401C7D490861FFF72EFF30B983
:107740007A484069401E794948610020E4E7FFF724
:1077500072FB0120E0E77FB505467548007820B947
:10776000FFF769FB012004B070BD70484069401C00
:107770006E494861012801DD0120F4E76A49B1F949
:107780003C00FCF7ADFF04464FF0FF30674908614D
:107790006848007820B102A92046FFF701FE0FE0FB
:1077A000207F10F0020F04D0D4E90001CDE90201DE
:1077B00006E05E484069401E5C4948610020D2E70F
:1077C0001DB1294602A8FCF703FA5748806BC0B1E7
:1077D00026465548806B01680091406801905648E4
:1077E000008828B15448B0F90000FCF779FF06463C
:1077F00069463046FFF7D1FA694602A8FCF7E8F976
:1078000000BF4D48008868B14B48B0F9001002A88D
:10781000FFF7EFFA30B945484069401E43494861D7
:107820000020A0E74048B0F93C1002A8FFF7E1FAB9
:1078300030B93E484069401E3C494861002092E70B
:107840003A48DDE9021206C0FFF761FF8BE710B589
:10785000FCF790FC00203449886310BDFEB5054656
:107860000C46A68B2069002835D016F0020F32D0C6
:1078700030480078401C2F49087016F4805F0DD006
:10788000ADF804500F20009004F108000290FFF7BB
:10789000DEFF69462846FFF7C7FB16E004F1080043
:1078A000FFF759FF88B100BFADF804500F200090DA
:1078B00004F108000290FFF7CAFF69462846FFF767
:1078C000B3FBFFF724FF0028EED11A480078401ED2
:1078D0001849087000BFFEBD2DE9F04105460C4671
:1078E0001149B1F93C00FCF7FBFE8046214608F146
:1078F0000800FCF7EFFB60B30B48066C476C08F11F
:107900000802214604F10800FCF783F90A480580C3
:10791000B4F9000004490864B4F90200486421463F
:1079200028460BE0E8000020042A0020002E00205A
:10793000D4000020E4000020EC000020FFF78EFFC0
:107940000020E9490880E948066447640120BDE851
:10795000F0810020FBE77CB50446207F10F0020F89
:1079600026D0B4F9186021E03046FCF7B9FE054690
:10797000287F00F00300032816D104F108012846EF
:10798000FCF7A8FB80B1A0680090E0680190294650
:107990003046FFF7A1FF10B12846FFF7DCFF009843
:1079A000A0600198E06000BFB5F91A60002EDBD13D
:1079B0007CBD2DE9F04106460C46B4F91670B4F9C9
:1079C0001A601CE011E03046FCF78AFE0446207F76
:1079D00000F00300032803D121463046FFF77CFF67
:1079E0002046FFF7B8FFB4F91A60002EEBD13846F5
:1079F000FCF776FE0546B5F91A60B5F91670002F4A
:107A0000E0D1BDE8F08170B50446B4F90060656866
:107A1000A88B40F601010840012803D029463046D2
:107A2000FFF71CFFB248006830B12846FFF793FF0C
:107A300029463046FFF7BDFF70BD7CB50546AB4912
:107A4000B1F93C00FCF74CFE0446A0680090E068E9
:107A50000190A6484168A1608068E0602846FFF771
:107A6000D2FF0098A0600198E0607CBDF0B585B0C1
:107A700005460C460026207F10F0200F3BD02069E1
:107A800040B3294604F10800FFF7B3F910B3ADF88D
:107A90000C5004942846FFF78EFA207F10F0040F54
:107AA00013D0A0680190E0680290207F00F00100F0
:107AB00080F00107E08A00B90027002303AA8D495E
:107AC00001A80097FEF78EFE03E003A8FFF79BFFD7
:107AD000012600BFA08B20F02000A083A08B10F413
:107AE000005F03D0A08B40F00400A0838248008890
:107AF000401E81490880304605B0F0BD70B598B091
:107B000001267E48008818B97D48B0F9000002E0DF
:107B10007A48B0F9000004466846FCF7F9FA0CE030
:107B20002046FCF7DDFD054629462046FFF79EFF6F
:107B300000B1761EB5F9144000BF0CB1002EEFD194
:107B40006E4804806846FCF7EBFA18B070BD10B5BB
:107B50006C48006810B16B48006880476A4800684C
:107B600028B169480068804708B1012010BDFCF7C2
:107B700055FA08B10120F9E76448007850B15E4831
:107B8000008838B1FDF728F9FFF7B8FFFDF71AF9BB
:107B90000120EBE70020E9E710B5002400E0012414
:107BA000FFF7D5FF0028FAD1204610BD2DE9F0419E
:107BB0000446B4F90450A6682846FCF791FD074630
:107BC000206817280FD004DC0E280FD014281AD1F3
:107BD00004E022280FD0282815D110E0314638467D
:107BE000FFF7D0FB0FE0A560BDE8F08121462846F5
:107BF00000F068F9F8E76FF07040A060F4E72846FD
:107C0000FFF70BFCF0E700BF0020A060A06000BF02
:107C1000EAE770B5044620680E2802D00F2818D174
:107C200007E0A5686868012802D12868FCF7E2F936
:107C300013E00026364850F826006FF07041884265
:107C400006D0334951F82600FCF780FAFDF766F8B4
:107C500000BF2046FFF7AAFF00BF00BF70BD012094
:107C60002A490870704710B5002028490870FDF7B0
:107C7000B3F8FDF702FBFDF7A5F810BD0EB52548DA
:107C8000007880BB00201E4908801C4908801749E5
:107C9000886319490880204908802049022240F65B
:107CA000FF73CDE9002102901A460146FFF75BFC05
:107CB0001B4908806FF07040154908601849B1F9F8
:107CC0000000FFF7AAFB174800F094F8164800F0F0
:107CD00091F81349B1F90000FFF76DF9FFF7BFFF05
:107CE00001200C4908700EBDEC000020042A002081
:107CF000E80000203B7A0008C2000020EE000020CF
:107D0000C4000020E0000020A4000020D4000020D7
:107D1000D0000020F0000020C0000020137C0008EC
:107D2000CC000020F4000020FC00002010B5044628
:107D3000204600F08DF804462CB12046FCF7D0FC1C
:107D4000B0F9180010BD0020FCE770B505462846C4
:107D5000FFF7ECFF06460EE0AE4201D100260CE034
:107D60003046FCF7BDFC0446B4F91A00A84200D125
:107D700003E0B4F91A60002EEED100BF304670BDAA
:107D800070B505460C462846FCF7AAFC0646A580B9
:107D9000306918B120463169884702E02046FFF774
:107DA00005FF70BD2DE9F0470546FDF715F8EDB16B
:107DB0002846FCF795FC04462846FFF7C6FF064612
:107DC000A6B1284600F044F881464846FCF788FCF6
:107DD00007463046FCF784FC8046608BA8F81A0002
:107DE000388B60833D832046FFF7BDF8FCF7EAFF40
:107DF000BDE8F087124909680160114908607047C1
:107E000010B502460E480068C8B100210C4B186836
:107E100011E090420DD111B103680B6008E00368D6
:107E20001BB1074C0368236002E00023044C23606D
:107E300003E0014600680028EBD100BF00BF10BD81
:107E4000C80000200148B0F900007047CC000020B5
:107E500010B5044644B1FCF7BFFF2046FCF740FCD8
:107E6000B0F91640FCF7AEFF204610BD3EB5054602
:107E70000C462620009002946946284600F022F81D
:107E80003EBD000070B586B004460D460026FCF7E6
:107E9000A3FF0B48008868B1019402950E2003905F
:107EA00001A8059003A90648B0F90000FFF768FF94
:107EB000012600BFFCF786FF304606B070BD00000B
:107EC000DA00002070B505460C4674B1FCF784FF5B
:107ED0002846FFF7BDFF064626B1E580214630461D
:107EE000FFF7A2F8FCF76EFF00BF70BD70470000FF
:107EF0000FB4044910B503AA029800F0F7F910BCBA
:107F00005DF814FB300000202DE9F05F894604463F
:107F10004FF0000ADFF878B1FB44C0F820A02046FB
:107F2000E1688847002875D0252806D0D4E90121CA
:107F30009047206A401C2062F1E700265F462046F9
:107F4000E16888472028054608DB312D06D207EB7B
:107F5000050010F8200C08B10643F0E7B00701D582
:107F600026F00406C4F81CA00027C4F818A02A2D87
:107F700009D0284600F037FA38B304EB8708303DC3
:107F8000C8F8185019E059F8041B204604EB870282
:107F90009161E1688847012F054618D1E069002802
:107FA00020DA26F020061DE0D8F8180000EB80004B
:107FB00005EB40003038C8F818002046E1688847D3
:107FC000054600F010FA0028EED1012F0AD02E2D20
:107FD00008D12046E16888477F1C0546022F46F0FD
:107FE0002006C4DBA069002803DA404246F00106FF
:107FF000A061F00701D026F010066C2D0BD0682D83
:1080000009D04C2D39D06A2D35D0742D35D07A2D2C
:1080100033D016E038E0E1682F4620468847B84262
:10802000054609D16C2F26D04FF48060E1680643E5
:1080300020468847054604E06C2F1AD04FF4807024
:1080400006430DB3A5F14100192802D8203546F4A6
:1080500000664A462946204626604E46F8F7A2F8B2
:1080600080B101280BD0F61D26F0070000F10809A9
:1080700055E74020E4E78020D8E70020D6E706F166
:1080800004094CE7284651E7206ABDE8F09F00004C
:10809000B41400000446AFF300802046F8F791F8CE
:1080A000032A40F2308010F0030C00F0158011F824
:1080B000013BBCF1020F624498BF11F801CB00F8FC
:1080C000013B38BF11F8013BA2F1040298BF00F850
:1080D00001CB38BF00F8013B11F0030300F06780CB
:1080E000083AC0F0088051F8043B083A51F804CB34
:1080F000A0E80810F5E7121D5CBF51F8043B40F8FA
:10810000043BAFF30080D20724BF11F8013B11F804
:1081100001CB48BF11F8012B24BF00F8013B00F848
:1081200001CB48BF00F8012B7047431A28BF9A4281
:108130007FF6B6AF032A1044114440F2268010F0B7
:10814000030F1EBF11F8013D521E00F8013D10F053
:10815000030F7FF4F6AF11F0030300F0EC80083A50
:10816000C0F00B8051F8043D083A51F804CD40F8B6
:10817000043D40F804CDFFF7F3BF121D5CBF51F87A
:10818000043D40F8043DAFF30080D20724BF11F84E
:10819000013D11F801CD48BF11F8012C24BF00F8B2
:1081A000013D00F801CD48BF00F8012C704710B523
:1081B000203AC0F00B80B1E81850203AA0E81850DF
:1081C000B1E81850A0E81850BFF4F5AF5FEA027CA0
:1081D00024BFB1E81850A0E8185044BF18C918C00F
:1081E000BDE810405FEA827C24BF51F8043B40F8B0
:1081F000043B08BF7047D20728BF31F8023B48BF95
:1082000011F8012B28BF20F8023B48BF00F8012BD2
:10821000704702F0FF0343EA032242EA024200F001
:1082200002B84FF000020429C0F0128010F0030CD5
:1082300000F01B80CCF1040CBCF1020F18BF00F859
:10824000012BA8BF20F8022BA1EB0C0100F00DB808
:108250005FEAC17C24BF00F8012B00F8012B48BF66
:1082600000F8012B70474FF0000200B5134694460A
:108270009646203922BFA0E80C50A0E80C50B1F17E
:108280002001BFF4F7AF090728BFA0E80C5048BF92
:108290000CC05DF804EB890028BF40F8042B08BF30
:1082A000704748BF20F8022B11F0804F18BF00F82C
:1082B000012B7047704770477047704701694A1C2F
:1082C00002610878704700B58FB0CDE90131002117
:1082D000059105497944CDE9031011466846FFF739
:1082E00013FE0FB000BD0000E5FFFFFF074B70B5A8
:1082F0000D467B44FFF7E7FF0446284600F04AF8A6
:1083000010B14FF0FF3070BD204670BD8199FFFF66
:10831000431A28BF9A427FF64AAF104410F0030F69
:1083200011441EBF11F8013D521E00F8013D10F02E
:10833000030F7FF4F6AF103AC0F00A8010B531E9B0
:108340001850103A20E91850BFF4F9AFBDE81040BA
:10835000530724BF31E9081020E9081044BF51F841
:10836000043D40F8043D12F0030F08BF7047D207E8
:1083700028BF31F8023D48BF11F8012C28BF20F872
:10838000023D48BF00F8012C7047000000487047CC
:10839000182E0020007B00F0800070477546FFF724
:1083A000F5FFAE4605006946534620F007008546B6
:1083B00018B020B5F8F73CFABDE820404FF00006B1
:1083C0004FF000074FF000084FF0000B21F00701BD
:1083D000AC46ACE8C009ACE8C009ACE8C009ACE800
:1083E000C0098D46704730380A2801D201207047F5
:1083F0000020704710B503460C4619462020F7F7B9
:10840000B5FF21462120F7F7B1FF10BD00000100A4
:10841000020001000300010002000100040001004D
:10842000020001000300010002000100050001003C
:10843000020001000300010002000100040001002D
:10844000020001000300010002000100060001001B
:10845000020001000300010002000100040001000D
:1084600002000100030001000200010005000100FC
:1084700002000100030001000200010004000100ED
:1084800002000100030001000200010007000100DA
:1084900002000100030001000200010004000100CD
:1084A00002000100030001000200010005000100BC
:1084B00002000100030001000200010004000100AD
:1084C000020001000300010002000100060001009B
:1084D000020001000300010002000100040001008D
:1084E000020001000300010002000100050001007C
:1084F000020001000300010002000100040001006D
:108500000200010003000100020001003D430008D9
:10851000434300084B43000853430008814F0008C1
:10852000214F00082953000839530008455300081B
:108530002F5A000899590008D35900080D5A00080D
:10854000955400084D5300088154000879590008DB
:10855000E75A0008000000000000000078930008BF
:1085600000000000008040C020A060E0109050D0CB
:1085700030B070F0088848C828A868E8189858D81B
:1085800038B878F8048444C424A464E4149454D41B
:1085900034B474F40C8C4CCC2CAC6CEC1C9C5CDCBB
:1085A0003CBC7CFC028242C222A262E2129252D203
:1085B00032B272F20A8A4ACA2AAA6AEA1A9A5ADABB
:1085C0003ABA7AFA068646C626A666E6169656D6BB
:1085D00036B676F60E8E4ECE2EAE6EEE1E9E5EDE5B
:1085E0003EBE7EFE018141C121A161E1119151D1C7
:1085F00031B171F1098949C929A969E9199959D98B
:1086000039B979F9058545C525A565E5159555D58A
:1086100035B575F50D8D4DCD2DAD6DED1D9D5DDD2A
:108620003DBD7DFD038343C323A363E3139353D372
:1086300033B373F30B8B4BCB2BAB6BEB1B9B5BDB2A
:108640003BBB7BFB078747C727A767E7179757D72A
:1086500037B777F70F8F4FCF2FAF6FEF1F9F5FDFCA
:108660003FBF7FFF0000000000000000000000008E
:10867000000000000000183C3C3C181818001818B6
:108680000000000000666666240000000000000094
:10869000000000000000006C6CFE6C6C6CFE6C6CEA
:1086A0000000000018187CC6C2C07C060686C67C86
:1086B0001818000000000000C2C60C183060C68602
:1086C000000000000000386C6C3876DCCCCCCC7636
:1086D00000000000003030306000000000000000AA
:1086E0000000000000000C18303030303030180C22
:1086F00000000000000030180C0C0C0C0C0C1830A2
:10870000000000000000000000663CFF3C66000026
:1087100000000000000000000018187E181800007B
:108720000000000000000000000000000018181801
:108730003000000000000000000000FE000000000B
:1087400000000000000000000000000000001818F9
:10875000000000000000000002060C183060C0801D
:10876000000000000000386CC6C6C6C6C6C66C381D
:108770000000000000001838781818181818187E23
:108780000000000000007CC6060C183060C0C6FE69
:108790000000000000007CC606063C060606C67CFB
:1087A0000000000000000C1C3C6CCCFE0C0C0C1EED
:1087B000000000000000FEC0C0C0FC060606C67C2B
:1087C0000000000000003860C0C0FCC6C6C6C67C01
:1087D000000000000000FEC606060C1830303030E5
:1087E0000000000000007CC6C6C67CC6C6C6C67CAB
:1087F0000000000000007CC6C6C67E0606060C7897
:108800000000000000000000181800000018180008
:1088100000000000000000001818000000181830C8
:1088200000000000000000060C18306030180C0634
:108830000000000000000000007E00007E0000003C
:10884000000000000000006030180C060C183060BA
:108850000000000000007CC6C60C1818180018188C
:10886000000000000000007CC6C6DEDEDEDCC07C4E
:1088700000000000000010386CC6C6FEC6C6C6C6A2
:10888000000000000000FC6666667C66666666FCAA
:108890000000000000003C66C2C0C0C0C0C2663C10
:1088A000000000000000F86C6666666666666CF89C
:1088B000000000000000FE6662687868606266FE84
:1088C000000000000000FE6662687868606060F08A
:1088D0000000000000003C66C2C0C0DEC6C6663AAA
:1088E000000000000000C6C6C6C6FEC6C6C6C6C694
:1088F0000000000000003C18181818181818183C40
:108900000000000000001E0C0C0C0C0CCCCCCC7831
:10891000000000000000E666666C78786C6666E62B
:10892000000000000000F06060606060606266FE51
:10893000000000000000C6EEFEFED6C6C6C6C6C6D3
:10894000000000000000C6E6F6FEDECEC6C6C6C6C3
:108950000000000000007CC6C6C6C6C6C6C6C67CEF
:10896000000000000000FC6666667C60606060F0ED
:108970000000000000007CC6C6C6C6C6C6D6DE7CA7
:108980000C0E00000000FC6666667C6C666666E69F
:108990000000000000007CC6C660380C06C6C67C1D
:1089A0000000000000007E7E5A1818181818183CA5
:1089B000000000000000C6C6C6C6C6C6C6C6C67C45
:1089C000000000000000C6C6C6C6C6C6C66C381089
:1089D000000000000000C6C6C6C6D6D6D6FEEE6CA5
:1089E000000000000000C6C66C7C38387C6CC6C62F
:1089F000000000000000666666663C181818183C07
:108A0000000000000000FEC6860C183060C2C6FEE2
:108A10000000000000003C30303030303030303C5E
:108A20000000000000000080C0E070381C0E06024C
:108A30000000000000003C0C0C0C0C0C0C0C0C3C5E
:108A40000000000010386CC60000000000000000AC
:108A50000000000000000000000000000000000016
:108A600000FF00000030180C0000000000000000B3
:108A7000000000000000000000780C7CCCCCCC761C
:108A8000000000000000E06060786C666666667C4E
:108A90000000000000000000007CC6C0C0C0C67C12
:108AA0000000000000001C0C0C3C6CCCCCCCCC7644
:108AB0000000000000000000007CC6FEC0C0C67CB4
:108AC0000000000000001C36323078303030307842
:108AD00000000000000000000076CCCCCCCCCC7CA8
:108AE0000CCC78000000E060606C7666666666E636
:108AF0000000000000001818003818181818183C5A
:108B00000000000000000606000E06060606060627
:108B100066663C000000E06060666C78786C66E633
:108B20000000000000003818181818181818183C11
:108B3000000000000000000000ECFED6D6D6D6C62D
:108B4000000000000000000000DC666666666666E5
:108B50000000000000000000007CC6C6C6C6C67C3F
:108B6000000000000000000000DC66666666667CAF
:108B70006060F000000000000076CCCCCCCCCC7C57
:108B80000C0C1E000000000000DC7666606060F0E7
:108B90000000000000000000007CC660380CC67CAD
:108BA000000000000000103030FC30303030361C47
:108BB000000000000000000000CCCCCCCCCCCC7677
:108BC000000000000000000000C6C6C6C6C66C3823
:108BD000000000000000000000C6C6D6D6D6FE6C1D
:108BE000000000000000000000C66C3838386CC679
:108BF000000000000000000000C6C6C6C6C6C67E53
:108C0000060CF8000000000000FECC183060C6FE24
:108C10000000000000000E18181870181818180E20
:108C20000000000000001818181818181818181854
:108C3000000000000000701818180E18181818709E
:108C4000000000000076DC000000000000000000D2
:108C50000000000000001C300000000000000000C8
:108C6000000000000000701800000000000000007C
:108C7000000000000010386C000000000000000040
:108C80000000000000C6C600000000000000000058
:108C9000000000000076DC00000000000000000082
:108CA0000000000000000000003818181818183CD8
:108CB000000000000000386C6C6C786C6666666CB6
:108CC00060C00000102810007CC6C6FEC6C6C6C61E
:108CD000000000000030483000780C7CCCCCCC7612
:108CE0000000000000001E7AD8D8D8FED8D8DADEFE
:108CF000000000000000FC666666F6F6666666FC2C
:108D0000000000000000F0607C666666667C60F033
:108D1000000000000000000000CC323E70B0B26CD9
:108D2000000000000000D060B0187CC6C6C6C67C3B
:108D3000000000000000E06060786C6C786060F01B
:108D40000000000000007CC6CECED6D6E6E6C67C8B
:108D50000000000000000000003A44CED6E644B80F
:108D600000000000000000386CC6C6FEC6C6C6C6BD
:108D700000000000000000FE66626878686266FE1F
:108D8000000000000000003C181818181818183CC3
:108D9000000000000000007CC6C6C6C6C6C6C67C71
:108DA00000000000000000C6C6C6C6C6C6C6C67C17
:108DB00000000000000000C6E6F6FEDECEC6C6C615
:108DC0000000000000001818001818183C3C3C185F
:108DD00000000000000030300030303060C6C67C3B
:108DE000000000001C300000000000000000000037
:108DF00000000000701800000000000000000000EB
:108E000000000000386C00000000000000000000BE
:108E100000000000C6C600000000000000000000C6
:108E20000000000076DC00000000000000000000F0
:108E30000000000000000000000000000000000032
:108E400018300000000000000000000000000000DA
:108E50000000000000000010107CD0D0D0D0D67CE4
:108E60001010000000001C30303078303030325CA0
:108E70000000000000000000423C24243C420000AE
:108E8000000000000000663C187E18187E181818B4
:108E90000000000000001818181800001818181812
:108EA0000000000000003C6460384444380C4C78FA
:108EB0000000000000C6C600000000000000000026
:108EC00000000000000000007E425A5E5A427E0010
:108ED000000000000000700878888874000000001E
:108EE000000000000000000000366CD86C36000066
:108EF0000000000000000000000000FC040400006E
:108F000000000000000000000000007C00000000E5
:108F100000000000000000007C4454444C547C00DD
:108F200000000000FE000000000000000000000043
:108F3000000000000070D888D87000000000000019
:108F4000000000000000000010107C1010007C00E9
:108F500000000000788C0C183060FC00000000005D
:108F600000000000788C0C780C8C78000000000069
:108F700000000000000E18200000000000000000AB
:108F80000000000000000000006666666666667C01
:108F90006060C00000007ED4D4D474141414143E55
:108FA0000000000000000000000038383800000019
:108FB0000000000060E060606060F0000000000001
:108FC0000000000000003C6666663C0000000000F7
:108FD000000000000000000000D86C366CD80000D3
:108FE00000000000000040C0444810244C941E04BF
:108FF00000000000000040C04448102C5284081EAD
:10900000000000000000C0204428D0244C941E041E
:10901000000000000000000000663C183C660000F4
:1090200000000000000000001818007E0018180062
:109030000000000000000000000818387FFF7F38A3
:1090400018080000000000000010181CFEFFFE1CA5
:109050001810000000000000000010387CFE3838B6
:109060003838000000000000000038383838FE7C36
:10907000381000000000000606060616367EFE7C4C
:1090800030100000000000000000030306060CCCB6
:10909000783800009D00FFFF9E00FFFF9F00FFFF4C
:1090A000A000FFFFA100FFFFA200FFFFFFFFFFFFE7
:1090B000FFFFFFFFFFFFFFFFFFFFFFFFFFFFFFFFC0
:1090C000FFFFFFFFFFFFFFFFFFFFFFFFFFFFFFFFB0
:1090D000FFFFFFFF7E00FFFF7600FFFF7F00FFFF27
:1090E0008000FFFF8100FFFF8200FFFF8300FFFF82
:1090F0008400FFFF8500FFFF8600FFFF8700FFFF62
:109100008800FFFF8900FFFF8A00FFFF8B00FFFF41
:109110008C00FFFF8D00FFFF8E00FFFF8F00FFFF21
:109120009000FFFF9100FFFF9200FFFF9300FFFF01
:109130009400FFFF7D00FFFF9500FFFF9600FFFFFB
:109140009700FFFF9800FFFF9900FFFF9A00FFFFC5
:109150007700FFFF700079007000780070007A00DF
:1091600070007C0070007B006600FFFF6800FFFF5E
:1091700023007D00710079007100780071007A0091
:1091800071007B00720079007200780072007A0032
:1091900072007B006900FFFF75007C00730079009E
:1091A0007300780073007A0073007C0073007B000A
:1091B0009B00FFFF6E00FFFF7400790074007800D1
:1091C00074007A0074007B00390078006A00FFFFA9
:1091D0006500FFFF4100600041005F004100610049
:1091E00041006300410062006700FFFF6B00FFFF6A
:1091F00043007D004500600045005F0045006100C0
:10920000450062006400600064005F00640061006B
:10921000640062006C00FFFF4E0063004F006000BE
:109220004F005F004F0061004F0063004F0062007D
:109230009C00FFFF6F00FFFF55005F0055006000BE
:10924000550061005500620059005F006D00FFFF8E
:10925000590062009000FF009490000864860008A6
:10926000648600085492000820007F00080801006E
:109270007D4A0008014C0008174C00081F4C0008EC
:1092800000000000101001015C9200080C070A00A9
:109290007D4A0008014C0008174C00081F4C0008CC
:1092A00000000000101101015C9200080C070A0088
:1092B0007D4A0008014C0008174C00081F4C0008AC
:1092C00000000000101201015C9200080C070A0067
:1092D00064860008648600085492000820007F001D
:1092E0000810010064860008648600085492000893
:1092F00020007F00081801007D4A0008014C00088A
:10930000174C00081F4C000800000000102001024C
:109310005C9200080C070A007D4A0008014C000816
:10932000174C00081F4C000800000000102002022B
:10933000D09200080C070A007D4A0008014C000882
:10934000174C00081F4C00080000000010300303F9
:10935000E49200080C070A0000000100020003006C
:109360000400050006000700080009000A000B00C1
:109370000C000D000E000F00235B00083B5B000893
:10938000535B000855640008476600085D660008E6
:10939000A9650008C3670008F15A000817670008AC
:1093A00061670008000000000000000000000000ED
:1093B00000000000100000007D6A0008AD6A00088F
:1093C000436B0008000000002F6C00085D6B000874
:1093D000040000080000000000000002000100007E
:1093E00010000000049400080000002004010000A8
:1093F0006C01000808950008040100207433000087
:1094000088010008000000000000010203040102BE
:1094100003040607080902040608000000A24A0423
:109420000000000000000000010203040607080914
:10943000000000000000000000000000000000002C
:10944000000000000000000000000000000000001C
:10945000000000000000000000000000000000000C
:1094600000000000000000000000000000000000FC
:1094700000000000000000000000000000000000EC
:10948000582E5858000000000000000000000000A6
:1094900000000000000000000000000000000000CC
:1094A00000000000000000000000000000000000BC
:1094B00000000000FFFFFFFF0000000000000000B0
:1094C00024850008000000000000000000000000EB
:1094D000000000000000000000000000000000008C
:1094E000000000000000000000000000000000007C
:1094F000000000000000000000000000000000006C
:08950000000000000000000063
:0400000508000131BD
:00000001FF
