:020000040800F2
:10000000408E002085200008B5370008B73700086B
:10001000BB370008BF370008C337000800000000E6
:10002000000000000000000000000000C7370008CA
:10003000C937000800000000CB370008CD370008A2
:100040009F2000089F2000089F2000089F20000894
:100050009F2000089F2000089F2000089F20000884
:100060009F2000089F2000089F2000089F20000874
:100070009F2000089F2000089F2000089F20000864
:100080009F2000089F2000089F2000089F20000854
:100090009F2000089F2000089F2000089F20000844
:1000A0009F2000089F2000089F2000089F20000834
:1000B0009F2000089F2000089F2000089F20000824
:1000C0009F2000089F2000089F2000089F20000814
:1000D0009F2000087B3A00089F2000089F2000080E
:1000E0009F2000089F2000089F2000089F200008F4
:1000F0009F2000089F2000089F2000089F200008E4
:100100009F200008CF3700089F2000089F2000088C
:100110009F2000089F2000089F2000089F200008C3
:100120009F2000089F2000089F2000089F200008B3
:1001300000F002F800F03AF80AA090E8000C8244BF
:100140008344AAF10107DA4501D100F02FF8AFF29C
:10015000090EBAE80F0013F0010F18BFFB1A43F0A5
:10016000010318470441000024410000103A24BF55
:1001700078C878C1FAD8520724BF30C830C144BF0C
:1001800004680C607047000000230024002500264E
:10019000103A28BF78C1FBD8520728BF30C148BFEA
:1001A0000B6070471FB51FBD10B510BD03F00AFDF1
:1001B0001146FFF7F7FF00F01CF903F03BFD03B415
:1001C000FFF7F2FF03BC03F0FBFB000010B5034692
:1001D00007E018780C78A04201D0002010BD5B1C0D
:1001E000491C1000A2F10102F3D10120F6E710B57D
:1001F0000346002000BF03E084181C54441CA0B236
:100200008842F9D310BD08B500224FF480418348DD
:10021000FFF7EDFF8248007880B920231A01002102
:100220007E4801F0C7FC7E49087001F056FD7C490C
:10023000087000BF01F057FA0028FBD17848007819
:1002400080B920231A010021764801F0C3FB7449CC
:10025000087001F03BFC7249087000BF01F043FADE
:100260000028FBD16E48007838B94FF480426D49C0
:100270006A48FFF7ABFF6C4908706B4800780128AB
:1002800009D14FF6FF70002368A2822100901E2042
:1002900000F090FB08E04FF6FF7000236CA2822173
:1002A00000901E2000F086FB08BD08B543F20F2227
:1002B0004FF400716E48FFF79AFF5948007880B9F3
:1002C0004FF4007200216A4801F015FC544908708F
:1002D00001F003FD5249087000BF01F004FA002844
:1002E000FBD14F48007880B94FF40072002161487B
:1002F00001F010FB4A49087001F0E8FB484908701A
:1003000000BF01F0F0F90028FBD14548007838B96A
:100310004FF4007257495648FFF758FF5649087086
:1003200055480078012809D14FF6FF70002353A2E9
:100330006E2100901E2000F03DFB08E04FF6FF709C
:10034000002357A26E2100901E2000F033FB08BD51
:10035000024607E01078FF2803D0107808B100208B
:100360007047521C0800A1F10101F3D10120F7E709
:1003700008B52B48007830B94FF48041002001F0D7
:10038000B3FD274908702648007880B920231A0158
:100390000021244801F01EFB2149087001F096FB62
:1003A0001F49087000BF01F09EF90028FBD11C48CE
:1003B000007830B94FF480411A48FFF7C9FF40492F
:1003C00008703F480078012809D14FF6FF700023DC
:1003D0003CA25A2100901E2000F0ECFA08E04FF6F3
:1003E000FF7000233FA25A2100901E2000F0E2FA85
:1003F00008BD03F077F903F0EEF94FF4E13003F0B4
:10040000EDFA01F007F906490870FFF7B1FFFFF7B1
:100410004CFFFFF7F8FE00BFFEE70000500600208B
:1004200003000020504600200200002053442043D7
:10043000617264204D756C7469426C6F636B5465B6
:1004400073742053756363657373656421000000E2
:1004500053442043617264204D756C7469426C6F23
:10046000636B54657374204661696C656421000098
:10047000500000205002002001000020534420437F
:100480006172642053696E676C65426C6F636B5474
:10049000657374205375636365737365642100002D
:1004A000534420436172642053696E676C65426CEB
:1004B0006F636B54657374204661696C65642100D9
:1004C0000000002053442043617264204572617330
:1004D00065537461747573205375636365737365D5
:1004E00064210000534420436172642045726173AB
:1004F00065537461747573204661696C656421008D
:100500004FF0D84210805180704701464FF0D840DC
:1005100001804088704700B597B00020019002909C
:100520000A20039000200490059006900790062072
:100530000890002009900A9010200B9000200C9049
:100540000E900D900F9010904FF48050119000205D
:1005500012901390149001A81590169008A802F01C
:10056000F0FB0121062002F04DFD322003F0F6F8E9
:1005700017B000BD08B5012140F2E51002F026F9E0
:100580000121080202F015F90220ADF80000032055
:100590008DF8020010208DF803006946FB4801F039
:1005A0005FFE0221F94801F006FF4CF23370ADF80E
:1005B000000003208DF8020018208DF80300694622
:1005C000F34801F04DFE4FF68070ADF8000069462B
:1005D000F04801F045FE0120ADF800006946EE4804
:1005E00001F03EFE4FF48050ADF800006946EB4844
:1005F00001F036FE08BD70B5FFF7BCFFFFF78BFFBB
:10060000322003F0ABF80020FFF77FFF054609E03A
:100610000020FFF77AFF0546E1A003F075FA642099
:1006200003F09CF8A5F513402838F1D11021E720FC
:10063000FFF766FF01210020FFF762FF4FF4807192
:100640000120FFF75DFF4FF4E0610220FFF758FF44
:1006500041F230010320FFF753FF00210420FFF790
:100660004FFF40F207210820FFF74AFF0021092031
:10067000FFF746FF00210A20FFF742FF01210C206F
:10068000FFF73EFF00210D20FFF73AFF00210F206A
:10069000FFF736FF00211020FFF732FF072111205E
:1006A000FFF72EFF00211220FFF72AFF0021132061
:1006B000FFF726FF4CF2503401E0601E84B2002C9C
:1006C000FBDC4CF2503401E0601E84B2002CFBDCF9
:1006D00041F290511020FFF713FF40F22721112023
:1006E000FFF70EFF4CF2503401E0601E84B2002C84
:1006F000FBDC4CF2503401E0601E84B2002CFBDCC9
:100700009C211220FFF7FCFE4CF2503401E0601EE9
:1007100084B2002CFBDC4CF2503401E0601E84B249
:10072000002CFBDC4FF4C8511320FFF7E9FE232116
:100730002920FFF7E5FE0E212B20FFF7E1FE4CF20A
:10074000503401E0601E84B2002CFBDC4CF25034CB
:1007500001E0601E84B2002CFBDC00212020FFF7AA
:10076000CFFE00212120FFF7CBFE4CF2503401E0F8
:10077000601E84B2002CFBDC4CF2503401E0601EA1
:1007800084B2002CFBDC07213020FFF7B9FE40F2D9
:1007900007713120FFF7B4FE06213220FFF7B0FECB
:1007A00040F204713520FFF7ABFE41F604713620AC
:1007B000FFF7A6FE04213720FFF7A2FE0021382014
:1007C000FFF79EFE40F206713920FFF799FE40F2D6
:1007D00001713C20FFF794FE0F213D20FFF790FEB2
:1007E0004CF2503401E0601E84B2002CFBDC4CF271
:1007F000503401E0601E84B2002CFBDC002150204C
:10080000FFF77EFEEF215120FFF77AFE00215220F4
:10081000FFF776FE40F23F115320FFF771FE4FF4D1
:1008200027416020FFF76CFE01216120FFF768FE81
:1008300000216A20FFF764FE00218020FFF760FEA0
:1008400000218120FFF75CFE00218220FFF758FE87
:1008500000218320FFF754FE00218420FFF750FE83
:1008600000218520FFF74CFE10219020FFF748FE65
:1008700000219220FFF744FE03219320FFF740FE62
:100880004FF488719520FFF73BFE00219720FFF77A
:1008900037FE00219820FFF733FE40F23311072086
:1008A000FFF72EFE00212020FFF72AFE0021212045
:1008B000FFF726FE322002F051FF70BD22204FF0DC
:1008C000D8410880704770B50446002500210846CD
:1008D00003F0BAF9FFF7F2FF00BF03E04FF0D84092
:1008E00044806D1CB5F5963FF8D370BD4FF0D841EC
:1008F0004880704770B506460C461546B6F5A07F91
:1009000001DCF02C00DD70BD2146304603F09CF97F
:10091000FFF7D4FF2846FFF7E9FF00BFF3E72DE913
:10092000F05F06460F4690469946DDF828A0002461
:100930000025A34600BF24E0A8F1200004EB00102E
:100940001B4911F800B0002517E0C5F107004BFA6C
:1009500000F010F0010F07D03A1991B2721990B25D
:100960004A46FFF7C7FF06E03A1991B2721990B2F2
:100970005246FFF7BFFF681C85B2082DE5DB601CFF
:1009800084B2102CD8DBBDE8F09F000000080140C5
:100990000014014000180140001C014000200140EB
:1009A0004C4344B3F5CABCBBAFCAA7B0DC0D0A00C8
:1009B000663C00082DE9F84F06460F461446984657
:1009C000DDF82890204603F0ABF81FFA80FA0025E6
:1009D0000DE0CDF8009014F8012B082101FB056112
:1009E00088B243463946FFF79AFF681CC5B25545A1
:1009F000EFDBBDE8F88F000008B5002002F0B1FD84
:100A0000002002F0B1FD02F081FD00214FF4806072
:100A100001F0CFFE4FF4F850ADF8000004208DF83F
:100A200003006946F94801F01BFC0420ADF8000002
:100A30006946F74801F014FC08BD08B531208DF86F
:100A4000000000208DF801008DF8020001208DF8D3
:100A50000300684601F03BFB08BD10B5ED4802F00D
:100A600015FD10BD30B58BB005460C46EA4802F0C6
:100A700020FD0021E94802F0EEFCE94800900195D4
:100A800000200290A0080390002004908020059090
:100A90008000069080000790002008904FF40050DE
:100AA000099000200A906946DC4802F0A9FC012167
:100AB000DA4802F0D0FC0BB030BD30B58BB0054643
:100AC0000C46D54802F0F5FC0021D44802F0C3FCE6
:100AD000D3480090019510200290A00803900020B8
:100AE00004908020059080000690800007900020F0
:100AF00008904FF40050099000200A906946C748BA
:100B000002F07EFC0121C54802F0A5FC0BB030BD0F
:100B100008B50121302001F059FE4FF4F850ADF82E
:100B2000000003208DF8020018208DF803006946AC
:100B3000B64801F095FB0420ADF800006946B448C2
:100B400001F08EFB0121880201F033FE0121022019
:100B500001F02FFE08BD014600BFB1488038406B50
:100B600010F0450FF9D040F2FF50AD4A803A906343
:100B70001046406908221040C0B270472DE9FC4180
:100B800007460D4600260024002000900190082012
:100B9000A449086010204860402088600020C86098
:100BA0004FF480600861084602F0FEFC1020FFF759
:100BB000D2FF044614B12046BDE8FC819A48008863
:100BC0000004984908603720486040208860002071
:100BD000C8604FF480600861084602F0E5FC3720E9
:100BE000FFF7B9FF04460CB12046E5E74FF0FF30B0
:100BF0008E49086008204860302088600220C86064
:100C00000020086101204861084602F0F6FC00203F
:100C10008449086033204860402088600020C86014
:100C20004FF480600861084602F0BEFC3320FFF7F5
:100C300092FF04460CB12046BEE70CE04FF40010D2
:100C400002F024FD38B102F0FAFC4DF82600761CC3
:100C5000012E00D906E072488038406B40F22A61CC
:100C60000842EBD000BF082002F010FD28B1082098
:100C700002F016FD042420469EE7022002F006FD45
:100C800028B1022002F00CFD0224204694E7202027
:100C900002F0FCFC28B1202002F002FD06242046D0
:100CA0008AE74FF4007002F0F1FC30B14FF40070AD
:100CB00002F0F6FC072420467EE740F2FF5002F0E7
:100CC000EFFC00980006009901F47F4140EA012002
:100CD000009901F47F0140EA1120009940EA116077
:100CE000686001980006019901F47F4140EA012003
:100CF000019901F47F0140EA1120019940EA116055
:100D00002860204658E77CB5054600240020009066
:100D1000019002F067FC10F0007F02D00E24204604
:100D20007CBD4149098888B26946FFF727FF044620
:100D30000CB12046F4E7012D35D1019810F4802F35
:100D40002ED03948008800043649086037204860B2
:100D5000402088600020C860A8020861084602F0B0
:100D600023FC3720FFF7F7FE04460CB12046D7E7F7
:100D700002202C490860062048604020886000203E
:100D8000C8604FF480600861084602F00DFC062040
:100D9000FFF7E1FE04460CB12046C1E72046BFE75D
:100DA00025242046BCE7019810F4803F42D01E481D
:100DB000008800041B490860372048604020886094
:100DC0000020C8604FF480600861084602F0ECFB28
:100DD0003720FFF7C0FE04460CB12046A0E70020F4
:100DE0001049086006204860402088600020C860E4
:100DF0004FF480600861084602F0D6FB0620FFF73A
:100E0000AAFE0446A4B120468AE700000010014073
:100E1000001401400020001000F0001044040240C3
:100E200080800140E88600200C000020FC86002025
:100E3000204675E72524204672E770B50446002554
:100E4000F7480068032802D12725284670BDF448DA
:100E5000006838B1F2480068012803D0F048006803
:100E600002282ED1B4F5805F02D127252846EDE770
:100E7000B4F5006F14D10120FFF745FF054605BB0F
:100E80000120E849087500200860486088604FF438
:100E90000060C86000200861084602F045FB10E0D1
:100EA0000020FFF730FF05465DB90120DD490875D8
:100EB0000020086048608860C8600861084602F049
:100EC00033FB2846C2E770B504460025D6480460C7
:100ED0000720D5494860402088600020C8604FF452
:100EE00080600861084602F05FFB0720FFF733FED1
:100EF0000546284670BD30B5014600200022C84B8B
:100F00001B7881F84E30C94B1B88A1F84C30C84B78
:100F10001B681A0E93090B70C2F383034B7002F027
:100F200003038B70C24B1B68C3F30742CA70C04BEC
:100F30001B88C3F307220A71BD4B1A784A715B689C
:100F40001A0E1301CB80BA4B5B68C3F30742CB8800
:100F500043EA1213CB8002F00F030B72B44B9B8851
:100F6000C3F30722D3094B72C2F380138B72C2F30F
:100F70004013CB72C2F300130B7300234B73A84BC7
:100F80001B681BB1A64B1B68012B3CD193071B0DA3
:100F90000B61A74B1A790B6943EA82030B61A44BDF
:100FA0009B681A0E0B6943EA92130B61C2F3C203EA
:100FB0000B7502F007034B759D4B9B68C3F307420B
:100FC00053098B75C2F38203CB7593075B0F0B76C6
:100FD000974B1B89C3F307220B7E43EAD2130B7690
:100FE0000B695B1C4B640C7E4B6CA41C0125A5405B
:100FF0006B434B640C7A0123A3408B64D1E9113419
:1010000063434B6421E0864B1B68022B1DD1884B48
:101010001A7993069B0A0B61854B9B681A0E0B6924
:1010200043EA02230B61824B9B68C3F307420B69BF
:1010300013430B617E4B1B89C3F307220B695B1CB7
:10104000DB044B644FF400738B64C2F3801301F82C
:10105000193F93065B0E4B70754B1A7A4B7843EA37
:10106000D2134B7002F07F038B70714BDB681A0E4A
:10107000D309CB70C2F341130B71C2F382034B71DE
:1010800093071B0F8B716A4BDB68C3F307428B79A5
:1010900043EA92138B71C2F34013CB7100230B729E
:1010A00002F001034B72624B9B89C3F30722D30901
:1010B0008B72C2F38013CB72C2F340130B73C2F373
:1010C00000134B73C2F381038B7302F00303CB73E2
:1010D000574B1A7B53080B7401234B74554B1B68F9
:1010E0001A0ECA74A1F11901524B1B68C3F30742CF
:1010F0004FEA0224CC854F4B1B88C3F30722CB8DCC
:1011000043EA0203CB854B4B1A784FEA02640C6327
:101110005B684FEA13620B6B43EA02440C63454B76
:101120005B68C3F307420B6B43EA02240C63414B39
:101130009B88C3F307220B6B43EA02030B633D4B0F
:101140001A794FF034035A543A4B9B684FEA1362B2
:101150004FF035035A54374B9B68C3F307424FEAAD
:1011600002648C63334B1B89C3F307228B6B43EA06
:1011700002448C632F4B1A7A8B6B43EA02248C63F4
:101180002C4BDB684FEA13628B6B43EA02038B63E1
:10119000284BDB68C3F307424FF03C035B5C43EA38
:1011A00012144FF03C035C544FEA02734FEA13549D
:1011B000CC87204B9B89C3F30722CB8F43EA0203E2
:1011C000CB871C4B1A7B4FEA52044FF040035C5410
:1011D0004FF001044FF041035C5430BD70B5002561
:1011E0001548446B01E01448446B14F0450FFAD0E5
:1011F00014F0040F05D00325042002F051FA28460C
:1012000070BD14F0010F05D00125012002F048FA4D
:101210002846F5E740F2FF5002F042FA2846EFE791
:1012200008000020D0860020E88600200C00002066
:101230005086002060860020008001402DE9F041AA
:1012400006460F464FF00008F948456B01E0F848A4
:10125000456B15F0450FFAD015F0040F07D04FF08D
:101260000308042002F01CFA4046BDE8F08115F0A6
:10127000010F06D04FF00108012002F011FA40469C
:10128000F3E702F0ABF9B04203D04FF0100840464C
:10129000EBE740F2FF5002F003FA002002F0A2F95F
:1012A000044614F4604F03D1200C38804046DCE73C
:1012B00014F4005F01D01320D7E714F4804F01D05D
:1012C0001020D2E714F4004F01D00F20CDE74046A4
:1012D000CBE738B500240120009002F050F910B996
:1012E0002524204638BDD3480068042828D0002093
:1012F000D149086002204860C02088600020C86092
:101300004FF480600861084602F04EF9FFF766FF6F
:1013100004460CB12046E5E7002002F063F9C74916
:101320000860042002F05EF9C4494860082002F019
:1013300059F9C24988600C2002F054F9BF49C860CD
:10134000BC48006858B1BB480068012807D0B948BC
:101350000068062803D0B7480068022816D100208C
:10136000B549086003204860402088600020C860BC
:101370004FF480600861084602F016F969460320C0
:10138000FFF75CFF04460CB12046ABE7A9480068B4
:1013900004282ED0BDF80000A9490860BDF800005F
:1013A0000004A549086009204860C020886000202A
:1013B000C8604FF480600861084602F0F5F8FFF756
:1013C0000DFF04460CB120468CE7002002F00AF91C
:1013D0009C490860042002F005F99A4948600820F9
:1013E00002F000F9974988600C2002F0FBF895495B
:1013F000C8600024204675E770B500258C48446B12
:1014000001E08B48446B14F0450FFAD014F0040F40
:1014100005D00325042002F043F9284670BD40F2B0
:10142000FF5002F03DF92846F8E770B500264FF46A
:1014300080357F48446B02E06D1E7D48446B14F09C
:10144000450F01D1002DF7D115B114F0040F05D0CF
:101450000326042002F024F9304670BD14F0400F3A
:1014600005D00026402002F01BF93046F5E7304653
:10147000F3E770B500254FF4803400E0641E24B11A
:10148000802002F003F90028F8D014B9032528467B
:1014900070BD40F2FF5002F003F92846F8E72DE94D
:1014A000F0410024002600250027A046B22066490E
:1014B00008750020086048608860C86008610846B8
:1014C00002F032F8032002F04FF8012002F049F850
:1014D00000205949086048608860C8604FF4806007
:1014E0000861084602F060F8FFF7C3FF044614B134
:1014F0002046BDE8F0814FF4D5704F4908600820C0
:101500004860402088600020C8604FF48060086117
:10151000084602F049F8FFF788FF04462CB901207D
:10152000444908604FF0804812E0002042490860BA
:1015300037204860402088600020C8604FF48060F9
:101540000861084602F030F83720FFF704FB044634
:10155000002039490860372048604020886000201A
:10156000C8604FF480600861084602F01DF837201B
:10157000FFF7F1FA0446002C4AD136E000202E494C
:10158000086037204860402088600020C8604FF421
:1015900080600861084602F007F83720FFF7DBFAA1
:1015A00004460CB12046A4E7284848EA0000224936
:1015B000086029204860402088600020C8604FF4FF
:1015C00080600861084601F0EFFFFFF715FF044651
:1015D0000CB120468DE7002002F004F806460120F9
:1015E00080EAD67080F001076D1C1FB94FF6FF70BE
:1015F0008542C3D34FF6FF70854202D31B24204699
:1016000077E706F08040060002D002200949086012
:1016100020466EE710B50024FFF70FFAFFF778FABF
:1016200001F074FFFFF73BFF04468CB1204610BD6C
:101630000080014008000020E8860020608600202D
:101640000C00002050860020D08600200000108072
:10165000FFF73FFE04460CB12046E8E70120FE49B3
:1016600008750020086048608860C8600861084606
:1016700001F05AFF1CB9F948FFF73DFC044634B9A4
:10168000F649B1F84C100804FFF71DFC044624B9D4
:101690004FF40060FFF7D1FB04462046C7E770B562
:1016A00004460025EE4800880004EE49886040F2B8
:1016B0004D40C8600D20FFF74EFA05460DB1284693
:1016C00070BDE848406920602846F9E708B5002069
:1016D00000906846FFF7E3FF08B1FF2008BD0098BF
:1016E000C0F34320FAE710B50424FFF7EFFF0446E8
:1016F000042C01D1002010BDFF2C01D10220FAE7FB
:101700000120F8E710B50024002001F02DFF20464D
:1017100010BD70B5044600250026002001F062FFD0
:1017200010F0007F02D00E25284670BD4020CE4923
:10173000086010204860402088600020C8604FF496
:1017400080600861084601F02FFF1020FFF703FAC0
:1017500005460DB12846E8E7C14800880004C249A3
:10176000086037204860402088600020C8604FF43F
:1017700080600861084601F017FF3720FFF7EBF99A
:1017800005460DB12846D0E74FF0FF30B749086055
:1017900040204860602088600220C8600020086106
:1017A00001204861084601F028FF0020AE4908608A
:1017B0000D204860402088600020C8604FF48060A1
:1017C0000861084601F0F0FE0D20FFF7C4F9054658
:1017D0000DB12846A9E70EE04FF4004001F056FF96
:1017E00048B1002604E001F02AFF44F82600761CE8
:1017F000082EF8D320349B48406B40F22A610842FF
:10180000EAD0082001F042FF28B1082001F048FF8B
:101810000425284689E7022001F038FF28B102207C
:1018200001F03EFF022528467FE7202001F02EFF31
:1018300028B1202001F034FF0625284675E74FF433
:10184000007001F023FF30B14FF4007001F028FF69
:101850000725284669E703E001F0F1FE2060241D1A
:101860004FF4001001F012FF0028F5D140F2FF50B4
:1018700001F016FF284658E770B5044600260025FB
:101880007B48FFF746FF06460EB1304670BD7848EC
:1018900000788509257076480078C0F3401565709A
:1018A00073488578280260807148C578608828432D
:1018B00060806F480579280660606D4845796068EA
:1018C00040EA054060606A488579606840EA052022
:1018D00060606748C5796068284360606448057A3D
:1018E0002572457A6572807A0509A5726048C57AC5
:1018F0002802A0815E48057BA0892843A0815C481E
:10190000407B8508A5735A48407B00F00305E573CA
:101910003046BBE72DE9F04107460D461446002648
:1019200000205449087054490860544908604D49E2
:10193000C86253480068022801D104026D0A4A486F
:101940000460102048494860402088600020C8603A
:101950004FF480600861084601F026FE1020FFF772
:10196000FAF8064616B13046BDE8F0814FF0FF3078
:101970003E49086008464460902088600220C860A4
:101980000020086101204861084601F036FE364813
:101990000560112034494860402088600020C860FC
:1019A0004FF480600861084601F0FEFD1120FFF74A
:1019B000D2F806460EB13046D6E70121080201F002
:1019C000E3FD012001F0EDFD21463846FFF74AF81E
:1019D0003046C9E72DE9F04180460D4614461E46C3
:1019E000002700202349087023490860012023496B
:1019F000086000201B49C86221480068022801D104
:101A000004026D0A184804601020174948604020FD
:101A100088600020C8604FF480600861084601F0CB
:101A2000C3FD1020FFF797F8074617B13846BDE809
:101A3000F0814FF0FF300D49086006FB04F048606C
:101A4000902088600220C860002008610120486161
:101A5000084601F0D2FD15E0D086002080860020E7
:101A60000C00002000800140E8860020FC86002059
:101A700070860020140000201800002010000020B4
:101A800008000020F94805601220F849486040200D
:101A900088600020C8604FF480600861084601F04B
:101AA00083FD1220FFF757F807460FB13846BEE70F
:101AB0000121080201F068FD012001F072FD06FB22
:101AC00004F14046FEF7CEFF3846B0E710B50024DB
:101AD00000BFFEF7C2FF30B9E548006818B9E54815
:101AE00000780028F5D0E348007810B1E14800788C
:101AF00010BD2046FCE72DE9F04107460D4614468F
:101B000000260020DB490870D9490860DA490860DE
:101B1000DA49C862DA480068022801D104026D0A75
:101B2000D24804601020D1494860402088600020DD
:101B3000C8604FF480600861084601F035FD102050
:101B4000FFF709F8064616B13046BDE8F081C748F0
:101B500005601820C5494860402088600020C860A2
:101B60004FF480600861084601F01EFD1820FEF762
:101B7000F2FF06460EB13046E7E74FF0FF30C149AD
:101B8000086008464460902088600020C8600861B2
:101B900001204861084601F030FD0121080201F0F2
:101BA000F3FC21463846FEF788FF012001F0F9FCDE
:101BB0003046CAE72DE9F84380460F4615461E46D3
:101BC000002400200090AB490870A949086001205A
:101BD000A94908600020A949C862A94800680228EC
:101BE00001D105027F0AA148056010209F49486085
:101BF000402088600020C8604FF48060086108467B
:101C000001F0D2FC1020FEF7A6FF044614B12046D6
:101C1000BDE8F8839C480088000494490860372098
:101C20004860402088600020C8604FF480600861F0
:101C3000084601F0B9FC3720FEF78DFF04460CB1D1
:101C40002046E5E78948066017208849486040201B
:101C500088600020C8604FF480600861084601F089
:101C6000A3FC1720FEF777FF04460CB12046CFE710
:101C70007E48076019207D49486040208860002028
:101C8000C8604FF480600861084601F08DFC19209F
:101C9000FEF761FF04460CB12046B9E74FF0FF3074
:101CA0007849086006FB05F04860902088600020B5
:101CB000C860086101204861084601F09EFC0121CE
:101CC000080201F061FC012001F06BFC06FB05F14C
:101CD0004046FEF7F2FE20469AE710B5002400BF0A
:101CE000FEF7BBFE30B96248006818B96148007859
:101CF0000028F5D05F48007810B15E48007810BD2C
:101D000040F2FF5001F0CCFC2046F8E75B48406B06
:101D100010F4405F01D0012070470020FCE710B5AF
:101D2000002400205549886040F24C40C8600C20D7
:101D3000FEF711FF0446204610BD7CB50446002581
:101D40000020019000905048008800044749086036
:101D50000D204860402088600020C8604FF48060FB
:101D60000861084601F020FC4448406B009002E006
:101D70004248406B0090009810F0450FF8D0009852
:101D800010F0040F05D00325042001F089FC28463B
:101D90007CBD009810F0010F05D00125012001F055
:101DA0007FFC2846F4E701F019FC009000980D280C
:101DB00002D010252846EBE740F2FF5001F070FCFE
:101DC000002001F00FFC01900198C0F34320207027
:101DD0002E490198084201D12846D9E7019810F010
:101DE000004F01D01C20D3E7019810F0804F01D0A4
:101DF0000920CDE7019810F0005F01D00A20C7E765
:101E0000019810F0805F01D00B20C1E7019810F01D
:101E1000006F01D00C20BBE7019810F0806F01D05B
:101E20000D20B5E7019810F0807F01D00E20AFE7BC
:101E3000019810F4000F01D00F20A9E7019810F4C9
:101E4000800F01D01020A3E7019810F4001F01D0EB
:101E500011209DE7019810F4801F01D0122097E710
:101E6000019810F4002F13D0132091E7E88600208A
:101E70001800002014000020100000200080014005
:101E800008000020FC8600200C00002008E0FFFD78
:101E9000019810F4802F01D0142079E7019810F4F4
:101EA000003F01D0152073E7019810F4803F01D066
:101EB00016206DE7019810F4004F01D0172067E756
:101EC000019810F4804F01D0182061E7019810F4B8
:101ED000005F01D019205BE7019810F0080F01D0D6
:101EE0001A2055E7284653E72DE9FC4105460E46E2
:101EF000002400270020019000905A4840682021CB
:101F000011EA105F03D125242046BDE8FC81564824
:101F10004068C0B2801C5549B1FBF0F00190002030
:101F200001F060FB10F0007F02D00E242046ECE7A9
:101F30004F480068022801D16D0A760A4C480068B3
:101F400038B14B480068012803D04948006802288E
:101F50002BD14848056020204649486040208860D1
:101F60000020C8604FF480600861084601F01CFB47
:101F70002020FEF7F0FD04460CB12046C5E73D48A1
:101F8000066021203B494860402088600020C860EE
:101F90004FF480600861084601F006FB2120FEF73F
:101FA000DAFD04460CB12046AFE700203149086055
:101FB00026204860402088600020C8604FF4806080
:101FC0000861084601F0F0FA2620FEF7C4FD044639
:101FD0000CB1204699E7002700E07F1C019887425A
:101FE000FBD36846FFF7A9FE044603E06846FFF707
:101FF000A4FE04463CB99DF800000728F6D09DF8E1
:1020000000000628F2D020467FE710B51A48006885
:1020100001280BD100201449886040F24C40C86070
:102020000C20FEF798FD1549087002E000201349C6
:1020300008704FF4807001F040FB00214FF4807075
:1020400001F0A2FA01200E4908600C48007810BD8A
:102050000146002002E04910421CD0B20129FAD109
:10206000704700005086002000800140C0D401006D
:1020700008000020E8860020100000201400002046
:10208000180000200948804709480047FEE7FEE79E
:10209000FEE7FEE7FEE7FEE7FEE7FEE7FEE7FEE718
:1020A00004480549054A064B70470000C13800083E
:1020B0003101000840880020408E0020408A002026
:1020C000408A002031490143314A1160704770B5A0
:1020D000002100230F22C4780CB32D4C246804F493
:1020E000E064C4F5E064210AC1F10403CA40447805
:1020F00004FA03F18478144021430901254C067841
:10210000A155047804F01F050124AC4005786D1139
:102110004FF0E02606EB8505C5F8004109E004789C
:1021200004F01F050124AC401B4D0678761145F8DC
:10213000264070BD194A0A400243154B1B1F1A6006
:10214000704739B1124A121D12680243104B1B1D11
:102150001A6006E00E4A121D126882430C4B1B1DCA
:102160001A607047042808D14FF0E021096941F056
:1021700004014FF0E022116107E04FF0E02109690E
:1021800021F004014FF0E022116170470000FA05D0
:102190000CED00E000E400E080E100E080FFFF1FC4
:1021A00010B50446CA48844208D10121042000F039
:1021B00027FB0021042000F023FB46E0C5488442B1
:1021C00008D10121082000F01BFB0021082000F0AD
:1021D00017FB3AE0C048844208D10121102000F0EA
:1021E0000FFB0021102000F00BFB2EE0BB488442C7
:1021F00008D10121202000F003FB0021202000F065
:10220000FFFA22E0B648844208D10121402000F0C4
:10221000F7FA0021402000F0F3FA16E0B1488442BA
:1022200008D10121802000F0EBFA0021802000F08D
:10223000E7FA0AE0AC48844207D10121801500F09A
:10224000DFFA0021A01500F0DBFA10BD10B5012166
:10225000084600F0D5FA0021012000F0D1FA10BDA7
:102260002DE9F0410246002500260020002300242D
:10227000002791F803C00CF00F0591F803C01CF083
:10228000100F03D091F802C04CEA050591F800C088
:10229000BCF1000F31D0146800202BE04FF0010C8E
:1022A0000CFA00F3B1F800C00CEA03069E4220D1FC
:1022B00083004FF00F0C0CFA03F7BC4305FA03FC44
:1022C0004CEA040491F803C0BCF1280F06D14FF08A
:1022D000010C0CFA00FCC2F814C00AE091F803C02B
:1022E000BCF1480F05D14FF0010C0CFA00FCC2F80C
:1022F00010C0401C0828D1D31460B1F800C0BCF154
:10230000FF0F34DD546800202EE000F1080C4FF080
:10231000010808FA0CF3B1F800C00CEA03069E426B
:1023200021D183004FF00F0C0CFA03F7BC4305FAE0
:1023300003FC4CEA040491F803C0BCF1280F05D15A
:1023400000F1080C08FA0CF8C2F8148091F803C0E8
:10235000BCF1480F07D100F1080C4FF0010808FA52
:102360000CF8C2F81080401C0828CED35460BDE899
:10237000F0814FF6FF710180022181700421C1704C
:1023800070470246002093680B4201D0012000E014
:10239000002070470146886880B2704702460020DE
:1023A000D3680B4201D0012000E0002070470146B5
:1023B000C86880B2704701617047416170470AB1D7
:1023C000016100E041617047C16070474FF48032A5
:1023D0000A43826181618261826982697047024633
:1023E0000020424B18684FF68073184040EA0210F4
:1023F00008433E4B186070473D49C8617047F0B5CF
:102400000A46002300240021002500F00046B6F112
:10241000004F02D1354EF16901E0344E7168C0F3CE
:10242000034583B200F44016B6F5401F08D121F0F1
:1024300070612E4E766826F070662C4F7E6012E03A
:1024400000F48016B6F5801F06D1032606FA05F4BF
:10245000A14341F0706106E0460D360103FA06F62D
:10246000B14341F0706122B1460D360103FA06F620
:10247000314300F00046B6F1004F02D11B4EF1612E
:1024800001E01A4E7160F0BD30B500228B071C0FC1
:102490000F2303FA04F2154B08338C1053F8243041
:1024A0009343124C08348D1044F8253023468C1089
:1024B00053F824308C07240F00FA04F423430B4C08
:1024C00008348D1044F8253030BD0A490860704743
:1024D00000080140000C01400010014000140140C0
:1024E00000180140001C0140002001400000014094
:1024F00000002042DC002042DD48006840F001007E
:10250000DB49086008464068DA490840D849486015
:1025100008460068D8490840D54908600846006860
:1025200020F4802008600846406820F4FE004860DF
:102530004FF41F0088607047CD49096821F480314D
:10254000CB4A11601146096821F480211160B0F571
:10255000803F03D0B0F5802F0ED106E0C449096852
:1025600041F48031C24A116007E0C149096841F471
:10257000A021BF4A116000E000BF00BF704710B546
:1025800001460022002300204A11012A02D1B84C42
:10259000236806E0022A02D1B54C236A01E0B44C5C
:1025A000636A01F01F02012494401C4201D0012003
:1025B00000E0002010BD38B5002000900024002568
:1025C00000BF3120FFF7DBFF05460098401C00905C
:1025D0000098B0F5A06F01D0002DF2D03120FFF7A8
:1025E000CEFF08B1012400E00024204638BD01469A
:1025F00000209F4A106820F0F80040EAC1001060F7
:1026000070479E490860704702460020984B586802
:1026100020F47C1042EA01031843954B5860704740
:1026200096490866704701460020914A506820F09C
:1026300003000843506070478D48406800F00C006C
:102640007047014600208A4A506820F0F000084395
:102650005060704701460020854A506820F4E060D1
:1026600008435060704701460020814A506820F4BA
:10267000605040EAC1005060704729B17C4A527AEC
:1026800002437B4B5A7204E0794A527A8243784B78
:102690005A7270477A490860704701460020744AB0
:1026A000506820F440400843506070470021754A4C
:1026B00011706F4A82F82010012802D0042808D136
:1026C00003E001216F4A117004E005216D4A117089
:1026D00000E000BF00BF70476B4908607047644965
:1026E000096A0143624A11627047674944390860C8
:1026F000704730B500210022002400235C4D6D6836
:1027000005F00C0121B1042905D0082923D105E0E9
:102710005E4D056022E05D4D05601FE0544D6D6823
:1027200005F47012524D6D6805F48034022505EBF6
:1027300092421CB9564D554305600BE04C4D6D68F7
:1027400015F4003F03D0524D5543056002E04F4D54
:102750005543056002E04D4D056000BF00BF444D8C
:102760006D6805F0F00109094A4D6B5C0568DD40B4
:1027700045603F4D6D6805F4E061090A454D6B5CAD
:102780004568DD4085603A4D6D6805F46051C90AC1
:10279000404D6B5C4568DD40C560354D6D6805F4A6
:1027A0004041890B3C4D6B5CC568B5FBF3F5056199
:1027B00030BD29B12E4A526902432D4B5A6104E0C3
:1027C0002B4A526982432A4B5A61704729B1284AE1
:1027D00092690243264B9A6104E0254A926982433A
:1027E000234B9A61704729B1214AD2690243204B99
:1027F000DA6104E01E4AD26982431D4BDA617047F8
:1028000029B11B4AD2680243194BDA6004E0184A26
:10281000D2688243164BDA60704729B1144A1269B4
:102820000243134B1A6104E0114A12698243104BB0
:102830001A61704714494039086070470F49C864ED
:1028400070470B49C87170470948406A40F0807072
:1028500007494862704701460020054A92680A42CB
:1028600001D0012000E000207047014988727047C4
:10287000001002400000FFF8FFFFF6FE0000424299
:10288000D8004242201002408004424200127A00E6
:1028900000093D001C0000202C00002010B504465B
:1028A000FB48844209D101218803FFF7A9FF0021D9
:1028B0004FF48040FFF7A4FF32E0F648844209D18C
:1028C00001214804FFF7A9FF00214FF40030FFF772
:1028D000A4FF25E0F048844209D101218804FFF7D4
:1028E0009CFF00214FF48020FFF797FF18E0EB4892
:1028F000844209D10121C804FFF78FFF00214FF462
:102900000020FFF78AFF0BE0E548844208D101214F
:102910000805FFF782FF00214FF48010FFF77DFFCD
:1029200010BD2DE9F04786B005460E460024A246AC
:1029300000BFA1460027B08900B100BF2F462C8AF6
:102940004CF6FF700440F08804432C82AC894EF6AC
:10295000F3100440B0883189084371890843044367
:10296000AC81AC8A4FF6FF400440B0890443AC828E
:1029700001A8FFF7BEFEC648874202D1DDF810A0CD
:1029800001E0DDF80CA0A88910F4004F08D00AEB94
:10299000CA0000EB0A1031684900B0FBF1F807E00B
:1029A0000AEBCA0000EB0A1031688900B0FBF1F8AD
:1029B0006420B8FBF0F004012009642101FB1089B8
:1029C000A88910F4004F08D0322000EBC900B0FBFA
:1029D000F1F000F00700044308E0322000EB09109A
:1029E0006421B0FBF1F000F00F0004432C8106B02D
:1029F000BDE8F0874FF41651016000218180C1804D
:102A000001810C21418100218181704710B502466E
:102A10000020108A4FF2FF0318400B884C88234394
:102A20008C882343CC8823431843108210BD002197
:102A3000018041808180C180704721B1828942F448
:102A40000052828104E082894DF6FF731A40828130
:102A50007047F0B503460024002600250020A1F5AC
:102A600010676A3F00D100BF1846C1F3421401F05D
:102A70001F06012707FA06F5012C01D10C3004E0EE
:102A8000022C01D1103000E014301AB107682F4336
:102A9000076002E00768AF430760F0BD1AB1838AA0
:102AA0000B43838202E0838A8B4383827047028ACE
:102AB0004FF6F0731A400282028A0A43028270477C
:102AC00082894FF2FF731A40828182890A43828190
:102AD000704721B1828942F00202828104E082893A
:102AE0004FF6FD731A4082817047028A4FF6DF73FA
:102AF0001A400282028A0A430282704721B1028A86
:102B000042F48042028204E0028A4BF6FF731A40CC
:102B100002827047C1F308028280704701468888AC
:102B2000C0F308007047818941F00101818170473D
:102B3000028BD2B20283028B42EA012202837047E7
:102B4000028B02F47F420283028B0A4302837047A6
:102B500021B1828A42F02002828204E0828A4FF60A
:102B6000DF731A408282704721B1828A42F01002DC
:102B7000828204E0828A4FF6EF731A4082827047A5
:102B800021B1828A42F00802828204E0828A4FF6F2
:102B9000F7731A408282704721B1828942F4004261
:102BA000828103E08289C2F30E028281704721B1E3
:102BB000828A42F40062828204E0828A4FF2FF73CA
:102BC0001A4082827047828A4FF6FB731A408282D3
:102BD000828A0A438282704721B1828A42F00202CD
:102BE000828204E0828A4FF6FD731A408282704727
:102BF00002460020B1F5007F00D100BF13880B42D0
:102C000001D0012000E00020704701F40072B2F50D
:102C1000007F00D100BFCA430280704770B50246F2
:102C20000024002300250020A1F510666A3E00D193
:102C300000BFC1F3421501F01F03012606FA03F39A
:102C4000012D02D19689334006E0022D02D1168A69
:102C5000334001E0968A33400C12012606FA04F450
:102C60001688344013B10CB1012000E0002070BD83
:102C700010B500220023A1F510646A3C00D100BF0A
:102C80000A1201249440A3B2DC43048010BD00006A
:102C9000003801400044004000480040004C004023
:102CA0000050004030B943F2DB014FF0204242F8BF
:102CB000201005E043F2D2014FF0204242F82010EC
:102CC0006FF07042411C4FF0204343F82120114621
:102CD0001A4602EB8002C2F80411704710280AD18C
:102CE00018214FF020421166402151664FF0FC310F
:102CF0009166D16610E01821F84A11604FF040014A
:102D00004FF02042C2F884104FF0FC31F44A1160B9
:102D10004FF02042C2F88C1070471820F14908602B
:102D20004FF000004FF02041C1F8A4004FF0FC30FC
:102D3000ED49086001F10401086001F10401086037
:102D40007047D0E901121143C2681143026911436F
:102D50004269114382691143C2691143026A1143F6
:102D6000426A1143826A1143C26A1143026B1143E2
:102D70004FF02043026843F822108168082908D1E7
:102D80001A46016852F8211041F04001026843F8E8
:102D90002210416B0968426B526841EA0211426B92
:102DA000926841EA0221426B928941EA0241426BF8
:102DB000128A41EA0251426B127D41EA0261426B82
:102DC000926911430268521C4FF0204343F82210CD
:102DD000C16AB1F5804F1AD1816B0968826B526864
:102DE00041EA0211826B926841EA0221826B128AE7
:102DF00041EA0251826B127D41EA0261826B926963
:102E00001143026803EB8202C2F8041108E06FF07C
:102E100070414FF02043026803EB8202C2F80411B4
:102E2000704730B5002100220023446844F00804B4
:102E300085682C43C5682C4305692C43456944EAE1
:102E40004524856944EA4531C4692468C5696D68CB
:102E500044EA0524C5692D8944EA0544C5692D7BEA
:102E600044EA0562046A2468056A6D6844EA052438
:102E7000056A2D8944EA0544056A2D7B44EA056309
:102E80000468102C05D14FF020442166A266E36649
:102E900007E0924C21604FF02044C4F88820934C06
:102EA000236030BD016841F01001426841EA4221CF
:102EB000826841EA42318B4A1160C1680968C26880
:102EC000526841EA0221C268128941EA0241C2689D
:102ED000127B41EA0261844A116001690968026952
:102EE000526841EA02210269128941EA02410269FB
:102EF000127B41EA02617E4A1160416909684269B8
:102F0000526841EA02214269128941EA024142695A
:102F1000127B41EA02614FF02042C2F8B0107047C4
:102F2000002101600221416000218160C1600161D6
:102F300041618161C16101624FF480514162490088
:102F400081620021C16201630F21426B1160426BFB
:102F50005160FF21426B91600F21426BD160426B47
:102F60001161426B51610021426B91610F21826BB3
:102F70001160826B5160FF21826B91600F21826B27
:102F8000D160826B1161826B51610021826B916112
:102F9000704710210160002141608160C1600161C2
:102FA00041618161FC21C2691160C2695160C269DD
:102FB0009160C269D160026A1160026A5160026A5E
:102FC0009160026AD16070470021016041608160B8
:102FD000FC21C2681160C2685160C2689160C26819
:102FE000D1600269116002695160026991600269F1
:102FF000D1604269116042695160426991604269E1
:10300000D160704751B14FF0204252F8202042F079
:1030100001024FF0204343F8202009E04FF0204206
:1030200052F82020334B1A404FF0204343F8202021
:10303000704799B1102808D14FF02042126E42F02B
:1030400004024FF020431A661DE0244A126842F041
:1030500004024FF02043C3F8802014E0102809D167
:103060004FF02042126E234BDB1E1A404FF02043DC
:103070001A6608E0194A12681F4B02EA03024FF071
:103080002043C3F88020704740B11649096841F0D9
:1030900004014FF02042C2F8A01008E0114909686D
:1030A000154A01EA02014FF02042C2F8A010704711
:1030B00099B1102808D14FF02042126E42F0400220
:1030C0004FF020431A662DE0044A126842F0400295
:1030D0004FF02043C3F8802024E00FE0800000A0E0
:1030E000880000A0A00000A0A80000A08C0000A004
:1030F000AC0000A0FEFF0F00FBFF0F00102808D15E
:103100004FF02042126E684B1A404FF020431A666F
:1031100008E0664A1268644B02EA03024FF020435B
:10312000C3F88020704701460020102903D14FF0DA
:103130002042506F01E05E4A1068704710B5F2B14E
:10314000102807D14FF020435B6E0B434FF0204413
:10315000636632E0B0F5807F08D1564B1B6843EAC6
:1031600001034FF02044C4F8843026E0524B1B6822
:1031700043EA01034FF02044C4F8A4301DE01028B6
:1031800007D14FF020435B6E8B434FF020446366C2
:1031900013E0B0F5807F08D1464B1B6823EA01039A
:1031A0004FF02044C4F8843007E0434B1B6823EA07
:1031B00001034FF02044C4F8A43010BD10B50246FE
:1031C00000200023102A03D14FF02044636E07E053
:1031D000B2F5807F02D1374C236801E0364C23687A
:1031E0000B4201D0012000E0002010BD102807D1C3
:1031F0004FF02042526E8A434FF020435A6613E04C
:10320000B0F5807F08D12B4A126822EA01024FF004
:103210002043C3F8842007E0274A126822EA01020B
:103220004FF02043C3F8A420704770B50246002039
:10323000002300240025102A03D14FF02046736E8E
:1032400007E0B2F5807F02D11A4E336801E01A4ED2
:10325000336803EA010403EAD10514B10DB101207A
:1032600000E0002070BD102808D14FF02042526EBF
:1032700022EAD1024FF020435A6613E0B0F5807F76
:1032800008D10C4A126822EAD1024FF02043C3F859
:10329000842007E0084A126822EAD1024FF0204356
:1032A000C3F8A42070470000BFFF0F00800000A0FB
:1032B000940000A0840000A0A40000A001684FF6C4
:1032C000FE72114001600021016041608160C160B7
:1032D0008C49884208D18B490839496841F00F016F
:1032E000884A083A51608AE086491431884208D1F8
:1032F00084490839496841F0F001824A083A51602E
:103300007DE080492831884208D17E4908394968E2
:1033100041F470617B4A083A516070E079493C3170
:10332000884208D177490839496841F47041754AA3
:10333000083A516063E073495031884208D17149BD
:103340000839496841F470216E4A083A516056E0E4
:103350006C496431884208D16A490839496841F4A6
:103360007001684A083A516049E0664978318842FC
:1033700008D164490839496841F07061614A083AE6
:1033800051603CE06049884206D1011F096841F064
:103390000F01021F116032E05B491431884208D1ED
:1033A0005949091F096841F0F001574A121F11607D
:1033B00025E055492831884208D15349091F096839
:1033C00041F47061504A121F116018E04E493C31BF
:1033D000884208D14C49091F096841F470414A4AA2
:1033E000121F11600BE048495031884207D146490D
:1033F000091F096841F47021434A121F1160704788
:1034000010B50022026847F6F0739A430C6A8B6885
:1034100023430C6923434C6923438C692343CC69C0
:1034200023434C6A23438C6A23431A430260CB68CC
:1034300043600B6883604B68C36010BD002101606E
:1034400041608160C160016141618161C16101626E
:1034500041628162704721B1026842F0010202605C
:1034600004E002684FF6FE731A40026070471AB11A
:1034700003680B43036002E003688B4303607047FB
:10348000416070470146486880B27047014600209D
:10349000002211F0805F03D01B4B083B1A6802E04A
:1034A000184B083B1A680A4201D0012000E00020B6
:1034B000704710F0805F03D01349091F086002E0D5
:1034C000104908394860704701460020002211F079
:1034D000805F03D00C4B083B1A6802E0094B083BA5
:1034E0001A680A4201D0012000E00020704710F065
:1034F000805F03D00449091F086002E001490839D0
:1035000048607047080002400804024000206C49EF
:10351000086048608860C86048628862C86269481C
:1035200088630020C86370470021654A516847F6E8
:10353000FF629143027D83681A4343681A43C3685C
:103540001A4303681A4303691A4311435C4A5160E2
:10355000704700210175016041608160C1600161B7
:1035600070475949086070475549096821F00301BF
:10357000534A116011460968014311607047504871
:10358000006800F00300704729B14D4AD26B024336
:103590004B4BDA6304E04A4AD26B8243484BDA630E
:1035A00070474A49086070470021454B02689A609D
:1035B0001A46D1686FF30A01D0E901231A43C368A0
:1035C0001A4303691A4311433D4AD16070470021F1
:1035D000016041608160C1600161704738480069E5
:1035E000C0B2704708B5014600200090344814303E
:1035F000084400900098006808BD0021304B026824
:103600005A6242689A621A46D16A21F0F701D0E9FB
:1036100002231A4303691A4343691A431143284A90
:10362000D16270474FF0FF3101600021416081603D
:10363000C1600161416170472148006B70472448B7
:10364000006870472249086070471D48806C7047C9
:103650001E491431086070471C49183108607047D2
:103660001A491C31086070471849203108607047BA
:103670001849086070471849086070470121814364
:10368000164A1160704716490860704701460020CD
:103690000B4A526B0A4201D0012000E00020704723
:1036A00007498863704701460020054A526B0A4269
:1036B00001D0012000E00020704701498863704775
:1036C00000800140FF07C000A00030428C0530425E
:1036D00080800140AC013042B0013042B401304240
:1036E000B801304210B56FF00400FEF73BFD2D48E5
:1036F00000682D49B0FBF1F02C49087008460078AD
:1037000000EB4001C1EBC0104FF6FF7101EAC000B1
:103710002749088010BD0146244A12784A434FF0D9
:10372000E0235A6100229A611A46126942F00102AE
:103730001A6100BF4FF0E022106910F0010F02D0B3
:1037400010F4803FF6D04FF0E022126922F001021F
:103750004FF0E0231A6100229A6170470146144A33
:1037600012884A434FF0E0235A6100229A611A46B8
:10377000126942F001021A6100BF4FF0E0221069A5
:1037800010F0010F02D010F4803FF6D04FF0E0228D
:10379000126922F001024FF0E0231A6100229A61BF
:1037A000704700003400002000127A003000002032
:1037B00032000020704700BFFEE700BFFEE700BFF9
:1037C000FEE700BFFEE7704770477047704710B5CF
:1037D000FEF71BFC10BD10B54FF4A060FEF772FCA5
:1037E00010BD00000CB50020019000906B480068EF
:1037F00040F480306949086000BF6848006800F400
:10380000003000900198401C0190009818B9019870
:10381000B0F5A06FF1D16148006810F4003F02D00C
:103820000120009001E0002000900098012842D182
:103830005B48006840F0100059490860084600687D
:1038400020F0030008600846006840F002000860AD
:1038500052484068514948600846406848600846F8
:10386000406840F4806048600846406820F47C105E
:1038700048600846406840F4E81048600846006820
:1038800040F08070086000BF4448006810F0007F7E
:10389000FAD04248406820F003004049486008469A
:1038A000406840F00200486000BF3C48406800F0BB
:1038B0000C000828F9D10CBD10B5FFF793FF10BD1F
:1038C00010B53648006840F00100344908600846E9
:1038D0004068344908403149486008460068324928
:1038E00008402E4908600846006820F480200860DF
:1038F0000846406820F4FE0048604FF41F008860CE
:10390000FFF7DAFF4FF000602849086010BD10B5DE
:10391000002100200022214B5B6803F00C0121B143
:10392000042906D0082928D107E0214B214C236027
:1039300027E01F4B1F4C236023E0184B5B6803F408
:103940007010164B5B6803F48032022303EB904047
:1039500022B9194B4343174C23600DE00F4B5B68B2
:1039600013F4003F04D0144B4343124C236003E094
:103970000F4B43430F4C236003E00D4B0D4C236072
:1039800000BF00BF054B5B68C3F303130B4CE15C46
:10399000084B1B68CB40074C236010BD0010024051
:1039A000002002400000FFF8FFFFF6FE08ED00E0F7
:1039B00000127A003400002000093D003800002089
:1039C000014600BF704700BF4A4A128812F0400FFC
:1039D000FAD0C2B2474B1B1D1A80704710B586B093
:1039E0000446012144F20400FEF7F0FE4148FEF7D0
:1039F00055FF4FF40070ADF8140003208DF8160049
:103A000018208DF8170005A93B48FEF729FC4FF454
:103A10008060ADF8140004208DF8170005A9364821
:103A2000FEF71EFC25208DF8000003208DF8010014
:103A30008DF8020001208DF803006846FEF747FB71
:103A400001940020ADF80800ADF80A00ADF80C00B4
:103A5000ADF810000C20ADF80E0001A92548FEF7C6
:103A600060FF012240F225512248FEF7F2FF0121BA
:103A70002048FEF7E2FF06B010BD10B540F2255118
:103A80001C48FFF7CBF810B31A48FFF747F8C4B249
:103A90001A48008810F4004F2BD11848008810F401
:103AA000804F0CD00A2C03D000201449088020E05D
:103AB0001248008840F400401049088019E00D2C9D
:103AC00006D10E48008840F480400C49088010E080
:103AD0000A480088C0F30D0009490C5407480088C3
:103AE000401C0649088008460088C72801DD0020E0
:103AF000088010BD00380140000801404800002047
:103B000014870020704700000FB4044910B503AAC1
:103B1000029800F029F810BC5DF814FB4C0000205E
:103B200010B5431C02E010F8011B71B18107FAD1F6
:103B30004FF0013202C88C1A8C4314EAC211F9D03A
:103B4000C01A0A0603D0C01E10BDC01A10BD0A0458
:103B500001D0801E10BD0902FCD0401E10BD704770
:103B60007047704770470000074B70B50D467B44A7
:103B700000F011F80446284600F020F810B14FF08C
:103B8000FF3070BD204670BD55FEFFFF01694A1C25
:103B900002610878704700B58FB0CDE9013100218E
:103BA000059105497944CDE903101146684600F0B6
:103BB0002EF80FB000BD0000E5FFFFFF007B00F016
:103BC00080007047754600F03BF8AE460500694638
:103BD000534620F00700854618B020B5FEF760FA7E
:103BE000BDE820404FF000064FF000074FF00008FE
:103BF0004FF0000B21F00701AC46ACE8C009ACE87F
:103C0000C009ACE8C009ACE8C0098D4670472DE991
:103C1000F04106460024D6E90170F568804602E0CE
:103C20004146B847641C3046A8470028F8D12046D2
:103C3000BDE8F0810446AFF300802046FCF7BFFAF0
:103C400000487047DC87002010B503460C4621462B
:103C50002020FCF755FC40F23F10C01A81B2212011
:103C6000FCF74EFC10BD000000000000000000004A
:103C70000000000000000000183C3C3C1818180030
:103C800018180000000000666666240000000000AE
:103C90000000000000000000006C6CFE6C6C6CFE0C
:103CA0006C6C0000000018187CC6C2C07C0686C67A
:103CB0007C181800000000000000C2C60C1830601C
:103CC000C686000000000000386C6C3876DCCCCC76
:103CD000CC760000000000303030600000000000B2
:103CE00000000000000000000C1830303030303090
:103CF000180C00000000000030180C0C0C0C0C0C10
:103D00001830000000000000000000663CFF3C6628
:103D1000000000000000000000000018187E1818C5
:103D2000000000000000000000000000000000187B
:103D300018183000000000000000000000FE000025
:103D40000000000000000000000000000000000073
:103D50001818000000000000000002060C18306077
:103D6000C0800000000000007CC6C6CED6D6E6C6E5
:103D7000C67C0000000000001838781818181818C1
:103D8000187E0000000000007CC6060C183060C0E1
:103D9000C6FE0000000000007CC606063C060606C3
:103DA000C67C0000000000000C1C3C6CCCFE0C0C1F
:103DB0000C1E000000000000FEC0C0C0FC0E060685
:103DC000C67C0000000000003860C0C0FCC6C6C64B
:103DD000C67C000000000000FEC606060C1830304D
:103DE00030300000000000007CC6C6C67CC6C6C6D7
:103DF000C67C0000000000007CC6C6C67E06060623
:103E00000C780000000000000000181800000018E6
:103E10001800000000000000000018180000001842
:103E2000183000000000000000060C183060301848
:103E30000C0600000000000000000000FE0000FE74
:103E40000000000000000000006030180C060C1894
:103E500030600000000000007CC6C60C1818180076
:103E60001818000000000000007CC6C6DEDEDEDCA4
:103E7000C07C00000000000010386CC6C6FEC6C63C
:103E8000C6C6000000000000FC6666667C666666CA
:103E900066FC0000000000003C66C2C0C0C0C0C29A
:103EA000663C000000000000F86C666666666666A8
:103EB0006CF8000000000000FE66626878686062CE
:103EC00066FE000000000000FE66626878686060C0
:103ED00060F00000000000003C66C2C0C0DEC6C644
:103EE000663A000000000000C6C6C6C6FEC6C6C6CA
:103EF000C6C60000000000003C1818181818181852
:103F0000183C0000000000001E0C0C0C0C0CCCCC6B
:103F1000CC78000000000000E6666C6C78786C6677
:103F200066E6000000000000F060606060606062B3
:103F300066FE000000000000C6EEFEFED6C6C6C645
:103F4000C6C6000000000000C6E6F6FEDECEC6C60D
:103F5000C6C6000000000000386CC6C6C6C6C6C68D
:103F60006C38000000000000FC6666667C606060E3
:103F700060F00000000000007CC6C6C6C6C6C6D6FB
:103F8000DE7C0C0E00000000FC6666667C6C6666DB
:103F900066E60000000000007CC6C660380C06C65D
:103FA000C67C0000000000007E7E5A181818181801
:103FB000183C000000000000C6C6C6C6C6C6C6C67D
:103FC000C67C000000000000C6C6C6C6C6C6C66CD9
:103FD0003810000000000000C6C6C6C6C6D6D6FE11
:103FE0006C6C000000000000C6C66C6C38386C6C4D
:103FF000C6C6000000000000666666663C18181819
:10400000183C000000000000FEC6860C183060C29C
:10401000C6FE0000000000003C3030303030303050
:10402000303C0000000000000080C0E070381C0E32
:1040300006020000000000003C0C0C0C0C0C0C0CE8
:104040000C3C0000000010386CC6000000000000AE
:104050000000000000000000000000000000000060
:10406000000000FF000030301800000000000000D9
:104070000000000000000000000000780C7CCCCCA8
:10408000CC76000000000000E06060786C66666638
:1040900066DC0000000000000000007CC6C0C0C05C
:1040A000C67C0000000000001C0C0C3C6CCCCCCC8E
:1040B000CC760000000000000000007CC6FEC0C0FE
:1040C000C67C000000000000386C6460F060606036
:1040D00060F000000000000000000076CCCCCCCCEA
:1040E000CC7C0CCC78000000E060606C7666666684
:1040F00066E60000000000001818003818181818AC
:10410000183C0000000000000606000E0606060629
:10411000060666663C000000E06060666C78786CBD
:1041200066E6000000000000381818181818181863
:10413000183C000000000000000000ECFED6D6D6BF
:10414000D6D6000000000000000000DC666666664F
:1041500066660000000000000000007CC6C6C6C6FF
:10416000C67C000000000000000000DC6666666699
:10417000667C6060F000000000000076CCCCCCCC07
:10418000CC7C0C0C1E000000000000DC766260603D
:1041900060F00000000000000000007CC660380CE9
:1041A000C67C000000000000103030FC30303030A1
:1041B000361C000000000000000000CCCCCCCCCCB1
:1041C000CC760000000000000000006666666666AF
:1041D0003C18000000000000000000C6C6C6D6D68D
:1041E000FE6C000000000000000000C66C3838388B
:1041F0006CC6000000000000000000C6C6C6C6C6AF
:10420000C67E060CF8000000000000FECC183060EE
:10421000C6FE0000000000000E18181870181818CC
:10422000180E0000000000001818181800181818C0
:104230001818000000000000701818180E18181840
:10424000187000000000000076DC00000000000094
:104250000000000000000000000010386CC6C6C658
:10426000FE0000000000000088420008000000205E
:10427000500000006C010008D842000850000020E7
:10428000F08D000088010008000000000000000020
:10429000000000000000000000000000000000001E
:1042A00000000000000000000102030401020304FA
:1042B00006070809020406080000000000A24A04DC
:1042C00000000000000000000102030406070809C6
:0842D0000000000000000000E6
:0400000508000131BD
:00000001FF
