:020000040800F2
:1000000060070020210300081110000813100008E9
:10001000171000081B1000081F1000080000000047
:100020000000000000000000000000002310000895
:100030002510000800000000271000082910000803
:100040003B0300083B0300083B0300083B03000898
:100050003B0300083B0300083B0300083B03000888
:100060003B0300083B0300083B0300083B03000878
:100070003B0300083B0300083B0300083B03000868
:100080003B0300083B0300083B0300083B03000858
:100090003B0300083B0300083B0300083B03000848
:1000A0003B0300083B0300083B0300083B03000838
:1000B0003B0300083B0300083B0300083B03000828
:1000C0003B0300083B0300083B0300083B03000818
:1000D0003B030008CF1200083B0300083B03000865
:1000E0003B0300083B0300083B0300083B030008F8
:1000F0003B0300083B0300083B0300083B030008E8
:100100003B0300083B0300083B0300083B030008D7
:100110003B0300083B0300083B0300083B030008C7
:100120003B0300083B0300083B0300083B030008B7
:1001300000F002F800F03FF80AA090E8000C8244BA
:100140008344AAF10107DA4501D100F034F8AFF297
:10015000090EBAE80F0013F0010F18BFFB1A43F0A5
:10016000010318476C1400008C140000103A24BFDF
:1001700078C878C1FAD8520724BF30C830C144BF0C
:1001800004680C607047000000230024002500264E
:10019000103A28BF78C1FBD8520728BF30C148BFEA
:1001A0000B607047642901F01981002070471FB56A
:1001B0001FBD10B510BD01F0DBF91146FFF7F7FFC9
:1001C00000F008F801F0F9F903B4FFF7F2FF03BCFF
:1001D00001F020F808B500F0B3FE00F026FF4FF460
:1001E000E13001F025F800F00FF80AE00C2000F0F3
:1001F00049F8009003A0009901F0B0F8642000F0E5
:10020000DBFEF3E725640A0008B50121042000F0B5
:100210002BFC2020ADF8000003208DF802001020F8
:100220008DF803006946394800F068F91020ADF8F0
:10023000000003208DF8020048208DF80300694675
:10024000324800F05BF90220ADF8000003208DF881
:10025000020010208DF8030069462C4800F04EF98A
:100260000420ADF8000003208DF8020010208DF866
:1002700003006946254800F041F92021234800F099
:10028000E8F908BD30B5024600200024204D2C605E
:100290004FF0640101E04C1EA1B20029FBD1002304
:1002A0002DE04FF6FF7404EA40001A4C24680CB1AC
:1002B000441CA0B212F0800F03D00124164D2C6014
:1002C00002E00024144D2C604FF6FF7404EA420251
:1002D0004FF00104114D2C604FF00A0101E04C1E5B
:1002E000A1B20029FBD100240C4D2C604FF00A0173
:1002F00001E04C1EA1B20029FBD15C1CE3B2102B23
:10030000CFDB0124024D2C6030BD0000000801400D
:10031000880121421001214284012142940121429D
:100320000948804709480047FEE7FEE7FEE7FEE789
:10033000FEE7FEE7FEE7FEE7FEE7FEE704480549C5
:10034000054A064B704700001511000831010008EE
:10035000600100206007002060030020600300208F
:1003600031490143314A1160704770B500210023C3
:100370000F22C4780CB32D4C246804F4E064C4F557
:10038000E064210AC1F10403CA40447804FA03F18D
:100390008478144021430901254C0678A15504783E
:1003A00004F01F050124AC4005786D114FF0E026E4
:1003B00006EB8505C5F8004109E0047804F01F0547
:1003C0000124AC401B4D0678761145F8264070BDDF
:1003D000194A0A400243154B1B1F1A60704739B176
:1003E000124A121D12680243104B1B1D1A6006E0D0
:1003F0000E4A121D126882430C4B1B1D1A60704777
:10040000042808D14FF0E021096941F004014FF0C0
:10041000E022116107E04FF0E021096921F00401B9
:100420004FF0E022116170470000FA050CED00E08A
:1004300000E400E080E100E080FFFF1F10B504460B
:10044000CA48844208D10121042000F027FB002182
:10045000042000F023FB46E0C548844208D1012176
:10046000082000F01BFB0021082000F017FB3AE0F9
:10047000C048844208D10121102000F00FFB002168
:10048000102000F00BFB2EE0BB48844208D1012174
:10049000202000F003FB0021202000F0FFFA22E0E2
:1004A000B648844208D10121402000F0F7FA00212B
:1004B000402000F0F3FA16E0B148844208D101214F
:1004C000802000F0EBFA0021802000F0E7FA0AE03B
:1004D000AC48844207D10121801500F0DFFA0021E9
:1004E000A01500F0DBFA10BD10B50121084600F0A0
:1004F000D5FA0021012000F0D1FA10BD2DE9F0411C
:10050000024600250026002000230024002791F841
:1005100003C00CF00F0591F803C01CF0100F03D0BE
:1005200091F802C04CEA050591F800C0BCF1000F3B
:1005300031D0146800202BE04FF0010C0CFA00F3CE
:10054000B1F800C00CEA03069E4220D183004FF0B0
:100550000F0C0CFA03F7BC4305FA03FC4CEA040445
:1005600091F803C0BCF1280F06D14FF0010C0CFA32
:1005700000FCC2F814C00AE091F803C0BCF1480FB7
:1005800005D14FF0010C0CFA00FCC2F810C0401C61
:100590000828D1D31460B1F800C0BCF1FF0F34DDDE
:1005A000546800202EE000F1080C4FF0010808FA12
:1005B0000CF3B1F800C00CEA03069E4221D183007F
:1005C0004FF00F0C0CFA03F7BC4305FA03FC4CEA9E
:1005D000040491F803C0BCF1280F05D100F1080C08
:1005E00008FA0CF8C2F8148091F803C0BCF1480F67
:1005F00007D100F1080C4FF0010808FA0CF8C2F816
:100600001080401C0828CED35460BDE8F0814FF61E
:10061000FF710180022181700421C1707047024680
:10062000002093680B4201D0012000E000207047B9
:100630000146886880B2704702460020D3680B42AA
:1006400001D0012000E0002070470146C86880B258
:10065000704701617047416170470AB1016100E074
:1006600041617047C16070474FF480320A43826134
:100670008161826182698269704702460020424B33
:1006800018684FF68073184040EA021008433E4B4A
:10069000186070473D49C8617047F0B50A460023AD
:1006A00000240021002500F00046B6F1004F02D1E1
:1006B000354EF16901E0344E7168C0F3034583B2F1
:1006C00000F44016B6F5401F08D121F070612E4E9F
:1006D000766826F070662C4F7E6012E000F480167B
:1006E000B6F5801F06D1032606FA05F4A14341F0B2
:1006F000706106E0460D360103FA06F6B14341F09B
:10070000706122B1460D360103FA06F6314300F05E
:100710000046B6F1004F02D11B4EF16101E01A4EC6
:100720007160F0BD30B500228B071C0F0F2303FA58
:1007300004F2154B08338C1053F824309343124CB9
:1007400008348D1044F8253023468C1053F824309B
:100750008C07240F00FA04F423430B4C08348D104B
:1007600044F8253030BD0A49086070470008014050
:10077000000C01400010014000140140001801402D
:10078000001C014000200140000001400000204208
:10079000DC002042DD48006840F00100DB490860D1
:1007A00008464068DA490840D84948600846006869
:1007B000D8490840D54908600846006820F48020E0
:1007C00008600846406820F4FE0048604FF41F00AF
:1007D00088607047CD49096821F48031CB4A1160A7
:1007E0001146096821F480211160B0F5803F03D0E3
:1007F000B0F5802F0ED106E0C449096841F480317C
:10080000C24A116007E0C149096841F4A021BF4A0A
:10081000116000E000BF00BF704710B50146002224
:10082000002300204A11012A02D1B84C236806E0B7
:10083000022A02D1B54C236A01E0B44C636A01F08C
:100840001F02012494401C4201D0012000E000203E
:1008500010BD38B5002000900024002500BF3120D5
:10086000FFF7DBFF05460098401C00900098B0F5AC
:10087000A06F01D0002DF2D03120FFF7CEFF08B1DC
:10088000012400E00024204638BD014600209F4A94
:10089000106820F0F80040EAC100106070479E49DF
:1008A0000860704702460020984B586820F47C107E
:1008B00042EA01031843954B586070479649086611
:1008C000704701460020914A506820F00300084319
:1008D000506070478D48406800F00C00704701463A
:1008E00000208A4A506820F0F000084350607047AA
:1008F00001460020854A506820F4E06008435060BB
:10090000704701460020814A506820F4605040EA58
:10091000C1005060704729B17C4A527A02437B4B38
:100920005A7204E0794A527A8243784B5A7270477D
:100930007A490860704701460020744A506820F4E4
:1009400040400843506070470021754A11706F4A5B
:1009500082F82010012802D0042808D103E00121E8
:100960006F4A117004E005216D4A117000E000BF6C
:1009700000BF70476B49086070476449096A0143CA
:10098000624A11627047674944390860704730B560
:1009900000210022002400235C4D6D6805F00C014D
:1009A00021B1042905D0082923D105E05E4D056059
:1009B00022E05D4D05601FE0544D6D6805F4701236
:1009C000524D6D6805F48034022505EB92421CB946
:1009D000564D554305600BE04C4D6D6815F4003FD6
:1009E00003D0524D5543056002E04F4D554305601D
:1009F00002E04D4D056000BF00BF444D6D6805F03D
:100A0000F00109094A4D6B5C0568DD4045603F4DCA
:100A10006D6805F4E061090A454D6B5C4568DD4091
:100A200085603A4D6D6805F46051C90A404D6B5CB4
:100A30004568DD40C560354D6D6805F44041890B62
:100A40003C4D6B5CC568B5FBF3F5056130BD29B164
:100A50002E4A526902432D4B5A6104E02B4A5269D7
:100A600082432A4B5A61704729B1284A926902434E
:100A7000264B9A6104E0254A92698243234B9A618E
:100A8000704729B1214AD2690243204BDA6104E060
:100A90001E4AD26982431D4BDA61704729B11B4A55
:100AA000D2680243194BDA6004E0184AD2688243E4
:100AB000164BDA60704729B1144A12690243134B8E
:100AC0001A6104E0114A12698243104B1A6170479F
:100AD00014494039086070470F49C86470470B4992
:100AE000C87170470948406A40F080700749486201
:100AF000704701460020054A92680A4201D0012051
:100B000000E00020704701498872704700100240E1
:100B10000000FFF8FFFFF6FE00004242D80042420C
:100B2000201002408004424200127A0000093D0079
:100B3000000000201000002010B50446FB4884424D
:100B400009D101218803FFF7A9FF00214FF480405C
:100B5000FFF7A4FF32E0F648844209D1012148049E
:100B6000FFF7A9FF00214FF40030FFF7A4FF25E0B5
:100B7000F048844209D101218804FFF79CFF00213D
:100B80004FF48020FFF797FF18E0EB48844209D12B
:100B90000121C804FFF78FFF00214FF40020FFF769
:100BA0008AFF0BE0E548844208D101210805FFF7E0
:100BB00082FF00214FF48010FFF77DFF10BD2DE96B
:100BC000F04786B005460E460024A24600BFA14667
:100BD0000027B08900B100BF2F462C8A4CF6FF7069
:100BE0000440F08804432C82AC894EF6F310044094
:100BF000B08831890843718908430443AC81AC8AC9
:100C00004FF6FF400440B0890443AC8201A8FFF7CF
:100C1000BEFEC648874202D1DDF810A001E0DDF833
:100C20000CA0A88910F4004F08D00AEBCA0000EB12
:100C30000A1031684900B0FBF1F807E00AEBCA007E
:100C400000EB0A1031688900B0FBF1F86420B8FBB2
:100C5000F0F004012009642101FB1089A88910F437
:100C6000004F08D0322000EBC900B0FBF1F000F0DB
:100C70000700044308E0322000EB09106421B0FBB8
:100C8000F1F000F00F0004432C8106B0BDE8F087BE
:100C90004FF41651016000218180C18001810C2137
:100CA000418100218181704710B502460020108AE1
:100CB0004FF2FF0318400B884C8823438C88234352
:100CC000CC8823431843108210BD0021018041804D
:100CD0008180C180704721B1828942F400528281B3
:100CE00004E082894DF6FF731A4082817047F0B5A7
:100CF00003460024002600250020A1F510676A3F66
:100D000000D100BF1846C1F3421401F01F060127AD
:100D100007FA06F5012C01D10C3004E0022C01D1B8
:100D2000103000E014301AB107682F43076002E06A
:100D30000768AF430760F0BD1AB1838A0B43838213
:100D400002E0838A8B4383827047028A4FF6F073F6
:100D50001A400282028A0A430282704782894FF255
:100D6000FF731A40828182890A438281704721B1D0
:100D7000828942F00202828104E082894FF6FD738B
:100D80001A4082817047028A4FF6DF731A4002824E
:100D9000028A0A430282704721B1028A42F48042E9
:100DA000028204E0028A4BF6FF731A400282704707
:100DB000C1F308028280704701468888C0F30800AA
:100DC0007047818941F0010181817047028BD2B265
:100DD0000283028B42EA012202837047028B02F4F3
:100DE0007F420283028B0A430283704721B1828AC9
:100DF00042F02002828204E0828A4FF6DF731A40BA
:100E00008282704721B1828A42F01002828204E01D
:100E1000828A4FF6EF731A408282704721B1828A2C
:100E200042F00802828204E0828A4FF6F7731A4089
:100E30008282704721B1828942F40042828103E0BC
:100E40008289C2F30E028281704721B1828A42F404
:100E50000062828204E0828A4FF2FF731A4082822B
:100E60007047828A4FF6FB731A408282828A0A4355
:100E70008282704721B1828A42F00202828204E0BB
:100E8000828A4FF6FD731A40828270470246002024
:100E9000B1F5007F00D100BF13880B4201D00120C3
:100EA00000E00020704701F40072B2F5007F00D12D
:100EB00000BFCA430280704770B502460024002379
:100EC00000250020A1F510666A3E00D100BFC1F3E5
:100ED000421501F01F03012606FA03F3012D02D18A
:100EE0009689334006E0022D02D1168A334001E094
:100EF000968A33400C12012606FA04F41688344010
:100F000013B10CB1012000E0002070BD10B500222B
:100F10000023A1F510646A3C00D100BF0A1201242D
:100F20009440A3B2DC43048010BD000000380140AF
:100F30000044004000480040004C00400050004089
:100F400010B56FF00400FFF75BFA2D4800682D49DB
:100F5000B0FBF1F02C4908700846007800EB400126
:100F6000C1EBC0104FF6FF7101EAC00027490880AD
:100F700010BD0146244A12784A434FF0E0235A61DB
:100F800000229A611A46126942F001021A6100BFFA
:100F90004FF0E022106910F0010F02D010F4803FF2
:100FA000F6D04FF0E022126922F001024FF0E02368
:100FB0001A6100229A6170470146144A12884A4316
:100FC0004FF0E0235A6100229A611A46126942F0FA
:100FD00001021A6100BF4FF0E022106910F0010F0A
:100FE00002D010F4803FF6D04FF0E022126922F0D8
:100FF00001024FF0E0231A6100229A61704700005D
:101000001800002000127A001400002016000020B2
:10101000704700BFFEE700BFFEE700BFFEE700BF6E
:10102000FEE7704770477047704710B54FF4A060F7
:10103000FFF796F910BD00000CB50020019000905C
:101040006B48006840F480306949086000BF684818
:10105000006800F4003000900198401C0190009856
:1010600018B90198B0F5A06FF1D16148006810F48B
:10107000003F02D00120009001E000200090009885
:10108000012842D15B48006840F0100059490860CF
:101090000846006820F0030008600846006840F039
:1010A000020008605248406851494860084640685C
:1010B00048600846406840F48060486008464068E0
:1010C00020F47C1048600846406840F4E81048600E
:1010D0000846006840F08070086000BF444800681F
:1010E00010F0007FFAD04248406820F003004049E9
:1010F00048600846406840F00200486000BF3C4835
:10110000406800F00C000828F9D10CBD10B5FFF7BD
:1011100093FF10BD10B53648006840F00100344917
:10112000086008464068344908403149486008462C
:101130000068324908402E4908600846006820F4DB
:10114000802008600846406820F4FE0048604FF4A4
:101150001F008860FFF7DAFF4FF000602849086041
:1011600010BD10B5002100200022214B5B6803F068
:101170000C0121B1042906D0082928D107E0214B10
:10118000214C236027E01F4B1F4C236023E0184BAA
:101190005B6803F47010164B5B6803F48032022323
:1011A00003EB904022B9194B4343174C23600DE0E9
:1011B0000F4B5B6813F4003F04D0144B4343124CB5
:1011C000236003E00F4B43430F4C236003E00D4BC0
:1011D0000D4C236000BF00BF054B5B68C3F30313D6
:1011E0000B4CE15C084B1B68CB40074C236010BDE7
:1011F00000100240002002400000FFF8FFFFF6FE52
:1012000008ED00E000127A001800002000093D00FF
:101210001C000020014600BF704700BF4A4A1288E8
:1012200012F0400FFAD0C2B2474B1B1D1A80704714
:1012300010B586B00446012144F20400FFF714FC07
:101240004148FFF779FC4FF40070ADF8140003201B
:101250008DF8160018208DF8170005A93B48FFF7F8
:101260004DF94FF48060ADF8140004208DF817009C
:1012700005A93648FFF742F925208DF80000032024
:101280008DF801008DF8020001208DF803006846FA
:10129000FFF76BF801940020ADF80800ADF80A00E4
:1012A000ADF80C00ADF810000C20ADF80E0001A94F
:1012B0002548FFF784FC012240F225512248FFF720
:1012C00016FD01212048FFF706FD06B010BD10B540
:1012D00040F225511C48FFF7EFFD10B31A48FFF705
:1012E0006BFDC4B21A48008810F4004F2BD1184887
:1012F000008810F4804F0CD00A2C03D00020144931
:10130000088020E01248008840F40040104908801E
:1013100019E00D2C06D10E48008840F480400C499D
:10132000088010E00A480088C0F30D0009490C54F9
:1013300007480088401C0649088008460088C728DE
:1013400001DD0020088010BD003801400008014088
:101350002C00002034000020704700000FB4044926
:1013600010B503AA029800F0D5F810BC5DF814FB84
:10137000300000202DE9F0410E4604460020206296
:101380002046E168884730B3252805D0D4E90121FB
:101390009047206A401CF2E7E16820460027884712
:1013A000050018D0A5F14100192802D820354FF4C6
:1013B00000673246294620462760FEF7F3FE40B11B
:1013C000012804D0F61D26F007060836D8E7361D9A
:1013D000D6E72846DAE7206ABDE8F0812DE9F0413A
:1013E0000646002410687529314616A511D0AFF3C2
:1013F0000080002803DAC0F1000013A507E031687F
:101400008A0701D511A502E0490704D510A50124DA
:1014100001E0AFF3008000210A2306F1240707E072
:10142000B0FBF3F203FB1200303078541046491C35
:101430000028F5D123462A463046BDE8F04100F0A9
:101440000DB80000000000002D0000002B0000007F
:101450002000000070477047704770472DE9F04743
:101460000D4699469246044600F124080168880614
:1014700004D5E06921F01001216000E00120A842BC
:1014800002DDA0EB050700E00027A16907EB0502DC
:1014900002EB0900A1EB0000A0612078C00602D495
:1014A0002046AFF30080002608E0D4E901211AF8B5
:1014B00006009047206A401C761C20624E45F4DBF3
:1014C0002078C0060AD52046AFF3008006E0D4E9B4
:1014D000012130209047206A401C2062381EA7F16D
:1014E0000107F4DC07E0D4E9012118F80500904772
:1014F000206A401C2062281EA5F10105F3DC20466D
:10150000AFF300802078000602D50220BDE8F08706
:101510000120FBE7074B70B50D467B4400F011F846
:101520000446284600F020F810B14FF0FF3070BD9F
:10153000204670BDFDFCFFFF01694A1C026108786E
:10154000704700B58FB0CDE9013100210591054903
:101550007944CDE9031011466846FFF70BFF0FB041
:1015600000BD0000E5FFFFFF007B00F0800070473A
:10157000754600F029F8AE4605006946534620F04E
:101580000700854618B020B5FEF7D8FEBDE820401C
:101590004FF000064FF000074FF000084FF0000B2F
:1015A00021F00701AC46ACE8C009ACE8C009ACE8E2
:1015B000C009ACE8C0098D4670470446AFF300800F
:1015C0002046FEF701FE000000487047FC000020A6
:1015D000F015000800000020340000006C01000835
:1015E00024160008340000202C07000088010008A1
:1015F00000000000010203040102030406070809B9
:10160000020406080000000000A24A0400000000D6
:1016100000000000010203040607080900000000A2
:0416200000000000C6
:0400000508000131BD
:00000001FF
